{
  "contractName": "CrowdsaleExt",
  "abi": [
    {
      "constant": true,
      "inputs": [],
      "name": "ownerTestValue",
      "outputs": [
        {
          "name": "",
          "type": "uint256"
        }
      ],
      "payable": false,
      "stateMutability": "view",
      "type": "function"
    },
    {
      "constant": true,
      "inputs": [],
      "name": "name",
      "outputs": [
        {
          "name": "",
          "type": "string"
        }
      ],
      "payable": false,
      "stateMutability": "view",
      "type": "function"
    },
    {
      "constant": true,
      "inputs": [],
      "name": "endsAt",
      "outputs": [
        {
          "name": "",
          "type": "uint256"
        }
      ],
      "payable": false,
      "stateMutability": "view",
      "type": "function"
    },
    {
      "constant": true,
      "inputs": [],
      "name": "minimumFundingGoal",
      "outputs": [
        {
          "name": "",
          "type": "uint256"
        }
      ],
      "payable": false,
      "stateMutability": "view",
      "type": "function"
    },
    {
      "constant": true,
      "inputs": [
        {
          "name": "",
          "type": "address"
        }
      ],
      "name": "investedAmountOf",
      "outputs": [
        {
          "name": "",
          "type": "uint256"
        }
      ],
      "payable": false,
      "stateMutability": "view",
      "type": "function"
    },
    {
      "constant": true,
      "inputs": [],
      "name": "finalizeAgent",
      "outputs": [
        {
          "name": "",
          "type": "address"
        }
      ],
      "payable": false,
      "stateMutability": "view",
      "type": "function"
    },
    {
      "constant": true,
      "inputs": [],
      "name": "weiRaised",
      "outputs": [
        {
          "name": "",
          "type": "uint256"
        }
      ],
      "payable": false,
      "stateMutability": "view",
      "type": "function"
    },
    {
      "constant": true,
      "inputs": [],
      "name": "tokensSold",
      "outputs": [
        {
          "name": "",
          "type": "uint256"
        }
      ],
      "payable": false,
      "stateMutability": "view",
      "type": "function"
    },
    {
      "constant": false,
      "inputs": [],
      "name": "halt",
      "outputs": [],
      "payable": false,
      "stateMutability": "nonpayable",
      "type": "function"
    },
    {
      "constant": true,
      "inputs": [],
      "name": "MAX_INVESTMENTS_BEFORE_MULTISIG_CHANGE",
      "outputs": [
        {
          "name": "",
          "type": "uint256"
        }
      ],
      "payable": false,
      "stateMutability": "view",
      "type": "function"
    },
    {
      "constant": false,
      "inputs": [],
      "name": "renounceOwnership",
      "outputs": [],
      "payable": false,
      "stateMutability": "nonpayable",
      "type": "function"
    },
    {
      "constant": true,
      "inputs": [],
      "name": "pricingStrategy",
      "outputs": [
        {
          "name": "",
          "type": "address"
        }
      ],
      "payable": false,
      "stateMutability": "view",
      "type": "function"
    },
    {
      "constant": true,
      "inputs": [],
      "name": "joinedCrowdsalesLenMax",
      "outputs": [
        {
          "name": "",
          "type": "uint8"
        }
      ],
      "payable": false,
      "stateMutability": "view",
      "type": "function"
    },
    {
      "constant": true,
      "inputs": [],
      "name": "owner",
      "outputs": [
        {
          "name": "",
          "type": "address"
        }
      ],
      "payable": false,
      "stateMutability": "view",
      "type": "function"
    },
    {
      "constant": true,
      "inputs": [],
      "name": "isOwner",
      "outputs": [
        {
          "name": "",
          "type": "bool"
        }
      ],
      "payable": false,
      "stateMutability": "view",
      "type": "function"
    },
    {
      "constant": true,
      "inputs": [],
      "name": "multisigWallet",
      "outputs": [
        {
          "name": "",
          "type": "address"
        }
      ],
      "payable": false,
      "stateMutability": "view",
      "type": "function"
    },
    {
      "constant": true,
      "inputs": [
        {
          "name": "",
          "type": "address"
        }
      ],
      "name": "tokenAmountOf",
      "outputs": [
        {
          "name": "",
          "type": "uint256"
        }
      ],
      "payable": false,
      "stateMutability": "view",
      "type": "function"
    },
    {
      "constant": true,
      "inputs": [],
      "name": "startsAt",
      "outputs": [
        {
          "name": "",
          "type": "uint256"
        }
      ],
      "payable": false,
      "stateMutability": "view",
      "type": "function"
    },
    {
      "constant": true,
      "inputs": [],
      "name": "finalized",
      "outputs": [
        {
          "name": "",
          "type": "bool"
        }
      ],
      "payable": false,
      "stateMutability": "view",
      "type": "function"
    },
    {
      "constant": true,
      "inputs": [],
      "name": "halted",
      "outputs": [
        {
          "name": "",
          "type": "bool"
        }
      ],
      "payable": false,
      "stateMutability": "view",
      "type": "function"
    },
    {
      "constant": true,
      "inputs": [
        {
          "name": "",
          "type": "uint256"
        }
      ],
      "name": "joinedCrowdsales",
      "outputs": [
        {
          "name": "",
          "type": "address"
        }
      ],
      "payable": false,
      "stateMutability": "view",
      "type": "function"
    },
    {
      "constant": true,
      "inputs": [
        {
          "name": "",
          "type": "address"
        }
      ],
      "name": "earlyParticipantWhitelist",
      "outputs": [
        {
          "name": "status",
          "type": "bool"
        },
        {
          "name": "minCap",
          "type": "uint256"
        },
        {
          "name": "maxCap",
          "type": "uint256"
        }
      ],
      "payable": false,
      "stateMutability": "view",
      "type": "function"
    },
    {
      "constant": false,
      "inputs": [],
      "name": "unhalt",
      "outputs": [],
      "payable": false,
      "stateMutability": "nonpayable",
      "type": "function"
    },
    {
      "constant": true,
      "inputs": [],
      "name": "investorCount",
      "outputs": [
        {
          "name": "",
          "type": "uint256"
        }
      ],
      "payable": false,
      "stateMutability": "view",
      "type": "function"
    },
    {
      "constant": true,
      "inputs": [
        {
          "name": "",
          "type": "uint256"
        }
      ],
      "name": "whitelistedParticipants",
      "outputs": [
        {
          "name": "",
          "type": "address"
        }
      ],
      "payable": false,
      "stateMutability": "view",
      "type": "function"
    },
    {
      "constant": true,
      "inputs": [],
      "name": "joinedCrowdsalesLen",
      "outputs": [
        {
          "name": "",
          "type": "uint8"
        }
      ],
      "payable": false,
      "stateMutability": "view",
      "type": "function"
    },
    {
      "constant": true,
      "inputs": [],
      "name": "isWhiteListed",
      "outputs": [
        {
          "name": "",
          "type": "bool"
        }
      ],
      "payable": false,
      "stateMutability": "view",
      "type": "function"
    },
    {
      "constant": false,
      "inputs": [
        {
          "name": "newOwner",
          "type": "address"
        }
      ],
      "name": "transferOwnership",
      "outputs": [],
      "payable": false,
      "stateMutability": "nonpayable",
      "type": "function"
    },
    {
      "constant": true,
      "inputs": [],
      "name": "token",
      "outputs": [
        {
          "name": "",
          "type": "address"
        }
      ],
      "payable": false,
      "stateMutability": "view",
      "type": "function"
    },
    {
      "inputs": [
        {
          "name": "_name",
          "type": "string"
        },
        {
          "name": "_token",
          "type": "address"
        },
        {
          "name": "_pricingStrategy",
          "type": "address"
        },
        {
          "name": "_multisigWallet",
          "type": "address"
        },
        {
          "name": "_start",
          "type": "uint256"
        },
        {
          "name": "_end",
          "type": "uint256"
        },
        {
          "name": "_minimumFundingGoal",
          "type": "uint256"
        },
        {
          "name": "_isWhiteListed",
          "type": "bool"
        }
      ],
      "payable": false,
      "stateMutability": "nonpayable",
      "type": "constructor"
    },
    {
      "payable": true,
      "stateMutability": "payable",
      "type": "fallback"
    },
    {
      "anonymous": false,
      "inputs": [
        {
          "indexed": false,
          "name": "investor",
          "type": "address"
        },
        {
          "indexed": false,
          "name": "weiAmount",
          "type": "uint256"
        },
        {
          "indexed": false,
          "name": "tokenAmount",
          "type": "uint256"
        },
        {
          "indexed": false,
          "name": "customerId",
          "type": "uint128"
        }
      ],
      "name": "Invested",
      "type": "event"
    },
    {
      "anonymous": false,
      "inputs": [
        {
          "indexed": false,
          "name": "addr",
          "type": "address"
        },
        {
          "indexed": false,
          "name": "status",
          "type": "bool"
        },
        {
          "indexed": false,
          "name": "minCap",
          "type": "uint256"
        },
        {
          "indexed": false,
          "name": "maxCap",
          "type": "uint256"
        }
      ],
      "name": "Whitelisted",
      "type": "event"
    },
    {
      "anonymous": false,
      "inputs": [
        {
          "indexed": false,
          "name": "addr",
          "type": "address"
        },
        {
          "indexed": false,
          "name": "status",
          "type": "bool"
        },
        {
          "indexed": false,
          "name": "minCap",
          "type": "uint256"
        },
        {
          "indexed": false,
          "name": "maxCap",
          "type": "uint256"
        }
      ],
      "name": "WhitelistItemChanged",
      "type": "event"
    },
    {
      "anonymous": false,
      "inputs": [
        {
          "indexed": false,
          "name": "newStartsAt",
          "type": "uint256"
        }
      ],
      "name": "StartsAtChanged",
      "type": "event"
    },
    {
      "anonymous": false,
      "inputs": [
        {
          "indexed": false,
          "name": "newEndsAt",
          "type": "uint256"
        }
      ],
      "name": "EndsAtChanged",
      "type": "event"
    },
    {
      "anonymous": false,
      "inputs": [
        {
          "indexed": true,
          "name": "previousOwner",
          "type": "address"
        }
      ],
      "name": "OwnershipRenounced",
      "type": "event"
    },
    {
      "anonymous": false,
      "inputs": [
        {
          "indexed": true,
          "name": "previousOwner",
          "type": "address"
        },
        {
          "indexed": true,
          "name": "newOwner",
          "type": "address"
        }
      ],
      "name": "OwnershipTransferred",
      "type": "event"
    },
    {
      "constant": false,
      "inputs": [
        {
          "name": "addr",
          "type": "address"
        }
      ],
      "name": "invest",
      "outputs": [],
      "payable": true,
      "stateMutability": "payable",
      "type": "function"
    },
    {
      "constant": false,
      "inputs": [],
      "name": "buy",
      "outputs": [],
      "payable": true,
      "stateMutability": "payable",
      "type": "function"
    },
    {
      "constant": false,
      "inputs": [
        {
          "name": "reservedTokensDistributionBatch",
          "type": "uint256"
        }
      ],
      "name": "distributeReservedTokens",
      "outputs": [],
      "payable": false,
      "stateMutability": "nonpayable",
      "type": "function"
    },
    {
      "constant": true,
      "inputs": [],
      "name": "areReservedTokensDistributed",
      "outputs": [
        {
          "name": "",
          "type": "bool"
        }
      ],
      "payable": false,
      "stateMutability": "view",
      "type": "function"
    },
    {
      "constant": true,
      "inputs": [],
      "name": "canDistributeReservedTokens",
      "outputs": [
        {
          "name": "",
          "type": "bool"
        }
      ],
      "payable": false,
      "stateMutability": "view",
      "type": "function"
    },
    {
      "constant": false,
      "inputs": [],
      "name": "finalize",
      "outputs": [],
      "payable": false,
      "stateMutability": "nonpayable",
      "type": "function"
    },
    {
      "constant": false,
      "inputs": [
        {
          "name": "addr",
          "type": "address"
        }
      ],
      "name": "setFinalizeAgent",
      "outputs": [],
      "payable": false,
      "stateMutability": "nonpayable",
      "type": "function"
    },
    {
      "constant": false,
      "inputs": [
        {
          "name": "addr",
          "type": "address"
        },
        {
          "name": "status",
          "type": "bool"
        },
        {
          "name": "minCap",
          "type": "uint256"
        },
        {
          "name": "maxCap",
          "type": "uint256"
        }
      ],
      "name": "setEarlyParticipantWhitelist",
      "outputs": [],
      "payable": false,
      "stateMutability": "nonpayable",
      "type": "function"
    },
    {
      "constant": false,
      "inputs": [
        {
          "name": "addrs",
          "type": "address[]"
        },
        {
          "name": "statuses",
          "type": "bool[]"
        },
        {
          "name": "minCaps",
          "type": "uint256[]"
        },
        {
          "name": "maxCaps",
          "type": "uint256[]"
        }
      ],
      "name": "setEarlyParticipantWhitelistMultiple",
      "outputs": [],
      "payable": false,
      "stateMutability": "nonpayable",
      "type": "function"
    },
    {
      "constant": false,
      "inputs": [
        {
          "name": "addr",
          "type": "address"
        },
        {
          "name": "tokensBought",
          "type": "uint256"
        }
      ],
      "name": "updateEarlyParticipantWhitelist",
      "outputs": [],
      "payable": false,
      "stateMutability": "nonpayable",
      "type": "function"
    },
    {
      "constant": true,
      "inputs": [
        {
          "name": "addr",
          "type": "address"
        }
      ],
      "name": "isAddressWhitelisted",
      "outputs": [
        {
          "name": "",
          "type": "bool"
        }
      ],
      "payable": false,
      "stateMutability": "view",
      "type": "function"
    },
    {
      "constant": true,
      "inputs": [],
      "name": "whitelistedParticipantsLength",
      "outputs": [
        {
          "name": "",
          "type": "uint256"
        }
      ],
      "payable": false,
      "stateMutability": "view",
      "type": "function"
    },
    {
      "constant": true,
      "inputs": [
        {
          "name": "addr",
          "type": "address"
        }
      ],
      "name": "isTierJoined",
      "outputs": [
        {
          "name": "",
          "type": "bool"
        }
      ],
      "payable": false,
      "stateMutability": "view",
      "type": "function"
    },
    {
      "constant": true,
      "inputs": [
        {
          "name": "addr",
          "type": "address"
        }
      ],
      "name": "getTierPosition",
      "outputs": [
        {
          "name": "",
          "type": "uint8"
        }
      ],
      "payable": false,
      "stateMutability": "view",
      "type": "function"
    },
    {
      "constant": true,
      "inputs": [],
      "name": "getLastTier",
      "outputs": [
        {
          "name": "",
          "type": "address"
        }
      ],
      "payable": false,
      "stateMutability": "view",
      "type": "function"
    },
    {
      "constant": false,
      "inputs": [
        {
          "name": "addrs",
          "type": "address[]"
        }
      ],
      "name": "updateJoinedCrowdsalesMultiple",
      "outputs": [],
      "payable": false,
      "stateMutability": "nonpayable",
      "type": "function"
    },
    {
      "constant": false,
      "inputs": [
        {
          "name": "time",
          "type": "uint256"
        }
      ],
      "name": "setStartsAt",
      "outputs": [],
      "payable": false,
      "stateMutability": "nonpayable",
      "type": "function"
    },
    {
      "constant": false,
      "inputs": [
        {
          "name": "time",
          "type": "uint256"
        }
      ],
      "name": "setEndsAt",
      "outputs": [],
      "payable": false,
      "stateMutability": "nonpayable",
      "type": "function"
    },
    {
      "constant": false,
      "inputs": [
        {
          "name": "_pricingStrategy",
          "type": "address"
        }
      ],
      "name": "setPricingStrategy",
      "outputs": [],
      "payable": false,
      "stateMutability": "nonpayable",
      "type": "function"
    },
    {
      "constant": false,
      "inputs": [
        {
          "name": "addr",
          "type": "address"
        }
      ],
      "name": "setMultisig",
      "outputs": [],
      "payable": false,
      "stateMutability": "nonpayable",
      "type": "function"
    },
    {
      "constant": true,
      "inputs": [],
      "name": "isMinimumGoalReached",
      "outputs": [
        {
          "name": "reached",
          "type": "bool"
        }
      ],
      "payable": false,
      "stateMutability": "view",
      "type": "function"
    },
    {
      "constant": true,
      "inputs": [],
      "name": "isFinalizerSane",
      "outputs": [
        {
          "name": "sane",
          "type": "bool"
        }
      ],
      "payable": false,
      "stateMutability": "view",
      "type": "function"
    },
    {
      "constant": true,
      "inputs": [],
      "name": "isPricingSane",
      "outputs": [
        {
          "name": "sane",
          "type": "bool"
        }
      ],
      "payable": false,
      "stateMutability": "view",
      "type": "function"
    },
    {
      "constant": true,
      "inputs": [],
      "name": "getState",
      "outputs": [
        {
          "name": "",
          "type": "uint8"
        }
      ],
      "payable": false,
      "stateMutability": "view",
      "type": "function"
    },
    {
      "constant": true,
      "inputs": [],
      "name": "isCrowdsale",
      "outputs": [
        {
          "name": "",
          "type": "bool"
        }
      ],
      "payable": false,
      "stateMutability": "view",
      "type": "function"
    },
    {
      "constant": true,
      "inputs": [
        {
          "name": "weiAmount",
          "type": "uint256"
        },
        {
          "name": "tokenAmount",
          "type": "uint256"
        },
        {
          "name": "weiRaisedTotal",
          "type": "uint256"
        },
        {
          "name": "tokensSoldTotal",
          "type": "uint256"
        }
      ],
      "name": "isBreakingCap",
      "outputs": [
        {
          "name": "limitBroken",
          "type": "bool"
        }
      ],
      "payable": false,
      "stateMutability": "view",
      "type": "function"
    },
    {
      "constant": true,
      "inputs": [
        {
          "name": "receiver",
          "type": "address"
        },
        {
          "name": "tokenAmount",
          "type": "uint256"
        }
      ],
      "name": "isBreakingInvestorCap",
      "outputs": [
        {
          "name": "limitBroken",
          "type": "bool"
        }
      ],
      "payable": false,
      "stateMutability": "view",
      "type": "function"
    },
    {
      "constant": true,
      "inputs": [],
      "name": "isCrowdsaleFull",
      "outputs": [
        {
          "name": "",
          "type": "bool"
        }
      ],
      "payable": false,
      "stateMutability": "view",
      "type": "function"
    }
  ],
  "bytecode": "0x608060405260056001556000600a556000600b556000600c556000600f60006101000a81548160ff021916908360ff1602179055506032600f60016101000a81548160ff021916908360ff1602179055503480156200005d57600080fd5b5060405162004ec438038062004ec48339810180604052810190808051820192919060200180519060200190929190805190602001909291908051906020019092919080519060200190929190805190602001909291908051906020019092919080519060200190929190505050336000806101000a81548173ffffffffffffffffffffffffffffffffffffffff021916908373ffffffffffffffffffffffffffffffffffffffff160217905550336000806101000a81548173ffffffffffffffffffffffffffffffffffffffff021916908373ffffffffffffffffffffffffffffffffffffffff16021790555087600590805190602001906200016392919062000543565b5086600260006101000a81548173ffffffffffffffffffffffffffffffffffffffff021916908373ffffffffffffffffffffffffffffffffffffffff160217905550620001bf86620002b5640100000000026401000000009004565b84600660006101000a81548173ffffffffffffffffffffffffffffffffffffffff021916908373ffffffffffffffffffffffffffffffffffffffff1602179055506000600660009054906101000a900473ffffffffffffffffffffffffffffffffffffffff1673ffffffffffffffffffffffffffffffffffffffff1614156200024757600080fd5b60008414156200025657600080fd5b8360088190555060008314156200026c57600080fd5b826009819055506009546008541015156200028657600080fd5b8160078190555080600d60016101000a81548160ff0219169083151502179055505050505050505050620005f2565b620002ce620004ec640100000000026401000000009004565b151562000343576040517f08c379a00000000000000000000000000000000000000000000000000000000081526004018080602001828103825260098152602001807f4e6f74206f776e6572000000000000000000000000000000000000000000000081525060200191505060405180910390fd5b600073ffffffffffffffffffffffffffffffffffffffff168173ffffffffffffffffffffffffffffffffffffffff16141515156200037d57fe5b600073ffffffffffffffffffffffffffffffffffffffff16600360009054906101000a900473ffffffffffffffffffffffffffffffffffffffff1673ffffffffffffffffffffffffffffffffffffffff16141515620003d857fe5b80600360006101000a81548173ffffffffffffffffffffffffffffffffffffffff021916908373ffffffffffffffffffffffffffffffffffffffff160217905550600360009054906101000a900473ffffffffffffffffffffffffffffffffffffffff1673ffffffffffffffffffffffffffffffffffffffff166304bbc2556040518163ffffffff167c0100000000000000000000000000000000000000000000000000000000028152600401602060405180830381600087803b158015620004a057600080fd5b505af1158015620004b5573d6000803e3d6000fd5b505050506040513d6020811015620004cc57600080fd5b81019080805190602001909291905050501515620004e957600080fd5b50565b60008060009054906101000a900473ffffffffffffffffffffffffffffffffffffffff1673ffffffffffffffffffffffffffffffffffffffff163373ffffffffffffffffffffffffffffffffffffffff1614905090565b828054600181600116156101000203166002900490600052602060002090601f016020900481019282601f106200058657805160ff1916838001178555620005b7565b82800160010185558215620005b7579182015b82811115620005b657825182559160200191906001019062000599565b5b509050620005c69190620005ca565b5090565b620005ef91905b80821115620005eb576000816000905550600101620005d1565b5090565b90565b6148c280620006026000396000f3006080604052600436106102a9576000357c0100000000000000000000000000000000000000000000000000000000900463ffffffff1680630226401d146102ae57806303f9c793146102d9578063045b1a0c1461030f57806304fc7c6d14610374578063062b01ce146103da57806306fdde03146104095780630a09284a1461049957806313f44d10146104c457806313f4e9771461051f5780631865c57d1461054a57806319b667da146105835780631a98d0de146105c65780631aae3460146105f157806321d5c0f614610648578063253ebd921461069f57806325e0671f146106fa5780634042b66f146107295780634551dd59146107545780634bb278f31461078357806350c677341461079a578063518ab2a8146107dd5780635ed7ca5b146108085780636203f09f1461081f5780636e50eb3f1461084a578063715018a61461087757806378b99c241461088e5780637c2e08a3146108e55780638507bee814610914578063895594f6146109455780638da5cb5b146109a85780638f32d59b146109ff5780639075becf14610a2e57806397b150ca14610a855780639d3c663f14610adc578063a6f2ae3a14610b3f578063a7ba44c314610b49578063af46868214610b78578063af58574a14610ba3578063b1cb574b14610c00578063b3f05b9714610d2f578063b9b8af0b14610d5e578063bd71933614610d8d578063bede2cac14610dbc578063bf5fc2ee14610e29578063c12eb19114610e56578063c24becf314610ea3578063cb16e6d014610efa578063cb3e64fd14610f63578063cddaf24114610f7a578063d5d0902114610fa7578063d7e64c0014610fd6578063e6d04d5e14611001578063ebdfa4551461106e578063ef674e661461109f578063f2fde38b146110ce578063f3283fba14611111578063fc0c546a14611154575b600080fd5b3480156102ba57600080fd5b506102c36111ab565b6040518082815260200191505060405180910390f35b61030d600480360381019080803573ffffffffffffffffffffffffffffffffffffffff1690602001909291905050506111b1565b005b34801561031b57600080fd5b5061035a600480360381019080803573ffffffffffffffffffffffffffffffffffffffff169060200190929190803590602001909291905050506111bf565b604051808215151515815260200191505060405180910390f35b34801561038057600080fd5b506103d8600480360381019080803590602001908201803590602001908080602002602001604051908101604052809392919081815260200183836020028082843782019150505050505091929192905050506111c7565b005b3480156103e657600080fd5b506103ef6112d4565b604051808215151515815260200191505060405180910390f35b34801561041557600080fd5b5061041e6113d3565b6040518080602001828103825283818151815260200191508051906020019080838360005b8381101561045e578082015181840152602081019050610443565b50505050905090810190601f16801561048b5780820380516001836020036101000a031916815260200191505b509250505060405180910390f35b3480156104a557600080fd5b506104ae611471565b6040518082815260200191505060405180910390f35b3480156104d057600080fd5b50610505600480360381019080803573ffffffffffffffffffffffffffffffffffffffff169060200190929190505050611477565b604051808215151515815260200191505060405180910390f35b34801561052b57600080fd5b5061053461151a565b6040518082815260200191505060405180910390f35b34801561055657600080fd5b5061055f611520565b6040518082600681111561056f57fe5b60ff16815260200191505060405180910390f35b34801561058f57600080fd5b506105c4600480360381019080803573ffffffffffffffffffffffffffffffffffffffff1690602001909291905050506117b7565b005b3480156105d257600080fd5b506105db6119d6565b6040518082815260200191505060405180910390f35b3480156105fd57600080fd5b50610632600480360381019080803573ffffffffffffffffffffffffffffffffffffffff1690602001909291905050506119e3565b6040518082815260200191505060405180910390f35b34801561065457600080fd5b5061065d6119fb565b604051808273ffffffffffffffffffffffffffffffffffffffff1673ffffffffffffffffffffffffffffffffffffffff16815260200191505060405180910390f35b3480156106ab57600080fd5b506106e0600480360381019080803573ffffffffffffffffffffffffffffffffffffffff169060200190929190505050611a21565b604051808215151515815260200191505060405180910390f35b34801561070657600080fd5b5061070f611a7a565b604051808215151515815260200191505060405180910390f35b34801561073557600080fd5b5061073e611b42565b6040518082815260200191505060405180910390f35b34801561076057600080fd5b50610769611b48565b604051808215151515815260200191505060405180910390f35b34801561078f57600080fd5b50610798611b51565b005b3480156107a657600080fd5b506107db600480360381019080803573ffffffffffffffffffffffffffffffffffffffff169060200190929190505050611d43565b005b3480156107e957600080fd5b506107f2611f62565b6040518082815260200191505060405180910390f35b34801561081457600080fd5b5061081d611f68565b005b34801561082b57600080fd5b50610834612001565b6040518082815260200191505060405180910390f35b34801561085657600080fd5b5061087560048036038101908080359060200190929190505050612007565b005b34801561088357600080fd5b5061088c6122e9565b005b34801561089a57600080fd5b506108a361240c565b604051808273ffffffffffffffffffffffffffffffffffffffff1673ffffffffffffffffffffffffffffffffffffffff16815260200191505060405180910390f35b3480156108f157600080fd5b506108fa612432565b604051808215151515815260200191505060405180910390f35b34801561092057600080fd5b50610929612441565b604051808260ff1660ff16815260200191505060405180910390f35b34801561095157600080fd5b506109a6600480360381019080803573ffffffffffffffffffffffffffffffffffffffff1690602001909291908035151590602001909291908035906020019092919080359060200190929190505050612454565b005b3480156109b457600080fd5b506109bd61275d565b604051808273ffffffffffffffffffffffffffffffffffffffff1673ffffffffffffffffffffffffffffffffffffffff16815260200191505060405180910390f35b348015610a0b57600080fd5b50610a14612786565b604051808215151515815260200191505060405180910390f35b348015610a3a57600080fd5b50610a436127dd565b604051808273ffffffffffffffffffffffffffffffffffffffff1673ffffffffffffffffffffffffffffffffffffffff16815260200191505060405180910390f35b348015610a9157600080fd5b50610ac6600480360381019080803573ffffffffffffffffffffffffffffffffffffffff169060200190929190505050612803565b6040518082815260200191505060405180910390f35b348015610ae857600080fd5b50610b256004803603810190808035906020019092919080359060200190929190803590602001909291908035906020019092919050505061281b565b604051808215151515815260200191505060405180910390f35b610b47612825565b005b348015610b5557600080fd5b50610b5e612830565b604051808215151515815260200191505060405180910390f35b348015610b8457600080fd5b50610b8d6128f8565b6040518082815260200191505060405180910390f35b348015610baf57600080fd5b50610be4600480360381019080803573ffffffffffffffffffffffffffffffffffffffff1690602001909291905050506128fe565b604051808260ff1660ff16815260200191505060405180910390f35b348015610c0c57600080fd5b50610d2d60048036038101908080359060200190820180359060200190808060200260200160405190810160405280939291908181526020018383602002808284378201915050505050509192919290803590602001908201803590602001908080602002602001604051908101604052809392919081815260200183836020028082843782019150505050505091929192908035906020019082018035906020019080806020026020016040519081016040528093929190818152602001838360200280828437820191505050505050919291929080359060200190820180359060200190808060200260200160405190810160405280939291908181526020018383602002808284378201915050505050509192919290505050612957565b005b348015610d3b57600080fd5b50610d44612aaf565b604051808215151515815260200191505060405180910390f35b348015610d6a57600080fd5b50610d73612ac2565b604051808215151515815260200191505060405180910390f35b348015610d9957600080fd5b50610da2612ad5565b604051808215151515815260200191505060405180910390f35b348015610dc857600080fd5b50610de760048036038101908080359060200190929190505050612da9565b604051808273ffffffffffffffffffffffffffffffffffffffff1673ffffffffffffffffffffffffffffffffffffffff16815260200191505060405180910390f35b348015610e3557600080fd5b50610e5460048036038101908080359060200190929190505050612de7565b005b348015610e6257600080fd5b50610ea1600480360381019080803573ffffffffffffffffffffffffffffffffffffffff169060200190929190803590602001909291905050506130b8565b005b348015610eaf57600080fd5b50610eb86133a7565b604051808273ffffffffffffffffffffffffffffffffffffffff1673ffffffffffffffffffffffffffffffffffffffff16815260200191505060405180910390f35b348015610f0657600080fd5b50610f3b600480360381019080803573ffffffffffffffffffffffffffffffffffffffff169060200190929190505050613421565b6040518084151515158152602001838152602001828152602001935050505060405180910390f35b348015610f6f57600080fd5b50610f78613458565b005b348015610f8657600080fd5b50610fa56004803603810190808035906020019092919050505061350b565b005b348015610fb357600080fd5b50610fbc6136ee565b604051808215151515815260200191505060405180910390f35b348015610fe257600080fd5b50610feb6136f3565b6040518082815260200191505060405180910390f35b34801561100d57600080fd5b5061102c600480360381019080803590602001909291905050506136f9565b604051808273ffffffffffffffffffffffffffffffffffffffff1673ffffffffffffffffffffffffffffffffffffffff16815260200191505060405180910390f35b34801561107a57600080fd5b50611083613737565b604051808260ff1660ff16815260200191505060405180910390f35b3480156110ab57600080fd5b506110b461374a565b604051808215151515815260200191505060405180910390f35b3480156110da57600080fd5b5061110f600480360381019080803573ffffffffffffffffffffffffffffffffffffffff16906020019092919050505061375d565b005b34801561111d57600080fd5b50611152600480360381019080803573ffffffffffffffffffffffffffffffffffffffff1690602001909291905050506137e5565b005b34801561116057600080fd5b506111696138b6565b604051808273ffffffffffffffffffffffffffffffffffffffff1673ffffffffffffffffffffffffffffffffffffffff16815260200191505060405180910390f35b60155481565b6111bc8160006138dc565b50565b600092915050565b60006111d1612786565b1515611245576040517f08c379a00000000000000000000000000000000000000000000000000000000081526004018080602001828103825260098152602001807f4e6f74206f776e6572000000000000000000000000000000000000000000000081525060200191505060405180910390fd5b6000825111151561125257fe5b6000600f60009054906101000a900460ff1660ff1614151561127057fe5b600f60019054906101000a900460ff1660ff1682511115151561128f57fe5b600090505b81518160ff1610156112d0576112c3828260ff168151811015156112b457fe5b906020019060200201516142f9565b8080600101915050611294565b5050565b6000600360009054906101000a900473ffffffffffffffffffffffffffffffffffffffff1673ffffffffffffffffffffffffffffffffffffffff16638e768288306040518263ffffffff167c0100000000000000000000000000000000000000000000000000000000028152600401808273ffffffffffffffffffffffffffffffffffffffff1673ffffffffffffffffffffffffffffffffffffffff168152602001915050602060405180830381600087803b15801561139357600080fd5b505af11580156113a7573d6000803e3d6000fd5b505050506040513d60208110156113bd57600080fd5b8101908080519060200190929190505050905090565b60058054600181600116156101000203166002900480601f0160208091040260200160405190810160405280929190818152602001828054600181600116156101000203166002900480156114695780601f1061143e57610100808354040283529160200191611469565b820191906000526020600020905b81548152906001019060200180831161144c57829003601f168201915b505050505081565b60095481565b600080600090505b60148054905081101561150f578273ffffffffffffffffffffffffffffffffffffffff166014828154811015156114b257fe5b9060005260206000200160009054906101000a900473ffffffffffffffffffffffffffffffffffffffff1673ffffffffffffffffffffffffffffffffffffffff1614156115025760019150611514565b808060010191505061147f565b600091505b50919050565b60075481565b6000600d60009054906101000a900460ff161561154057600690506117b4565b6000600460009054906101000a900473ffffffffffffffffffffffffffffffffffffffff1673ffffffffffffffffffffffffffffffffffffffff16141561158a57600190506117b4565b600460009054906101000a900473ffffffffffffffffffffffffffffffffffffffff1673ffffffffffffffffffffffffffffffffffffffff166382771c8e6040518163ffffffff167c0100000000000000000000000000000000000000000000000000000000028152600401602060405180830381600087803b15801561161057600080fd5b505af1158015611624573d6000803e3d6000fd5b505050506040513d602081101561163a57600080fd5b8101908080519060200190929190505050151561165a57600190506117b4565b600360009054906101000a900473ffffffffffffffffffffffffffffffffffffffff1673ffffffffffffffffffffffffffffffffffffffff16638e768288306040518263ffffffff167c0100000000000000000000000000000000000000000000000000000000028152600401808273ffffffffffffffffffffffffffffffffffffffff1673ffffffffffffffffffffffffffffffffffffffff168152602001915050602060405180830381600087803b15801561171757600080fd5b505af115801561172b573d6000803e3d6000fd5b505050506040513d602081101561174157600080fd5b8101908080519060200190929190505050151561176157600190506117b4565b60085442101561177457600290506117b4565b600954421115801561178b57506117896136ee565b155b1561179957600390506117b4565b6117a1612432565b156117af57600490506117b4565b600590505b90565b6117bf612786565b1515611833576040517f08c379a00000000000000000000000000000000000000000000000000000000081526004018080602001828103825260098152602001807f4e6f74206f776e6572000000000000000000000000000000000000000000000081525060200191505060405180910390fd5b600073ffffffffffffffffffffffffffffffffffffffff168173ffffffffffffffffffffffffffffffffffffffff161415151561186c57fe5b600073ffffffffffffffffffffffffffffffffffffffff16600460009054906101000a900473ffffffffffffffffffffffffffffffffffffffff1673ffffffffffffffffffffffffffffffffffffffff161415156118c657fe5b80600460006101000a81548173ffffffffffffffffffffffffffffffffffffffff021916908373ffffffffffffffffffffffffffffffffffffffff160217905550600460009054906101000a900473ffffffffffffffffffffffffffffffffffffffff1673ffffffffffffffffffffffffffffffffffffffff1663614cb9046040518163ffffffff167c0100000000000000000000000000000000000000000000000000000000028152600401602060405180830381600087803b15801561198d57600080fd5b505af11580156119a1573d6000803e3d6000fd5b505050506040513d60208110156119b757600080fd5b810190808051906020019092919050505015156119d357600080fd5b50565b6000601480549050905090565b60116020528060005260406000206000915090505481565b600460009054906101000a900473ffffffffffffffffffffffffffffffffffffffff1681565b6000601060008373ffffffffffffffffffffffffffffffffffffffff1673ffffffffffffffffffffffffffffffffffffffff16815260200190815260200160002060000160009054906101000a900460ff169050919050565b6000600460009054906101000a900473ffffffffffffffffffffffffffffffffffffffff1673ffffffffffffffffffffffffffffffffffffffff1663f9cb6d7a6040518163ffffffff167c0100000000000000000000000000000000000000000000000000000000028152600401602060405180830381600087803b158015611b0257600080fd5b505af1158015611b16573d6000803e3d6000fd5b505050506040513d6020811015611b2c57600080fd5b8101908080519060200190929190505050905090565b600b5481565b60006001905090565b6004806006811115611b5f57fe5b611b67611520565b6006811115611b7257fe5b141515611b7e57600080fd5b611b86612786565b1515611bfa576040517f08c379a00000000000000000000000000000000000000000000000000000000081526004018080602001828103825260098152602001807f4e6f74206f776e6572000000000000000000000000000000000000000000000081525060200191505060405180910390fd5b600060149054906101000a900460ff1615611c1457600080fd5b600d60009054906101000a900460ff1615611c2e57600080fd5b600073ffffffffffffffffffffffffffffffffffffffff16600460009054906101000a900473ffffffffffffffffffffffffffffffffffffffff1673ffffffffffffffffffffffffffffffffffffffff16141515611d2557600460009054906101000a900473ffffffffffffffffffffffffffffffffffffffff1673ffffffffffffffffffffffffffffffffffffffff16630bf318a36040518163ffffffff167c0100000000000000000000000000000000000000000000000000000000028152600401600060405180830381600087803b158015611d0c57600080fd5b505af1158015611d20573d6000803e3d6000fd5b505050505b6001600d60006101000a81548160ff02191690831515021790555050565b611d4b612786565b1515611dbf576040517f08c379a00000000000000000000000000000000000000000000000000000000081526004018080602001828103825260098152602001807f4e6f74206f776e6572000000000000000000000000000000000000000000000081525060200191505060405180910390fd5b600073ffffffffffffffffffffffffffffffffffffffff168173ffffffffffffffffffffffffffffffffffffffff1614151515611df857fe5b600073ffffffffffffffffffffffffffffffffffffffff16600360009054906101000a900473ffffffffffffffffffffffffffffffffffffffff1673ffffffffffffffffffffffffffffffffffffffff16141515611e5257fe5b80600360006101000a81548173ffffffffffffffffffffffffffffffffffffffff021916908373ffffffffffffffffffffffffffffffffffffffff160217905550600360009054906101000a900473ffffffffffffffffffffffffffffffffffffffff1673ffffffffffffffffffffffffffffffffffffffff166304bbc2556040518163ffffffff167c0100000000000000000000000000000000000000000000000000000000028152600401602060405180830381600087803b158015611f1957600080fd5b505af1158015611f2d573d6000803e3d6000fd5b505050506040513d6020811015611f4357600080fd5b81019080805190602001909291905050501515611f5f57600080fd5b50565b600a5481565b611f70612786565b1515611fe4576040517f08c379a00000000000000000000000000000000000000000000000000000000081526004018080602001828103825260098152602001807f4e6f74206f776e6572000000000000000000000000000000000000000000000081525060200191505060405180910390fd5b6001600060146101000a81548160ff021916908315150217905550565b60015481565b600080600080612015612786565b1515612089576040517f08c379a00000000000000000000000000000000000000000000000000000000081526004018080602001828103825260098152602001807f4e6f74206f776e6572000000000000000000000000000000000000000000000081525060200191505060405180910390fd5b600d60009054906101000a900460ff161515156120a257fe5b8442111515156120ae57fe5b84600854111515156120bc57fe5b60095442111515156120ca57fe5b6120d26133a7565b93508373ffffffffffffffffffffffffffffffffffffffff1663b3f05b976040518163ffffffff167c0100000000000000000000000000000000000000000000000000000000028152600401602060405180830381600087803b15801561213857600080fd5b505af115801561214c573d6000803e3d6000fd5b505050506040513d602081101561216257600080fd5b81019080805190602001909291905050501561217d57600080fd5b612186306128fe565b92506001830191505b600f60009054906101000a900460ff1660ff168260ff1610156122a257600e8260ff168154811015156121be57fe5b9060005260206000200160009054906101000a900473ffffffffffffffffffffffffffffffffffffffff1690508073ffffffffffffffffffffffffffffffffffffffff1663af4686826040518163ffffffff167c0100000000000000000000000000000000000000000000000000000000028152600401602060405180830381600087803b15801561224f57600080fd5b505af1158015612263573d6000803e3d6000fd5b505050506040513d602081101561227957600080fd5b8101908080519060200190929190505050851115151561229557fe5b818060010192505061218f565b846009819055507fd34bb772c4ae9baa99db852f622773b31c7827e8ee818449fef20d30980bd3106009546040518082815260200191505060405180910390a15050505050565b6122f1612786565b1515612365576040517f08c379a00000000000000000000000000000000000000000000000000000000081526004018080602001828103825260098152602001807f4e6f74206f776e6572000000000000000000000000000000000000000000000081525060200191505060405180910390fd5b6000809054906101000a900473ffffffffffffffffffffffffffffffffffffffff1673ffffffffffffffffffffffffffffffffffffffff167ff8df31144d9c2f0f6b59d69b8b98abd5459d07f2742c4df920b25aae33c6482060405160405180910390a260008060006101000a81548173ffffffffffffffffffffffffffffffffffffffff021916908373ffffffffffffffffffffffffffffffffffffffff160217905550565b600360009054906101000a900473ffffffffffffffffffffffffffffffffffffffff1681565b6000600754600b541015905090565b600f60019054906101000a900460ff1681565b61245c612786565b15156124d0576040517f08c379a00000000000000000000000000000000000000000000000000000000081526004018080602001828103825260098152602001807f4e6f74206f776e6572000000000000000000000000000000000000000000000081525060200191505060405180910390fd5b600d60019054906101000a900460ff1615156124eb57600080fd5b600073ffffffffffffffffffffffffffffffffffffffff168473ffffffffffffffffffffffffffffffffffffffff161415151561252457fe5b60008111151561253057fe5b80821115151561253c57fe5b600954421115151561254a57fe5b61255384611477565b15156126435760148490806001815401808255809150509060018203906000526020600020016000909192909190916101000a81548173ffffffffffffffffffffffffffffffffffffffff021916908373ffffffffffffffffffffffffffffffffffffffff160217905550507fc03e2cbfed65ba7e1df8d32da4afaccb75208d8a6b188f67800ceb19cb9d526484848484604051808573ffffffffffffffffffffffffffffffffffffffff1673ffffffffffffffffffffffffffffffffffffffff1681526020018415151515815260200183815260200182815260200194505050505060405180910390a16126c3565b7f618943c36e69f6b3bae8b5bc48231e8911852a0c844743af41be110450a2a58f84848484604051808573ffffffffffffffffffffffffffffffffffffffff1673ffffffffffffffffffffffffffffffffffffffff1681526020018415151515815260200183815260200182815260200194505050505060405180910390a15b606060405190810160405280841515815260200183815260200182815250601360008673ffffffffffffffffffffffffffffffffffffffff1673ffffffffffffffffffffffffffffffffffffffff16815260200190815260200160002060008201518160000160006101000a81548160ff021916908315150217905550602082015181600101556040820151816002015590505050505050565b60008060009054906101000a900473ffffffffffffffffffffffffffffffffffffffff16905090565b60008060009054906101000a900473ffffffffffffffffffffffffffffffffffffffff1673ffffffffffffffffffffffffffffffffffffffff163373ffffffffffffffffffffffffffffffffffffffff1614905090565b600660009054906101000a900473ffffffffffffffffffffffffffffffffffffffff1681565b60126020528060005260406000206000915090505481565b6000949350505050565b61282e336111b1565b565b6000600460009054906101000a900473ffffffffffffffffffffffffffffffffffffffff1673ffffffffffffffffffffffffffffffffffffffff166382771c8e6040518163ffffffff167c0100000000000000000000000000000000000000000000000000000000028152600401602060405180830381600087803b1580156128b857600080fd5b505af11580156128cc573d6000803e3d6000fd5b505050506040513d60208110156128e257600080fd5b8101908080519060200190929190505050905090565b60085481565b6000601060008373ffffffffffffffffffffffffffffffffffffffff1673ffffffffffffffffffffffffffffffffffffffff16815260200190815260200160002060000160019054906101000a900460ff169050919050565b6000612961612786565b15156129d5576040517f08c379a00000000000000000000000000000000000000000000000000000000081526004018080602001828103825260098152602001807f4e6f74206f776e6572000000000000000000000000000000000000000000000081525060200191505060405180910390fd5b600d60019054906101000a900460ff1615156129f057600080fd5b60095442111515156129fe57fe5b83518551141515612a0b57fe5b82518451141515612a1857fe5b81518351141515612a2557fe5b600090505b8451811015612aa857612a9b8582815181101515612a4457fe5b906020019060200201518583815181101515612a5c57fe5b906020019060200201518584815181101515612a7457fe5b906020019060200201518585815181101515612a8c57fe5b90602001906020020151612454565b8080600101915050612a2a565b5050505050565b600d60009054906101000a900460ff1681565b600060149054906101000a900460ff1681565b600080612ae06133a7565b905060046006811115612aef57fe5b8173ffffffffffffffffffffffffffffffffffffffff16631865c57d6040518163ffffffff167c0100000000000000000000000000000000000000000000000000000000028152600401602060405180830381600087803b158015612b5357600080fd5b505af1158015612b67573d6000803e3d6000fd5b505050506040513d6020811015612b7d57600080fd5b81019080805190602001909291905050506006811115612b9957fe5b148015612c4257508073ffffffffffffffffffffffffffffffffffffffff1663b9b8af0b6040518163ffffffff167c0100000000000000000000000000000000000000000000000000000000028152600401602060405180830381600087803b158015612c0557600080fd5b505af1158015612c19573d6000803e3d6000fd5b505050506040513d6020811015612c2f57600080fd5b8101908080519060200190929190505050155b8015612cea57508073ffffffffffffffffffffffffffffffffffffffff1663b3f05b976040518163ffffffff167c0100000000000000000000000000000000000000000000000000000000028152600401602060405180830381600087803b158015612cad57600080fd5b505af1158015612cc1573d6000803e3d6000fd5b505050506040513d6020811015612cd757600080fd5b8101908080519060200190929190505050155b8015612d9257508073ffffffffffffffffffffffffffffffffffffffff166325e0671f6040518163ffffffff167c0100000000000000000000000000000000000000000000000000000000028152600401602060405180830381600087803b158015612d5557600080fd5b505af1158015612d69573d6000803e3d6000fd5b505050506040513d6020811015612d7f57600080fd5b8101908080519060200190929190505050155b15612da05760019150612da5565b600091505b5090565b600e81815481101515612db857fe5b906000526020600020016000915054906101000a900473ffffffffffffffffffffffffffffffffffffffff1681565b600080600080612df5612786565b1515612e69576040517f08c379a00000000000000000000000000000000000000000000000000000000081526004018080602001828103825260098152602001807f4e6f74206f776e6572000000000000000000000000000000000000000000000081525060200191505060405180910390fd5b600d60009054906101000a900460ff16151515612e8257fe5b844211151515612e8e57fe5b6009548511151515612e9c57fe5b6008544211151515612eaa57fe5b612eb26133a7565b93508373ffffffffffffffffffffffffffffffffffffffff1663b3f05b976040518163ffffffff167c0100000000000000000000000000000000000000000000000000000000028152600401602060405180830381600087803b158015612f1857600080fd5b505af1158015612f2c573d6000803e3d6000fd5b505050506040513d6020811015612f4257600080fd5b810190808051906020019092919050505015612f5d57600080fd5b612f66306128fe565b9250600091505b8260ff168260ff16101561307157600e8260ff16815481101515612f8d57fe5b9060005260206000200160009054906101000a900473ffffffffffffffffffffffffffffffffffffffff1690508073ffffffffffffffffffffffffffffffffffffffff16630a09284a6040518163ffffffff167c0100000000000000000000000000000000000000000000000000000000028152600401602060405180830381600087803b15801561301e57600080fd5b505af1158015613032573d6000803e3d6000fd5b505050506040513d602081101561304857600080fd5b8101908080519060200190929190505050851015151561306457fe5b8180600101925050612f6d565b846008819055507fa3f2a813a039e5195c620dabcd490267a9aa5a50e4e1383bc474e9b800f7defe6008546040518082815260200191505060405180910390a15050505050565b6000600d60019054906101000a900460ff1615156130d557600080fd5b600073ffffffffffffffffffffffffffffffffffffffff168373ffffffffffffffffffffffffffffffffffffffff161415151561310e57fe5b600954421115151561311c57fe5b61312533611a21565b151561312d57fe5b601360008473ffffffffffffffffffffffffffffffffffffffff1673ffffffffffffffffffffffffffffffffffffffff16815260200190815260200160002060010154821080156131bd57506000601260008573ffffffffffffffffffffffffffffffffffffffff1673ffffffffffffffffffffffffffffffffffffffff16815260200190815260200160002054145b156131c757600080fd5b601360008473ffffffffffffffffffffffffffffffffffffffff1673ffffffffffffffffffffffffffffffffffffffff1681526020019081526020016000206002015490508073__SafeMathLibExt________________________63f4f3bdc19091846040518363ffffffff167c0100000000000000000000000000000000000000000000000000000000028152600401808381526020018281526020019250505060206040518083038186803b15801561328157600080fd5b505af4158015613295573d6000803e3d6000fd5b505050506040513d60208110156132ab57600080fd5b81019080805190602001909291905050509050606060405190810160405280601360008673ffffffffffffffffffffffffffffffffffffffff1673ffffffffffffffffffffffffffffffffffffffff16815260200190815260200160002060000160009054906101000a900460ff16151581526020016000815260200182815250601360008573ffffffffffffffffffffffffffffffffffffffff1673ffffffffffffffffffffffffffffffffffffffff16815260200190815260200160002060008201518160000160006101000a81548160ff0219169083151502179055506020820151816001015560408201518160020155905050505050565b600080600f60009054906101000a900460ff1660ff16111561341957600e6001600f60009054906101000a900460ff160360ff168154811015156133e757fe5b9060005260206000200160009054906101000a900473ffffffffffffffffffffffffffffffffffffffff16905061341e565b600090505b90565b60136020528060005260406000206000915090508060000160009054906101000a900460ff16908060010154908060020154905083565b613460612786565b15156134d4576040517f08c379a00000000000000000000000000000000000000000000000000000000081526004018080602001828103825260098152602001807f4e6f74206f776e6572000000000000000000000000000000000000000000000081525060200191505060405180910390fd5b600060149054906101000a900460ff1615156134ef57600080fd5b60008060146101000a81548160ff021916908315150217905550565b600480600681111561351957fe5b613521611520565b600681111561352c57fe5b14151561353857600080fd5b613540612786565b15156135b4576040517f08c379a00000000000000000000000000000000000000000000000000000000081526004018080602001828103825260098152602001807f4e6f74206f776e6572000000000000000000000000000000000000000000000081525060200191505060405180910390fd5b600060149054906101000a900460ff16156135ce57600080fd5b600d60009054906101000a900460ff16156135e857600080fd5b600073ffffffffffffffffffffffffffffffffffffffff16600460009054906101000a900473ffffffffffffffffffffffffffffffffffffffff1673ffffffffffffffffffffffffffffffffffffffff161415156136ea57600460009054906101000a900473ffffffffffffffffffffffffffffffffffffffff1673ffffffffffffffffffffffffffffffffffffffff1663cddaf241836040518263ffffffff167c010000000000000000000000000000000000000000000000000000000002815260040180828152602001915050600060405180830381600087803b1580156136d157600080fd5b505af11580156136e5573d6000803e3d6000fd5b505050505b5050565b600090565b600c5481565b60148181548110151561370857fe5b906000526020600020016000915054906101000a900473ffffffffffffffffffffffffffffffffffffffff1681565b600f60009054906101000a900460ff1681565b600d60019054906101000a900460ff1681565b613765612786565b15156137d9576040517f08c379a00000000000000000000000000000000000000000000000000000000081526004018080602001828103825260098152602001807f4e6f74206f776e6572000000000000000000000000000000000000000000000081525060200191505060405180910390fd5b6137e281614538565b50565b6137ed612786565b1515613861576040517f08c379a00000000000000000000000000000000000000000000000000000000081526004018080602001828103825260098152602001807f4e6f74206f776e6572000000000000000000000000000000000000000000000081525060200191505060405180910390fd5b600154600c54111561387257600080fd5b80600660006101000a81548173ffffffffffffffffffffffffffffffffffffffff021916908373ffffffffffffffffffffffffffffffffffffffff16021790555050565b600260009054906101000a900473ffffffffffffffffffffffffffffffffffffffff1681565b600080600060149054906101000a900460ff16156138f957600080fd5b6002600681111561390657fe5b61390e611520565b600681111561391957fe5b141561392457600080fd5b6003600681111561393157fe5b613939611520565b600681111561394457fe5b14156139c057600d60019054906101000a900460ff16156139bb57601360008573ffffffffffffffffffffffffffffffffffffffff1673ffffffffffffffffffffffffffffffffffffffff16815260200190815260200160002060000160009054906101000a900460ff1615156139ba57600080fd5b5b6139c5565b600080fd5b349150600360009054906101000a900473ffffffffffffffffffffffffffffffffffffffff1673ffffffffffffffffffffffffffffffffffffffff166318a4155e83600b54600a5433600260009054906101000a900473ffffffffffffffffffffffffffffffffffffffff1673ffffffffffffffffffffffffffffffffffffffff1663313ce5676040518163ffffffff167c0100000000000000000000000000000000000000000000000000000000028152600401602060405180830381600087803b158015613a9457600080fd5b505af1158015613aa8573d6000803e3d6000fd5b505050506040513d6020811015613abe57600080fd5b81019080805190602001909291905050506040518663ffffffff167c0100000000000000000000000000000000000000000000000000000000028152600401808681526020018581526020018481526020018373ffffffffffffffffffffffffffffffffffffffff1673ffffffffffffffffffffffffffffffffffffffff16815260200182815260200195505050505050602060405180830381600087803b158015613b6957600080fd5b505af1158015613b7d573d6000803e3d6000fd5b505050506040513d6020811015613b9357600080fd5b810190808051906020019092919050505090506000811415613bb457600080fd5b600d60019054906101000a900460ff1615613c8657601360008573ffffffffffffffffffffffffffffffffffffffff1673ffffffffffffffffffffffffffffffffffffffff1681526020019081526020016000206001015481108015613c5957506000601260008673ffffffffffffffffffffffffffffffffffffffff1673ffffffffffffffffffffffffffffffffffffffff16815260200190815260200160002054145b15613c6357600080fd5b613c6d84826111bf565b15613c7757600080fd5b613c81848261469b565b613d9f565b600260009054906101000a900473ffffffffffffffffffffffffffffffffffffffff1673ffffffffffffffffffffffffffffffffffffffff16633fa615b06040518163ffffffff167c0100000000000000000000000000000000000000000000000000000000028152600401602060405180830381600087803b158015613d0c57600080fd5b505af1158015613d20573d6000803e3d6000fd5b505050506040513d6020811015613d3657600080fd5b810190808051906020019092919050505081108015613d9457506000601260008673ffffffffffffffffffffffffffffffffffffffff1673ffffffffffffffffffffffffffffffffffffffff16815260200190815260200160002054145b15613d9e57600080fd5b5b6000601160008673ffffffffffffffffffffffffffffffffffffffff1673ffffffffffffffffffffffffffffffffffffffff168152602001908152602001600020541415613dfa57600c600081548092919060010191905055505b601160008573ffffffffffffffffffffffffffffffffffffffff1673ffffffffffffffffffffffffffffffffffffffff1681526020019081526020016000205473__SafeMathLibExt________________________6366098d4f9091846040518363ffffffff167c0100000000000000000000000000000000000000000000000000000000028152600401808381526020018281526020019250505060206040518083038186803b158015613eae57600080fd5b505af4158015613ec2573d6000803e3d6000fd5b505050506040513d6020811015613ed857600080fd5b8101908080519060200190929190505050601160008673ffffffffffffffffffffffffffffffffffffffff1673ffffffffffffffffffffffffffffffffffffffff16815260200190815260200160002081905550601260008573ffffffffffffffffffffffffffffffffffffffff1673ffffffffffffffffffffffffffffffffffffffff1681526020019081526020016000205473__SafeMathLibExt________________________6366098d4f9091836040518363ffffffff167c0100000000000000000000000000000000000000000000000000000000028152600401808381526020018281526020019250505060206040518083038186803b158015613fe057600080fd5b505af4158015613ff4573d6000803e3d6000fd5b505050506040513d602081101561400a57600080fd5b8101908080519060200190929190505050601260008673ffffffffffffffffffffffffffffffffffffffff1673ffffffffffffffffffffffffffffffffffffffff16815260200190815260200160002081905550600b5473__SafeMathLibExt________________________6366098d4f9091846040518363ffffffff167c0100000000000000000000000000000000000000000000000000000000028152600401808381526020018281526020019250505060206040518083038186803b1580156140d557600080fd5b505af41580156140e9573d6000803e3d6000fd5b505050506040513d60208110156140ff57600080fd5b8101908080519060200190929190505050600b81905550600a5473__SafeMathLibExt________________________6366098d4f9091836040518363ffffffff167c0100000000000000000000000000000000000000000000000000000000028152600401808381526020018281526020019250505060206040518083038186803b15801561418d57600080fd5b505af41580156141a1573d6000803e3d6000fd5b505050506040513d60208110156141b757600080fd5b8101908080519060200190929190505050600a819055506141de8282600b54600a5461281b565b156141e857600080fd5b6141f28482614892565b600660009054906101000a900473ffffffffffffffffffffffffffffffffffffffff1673ffffffffffffffffffffffffffffffffffffffff166108fc839081150290604051600060405180830381858888f19350505050151561425457600080fd5b7f0396f60aaad038749091d273dc13aaabc63db6e2271c7bad442d5cf25cc4335084838386604051808573ffffffffffffffffffffffffffffffffffffffff1673ffffffffffffffffffffffffffffffffffffffff168152602001848152602001838152602001826fffffffffffffffffffffffffffffffff166fffffffffffffffffffffffffffffffff16815260200194505050505060405180910390a150505050565b614301612786565b1515614375576040517f08c379a00000000000000000000000000000000000000000000000000000000081526004018080602001828103825260098152602001807f4e6f74206f776e6572000000000000000000000000000000000000000000000081525060200191505060405180910390fd5b600073ffffffffffffffffffffffffffffffffffffffff168173ffffffffffffffffffffffffffffffffffffffff16141515156143ae57fe5b600f60019054906101000a900460ff1660ff16600f60009054906101000a900460ff1660ff16111515156143de57fe5b6143e781611a21565b1515156143f057fe5b600e8190806001815401808255809150509060018203906000526020600020016000909192909190916101000a81548173ffffffffffffffffffffffffffffffffffffffff021916908373ffffffffffffffffffffffffffffffffffffffff160217905550506040805190810160405280600115158152602001600f60009054906101000a900460ff1660ff16815250601060008373ffffffffffffffffffffffffffffffffffffffff1673ffffffffffffffffffffffffffffffffffffffff16815260200190815260200160002060008201518160000160006101000a81548160ff02191690831515021790555060208201518160000160016101000a81548160ff021916908360ff160217905550905050600f600081819054906101000a900460ff168092919060010191906101000a81548160ff021916908360ff1602179055505050565b600073ffffffffffffffffffffffffffffffffffffffff168173ffffffffffffffffffffffffffffffffffffffff16141515156145dd576040517f08c379a00000000000000000000000000000000000000000000000000000000081526004018080602001828103825260168152602001807f4e6577206f776e6572206164647265737320697320300000000000000000000081525060200191505060405180910390fd5b8073ffffffffffffffffffffffffffffffffffffffff166000809054906101000a900473ffffffffffffffffffffffffffffffffffffffff1673ffffffffffffffffffffffffffffffffffffffff167f8be0079c531659141344cd1fd0a4f28419497f9722a3daafe3b4186f6b6457e060405160405180910390a3806000806101000a81548173ffffffffffffffffffffffffffffffffffffffff021916908373ffffffffffffffffffffffffffffffffffffffff16021790555050565b6000806000600d60019054906101000a900460ff1615156146bb57600080fd5b601360008673ffffffffffffffffffffffffffffffffffffffff1673ffffffffffffffffffffffffffffffffffffffff168152602001908152602001600020600101548410801561474b57506000601260008773ffffffffffffffffffffffffffffffffffffffff1673ffffffffffffffffffffffffffffffffffffffff16815260200190815260200160002054145b1561475557600080fd5b61475e306128fe565b92506001830191505b600f60009054906101000a900460ff1660ff168260ff16101561488b57600e8260ff1681548110151561479657fe5b9060005260206000200160009054906101000a900473ffffffffffffffffffffffffffffffffffffffff1690508073ffffffffffffffffffffffffffffffffffffffff1663c12eb19186866040518363ffffffff167c0100000000000000000000000000000000000000000000000000000000028152600401808373ffffffffffffffffffffffffffffffffffffffff1673ffffffffffffffffffffffffffffffffffffffff16815260200182815260200192505050600060405180830381600087803b15801561486657600080fd5b505af115801561487a573d6000803e3d6000fd5b505050508180600101925050614767565b5050505050565b50505600a165627a7a72305820ee2c0c0b660409f9b60ef8bf17a09f34c63aca04932d9e5fcbe732411a579e6a0029",
  "source": "/**\n * Issued by Morpheus Labs ICO as a Service Wizard\n */\npragma solidity ^0.4.19;\nimport \"./lib/SafeMathLibExt.sol\";\nimport \"./lib/FractionalERC20Ext.sol\";\nimport \"./lib/PricingStrategy.sol\";\nimport \"./lib/FinalizeAgent.sol\";\nimport \"./lib/Haltable.sol\";\nimport \"./lib/MintableTokenExt.sol\";\n\n/**\n * Abstract base contract for token sales.\n *\n * Handle\n * - start and end dates\n * - accepting investments\n * - minimum funding goal and refund\n * - various statistics during the crowdfund\n * - different pricing strategies\n * - different investment policies (require server side customer id, allow only whitelisted addresses)\n *\n */\ncontract CrowdsaleExt is Haltable {\n\n    /* Max investment count when we are still allowed to change the multisig address */\n    uint public MAX_INVESTMENTS_BEFORE_MULTISIG_CHANGE = 5;\n\n    using SafeMathLibExt for uint;\n\n    /* The token we are selling */\n    FractionalERC20Ext public token;\n\n    /* How we are going to price our offering */\n    PricingStrategy public pricingStrategy;\n\n    /* Post-success callback */\n    FinalizeAgent public finalizeAgent;\n\n    /* name of the crowdsale tier */\n    string public name;\n\n    /* tokens will be transfered from this address */\n    address public multisigWallet;\n\n    /* if the funding goal is not reached, investors may withdraw their funds */\n    uint public minimumFundingGoal;\n\n    /* the UNIX timestamp start date of the crowdsale */\n    uint public startsAt;\n\n    /* the UNIX timestamp end date of the crowdsale */\n    uint public endsAt;\n\n    /* the number of tokens already sold through this contract*/\n    uint public tokensSold = 0;\n\n    /* How many wei of funding we have raised */\n    uint public weiRaised = 0;\n\n    /* How many distinct addresses have invested */\n    uint public investorCount = 0;\n\n    /* Has this crowdsale been finalized */\n    bool public finalized;\n\n    bool public isWhiteListed;\n\n    address[] public joinedCrowdsales;\n    uint8 public joinedCrowdsalesLen = 0;\n    uint8 public joinedCrowdsalesLenMax = 50;\n\n    struct JoinedCrowdsaleStatus {\n        bool isJoined;\n        uint8 position;\n    }\n\n    mapping(address => JoinedCrowdsaleStatus) joinedCrowdsaleState;\n\n    /** How much ETH each address has invested to this crowdsale */\n    mapping(address => uint256) public investedAmountOf;\n\n    /** How much tokens this crowdsale has credited for each investor address */\n    mapping(address => uint256) public tokenAmountOf;\n\n    struct WhiteListData {\n        bool status;\n        uint minCap;\n        uint maxCap;\n    }\n\n    /** Addresses that are allowed to invest even before ICO offical opens. For testing, for ICO partners, etc. */\n    mapping(address => WhiteListData) public earlyParticipantWhitelist;\n\n    /** List of whitelisted addresses */\n    address[] public whitelistedParticipants;\n\n    /** This is for manuel testing for the interaction from owner wallet. You can set it to any value and inspect this in blockchain explorer to see that crowdsale interaction works. */\n    uint public ownerTestValue;\n\n    /** State machine\n     *\n     * - Preparing: All contract initialization calls and variables have not been set yet\n     * - Prefunding: We have not passed start time yet\n     * - Funding: Active crowdsale\n     * - Success: Minimum funding goal reached\n     * - Failure: Minimum funding goal not reached before ending time\n     * - Finalized: The finalized has been called and succesfully executed\n     */\n    enum State{Unknown, Preparing, PreFunding, Funding, Success, Failure, Finalized}\n\n    // A new investment was made\n    event Invested(address investor, uint weiAmount, uint tokenAmount, uint128 customerId);\n\n    // Address early participation whitelist status changed\n    event Whitelisted(address addr, bool status, uint minCap, uint maxCap);\n    event WhitelistItemChanged(address addr, bool status, uint minCap, uint maxCap);\n\n    // Crowdsale start time has been changed\n    event StartsAtChanged(uint newStartsAt);\n\n    // Crowdsale end time has been changed\n    event EndsAtChanged(uint newEndsAt);\n\n    constructor(string _name, address _token, PricingStrategy _pricingStrategy, address _multisigWallet,\n        uint _start, uint _end, uint _minimumFundingGoal, bool _isWhiteListed) {\n\n        owner = msg.sender;\n\n        name = _name;\n\n        token = FractionalERC20Ext(_token);\n\n        setPricingStrategy(_pricingStrategy);\n\n        multisigWallet = _multisigWallet;\n        if (multisigWallet == 0) {\n            revert();\n        }\n\n        if (_start == 0) {\n            revert();\n        }\n\n        startsAt = _start;\n\n        if (_end == 0) {\n            revert();\n        }\n\n        endsAt = _end;\n\n        // Don't mess the dates\n        if (startsAt >= endsAt) {\n            revert();\n        }\n\n        // Minimum funding goal can be zero\n        minimumFundingGoal = _minimumFundingGoal;\n\n        isWhiteListed = _isWhiteListed;\n    }\n\n    /**\n     * Don't expect to just send in money and get tokens.\n     */\n    function() public payable {\n        revert();\n    }\n\n    /**\n     * Make an investment.\n     *\n     * Crowdsale must be running for one to invest.\n     * We must have not pressed the emergency brake.\n     *\n     * @param receiver The Ethereum address who receives the tokens\n     * @param customerId (optional) UUID v4 to track the successful payments on the server side\n     *\n     */\n    function investInternal(address receiver, uint128 customerId) stopInEmergency private {\n\n        // Determine if it's a good time to accept investment from this participant\n        if (getState() == State.PreFunding) {\n            // Are we whitelisted for early deposit\n            revert();\n        } else if (getState() == State.Funding) {\n            // Retail participants can only come in when the crowdsale is running\n            // pass\n            if (isWhiteListed) {\n                if (!earlyParticipantWhitelist[receiver].status) {\n                    revert();\n                }\n            }\n        } else {\n            // Unwanted state\n            revert();\n        }\n\n        uint weiAmount = msg.value;\n\n        // Account presale sales separately, so that they do not count against pricing tranches\n        uint tokenAmount = pricingStrategy.calculatePrice(weiAmount, weiRaised, tokensSold, msg.sender, token.decimals());\n\n        if (tokenAmount == 0) {\n            // Dust transaction\n            revert();\n        }\n\n        if (isWhiteListed) {\n            if (tokenAmount < earlyParticipantWhitelist[receiver].minCap && tokenAmountOf[receiver] == 0) {\n                // tokenAmount < minCap for investor\n                revert();\n            }\n\n            // Check that we did not bust the investor's cap\n            if (isBreakingInvestorCap(receiver, tokenAmount)) {\n                revert();\n            }\n\n            updateInheritedEarlyParticipantWhitelist(receiver, tokenAmount);\n        } else {\n            if (tokenAmount < token.minCap() && tokenAmountOf[receiver] == 0) {\n                revert();\n            }\n        }\n\n        if (investedAmountOf[receiver] == 0) {\n            // A new investor\n            investorCount++;\n        }\n\n        // Update investor\n        investedAmountOf[receiver] = investedAmountOf[receiver].plus(weiAmount);\n        tokenAmountOf[receiver] = tokenAmountOf[receiver].plus(tokenAmount);\n\n        // Update totals\n        weiRaised = weiRaised.plus(weiAmount);\n        tokensSold = tokensSold.plus(tokenAmount);\n\n        // Check that we did not bust the cap\n        if (isBreakingCap(weiAmount, tokenAmount, weiRaised, tokensSold)) {\n            revert();\n        }\n\n        assignTokens(receiver, tokenAmount);\n\n        // Pocket the money\n        if (!multisigWallet.send(weiAmount)) revert();\n\n        // Tell us invest was success\n        Invested(receiver, weiAmount, tokenAmount, customerId);\n    }\n\n    /**\n     * Allow anonymous contributions to this crowdsale.\n     */\n    function invest(address addr) public payable {\n        investInternal(addr, 0);\n    }\n\n    /**\n     * The basic entry point to participate the crowdsale process.\n     *\n     * Pay for funding, get invested tokens back in the sender address.\n     */\n    function buy() public payable {\n        invest(msg.sender);\n    }\n\n    function distributeReservedTokens(uint reservedTokensDistributionBatch) public inState(State.Success) onlyOwner stopInEmergency {\n        // Already finalized\n        if (finalized) {\n            revert();\n        }\n\n        // Finalizing is optional. We only call it if we are given a finalizing agent.\n        if (address(finalizeAgent) != address(0)) {\n            finalizeAgent.distributeReservedTokens(reservedTokensDistributionBatch);\n        }\n    }\n\n    function areReservedTokensDistributed() public constant returns (bool) {\n        return finalizeAgent.reservedTokensAreDistributed();\n    }\n\n    function canDistributeReservedTokens() public constant returns (bool) {\n        CrowdsaleExt lastTierCntrct = CrowdsaleExt(getLastTier());\n        if ((lastTierCntrct.getState() == State.Success) && !lastTierCntrct.halted() && !lastTierCntrct.finalized() && !lastTierCntrct.areReservedTokensDistributed()) return true;\n        return false;\n    }\n\n    /**\n     * Finalize a succcesful crowdsale.\n     *\n     * The owner can triggre a call the contract that provides post-crowdsale actions, like releasing the tokens.\n     */\n    function finalize() public inState(State.Success) onlyOwner stopInEmergency {\n\n        // Already finalized\n        if (finalized) {\n            revert();\n        }\n\n        // Finalizing is optional. We only call it if we are given a finalizing agent.\n        if (address(finalizeAgent) != address(0)) {\n            finalizeAgent.finalizeCrowdsale();\n        }\n\n        finalized = true;\n    }\n\n    /**\n     * Allow to (re)set finalize agent.\n     *\n     * Design choice: no state restrictions on setting this, so that we can fix fat finger mistakes.\n     */\n    function setFinalizeAgent(FinalizeAgent addr) public onlyOwner {\n        assert(address(addr) != address(0));\n        assert(address(finalizeAgent) == address(0));\n        finalizeAgent = addr;\n\n        // Don't allow setting bad agent\n        if (!finalizeAgent.isFinalizeAgent()) {\n            revert();\n        }\n    }\n\n    /**\n     * Allow addresses to do early participation.\n     */\n    function setEarlyParticipantWhitelist(address addr, bool status, uint minCap, uint maxCap) public onlyOwner {\n        if (!isWhiteListed) revert();\n        assert(addr != address(0));\n        assert(maxCap > 0);\n        assert(minCap <= maxCap);\n        assert(now <= endsAt);\n\n        if (!isAddressWhitelisted(addr)) {\n            whitelistedParticipants.push(addr);\n            Whitelisted(addr, status, minCap, maxCap);\n        } else {\n            WhitelistItemChanged(addr, status, minCap, maxCap);\n        }\n\n        earlyParticipantWhitelist[addr] = WhiteListData({status : status, minCap : minCap, maxCap : maxCap});\n    }\n\n    function setEarlyParticipantWhitelistMultiple(address[] addrs, bool[] statuses, uint[] minCaps, uint[] maxCaps) public onlyOwner {\n        if (!isWhiteListed) revert();\n        assert(now <= endsAt);\n        assert(addrs.length == statuses.length);\n        assert(statuses.length == minCaps.length);\n        assert(minCaps.length == maxCaps.length);\n        for (uint iterator = 0; iterator < addrs.length; iterator++) {\n            setEarlyParticipantWhitelist(addrs[iterator], statuses[iterator], minCaps[iterator], maxCaps[iterator]);\n        }\n    }\n\n    function updateInheritedEarlyParticipantWhitelist(address reciever, uint tokensBought) private {\n        if (!isWhiteListed) revert();\n        if (tokensBought < earlyParticipantWhitelist[reciever].minCap && tokenAmountOf[reciever] == 0) revert();\n\n        uint8 tierPosition = getTierPosition(this);\n\n        for (uint8 j = tierPosition + 1; j < joinedCrowdsalesLen; j++) {\n            CrowdsaleExt crowdsale = CrowdsaleExt(joinedCrowdsales[j]);\n            crowdsale.updateEarlyParticipantWhitelist(reciever, tokensBought);\n        }\n    }\n\n    function updateEarlyParticipantWhitelist(address addr, uint tokensBought) public {\n        if (!isWhiteListed) revert();\n        assert(addr != address(0));\n        assert(now <= endsAt);\n        assert(isTierJoined(msg.sender));\n        if (tokensBought < earlyParticipantWhitelist[addr].minCap && tokenAmountOf[addr] == 0) revert();\n        //if (addr != msg.sender && contractAddr != msg.sender) throw;\n        uint newMaxCap = earlyParticipantWhitelist[addr].maxCap;\n        newMaxCap = newMaxCap.minus(tokensBought);\n        earlyParticipantWhitelist[addr] = WhiteListData({status : earlyParticipantWhitelist[addr].status, minCap : 0, maxCap : newMaxCap});\n    }\n\n    function isAddressWhitelisted(address addr) public constant returns (bool) {\n        for (uint i = 0; i < whitelistedParticipants.length; i++) {\n            if (whitelistedParticipants[i] == addr) {\n                return true;\n            }\n        }\n\n        return false;\n    }\n\n    function whitelistedParticipantsLength() public constant returns (uint) {\n        return whitelistedParticipants.length;\n    }\n\n    function isTierJoined(address addr) public constant returns (bool) {\n        return joinedCrowdsaleState[addr].isJoined;\n    }\n\n    function getTierPosition(address addr) public constant returns (uint8) {\n        return joinedCrowdsaleState[addr].position;\n    }\n\n    function getLastTier() public constant returns (address) {\n        if (joinedCrowdsalesLen > 0)\n            return joinedCrowdsales[joinedCrowdsalesLen - 1];\n        else\n            return address(0);\n    }\n\n    function setJoinedCrowdsales(address addr) private onlyOwner {\n        assert(addr != address(0));\n        assert(joinedCrowdsalesLen <= joinedCrowdsalesLenMax);\n        assert(!isTierJoined(addr));\n        joinedCrowdsales.push(addr);\n        joinedCrowdsaleState[addr] = JoinedCrowdsaleStatus({\n            isJoined : true,\n            position : joinedCrowdsalesLen\n            });\n        joinedCrowdsalesLen++;\n    }\n\n    function updateJoinedCrowdsalesMultiple(address[] addrs) public onlyOwner {\n        assert(addrs.length > 0);\n        assert(joinedCrowdsalesLen == 0);\n        assert(addrs.length <= joinedCrowdsalesLenMax);\n        for (uint8 iter = 0; iter < addrs.length; iter++) {\n            setJoinedCrowdsales(addrs[iter]);\n        }\n    }\n\n    function setStartsAt(uint time) public onlyOwner {\n        assert(!finalized);\n        assert(now <= time);\n        // Don't change past\n        assert(time <= endsAt);\n        assert(now <= startsAt);\n\n        CrowdsaleExt lastTierCntrct = CrowdsaleExt(getLastTier());\n        if (lastTierCntrct.finalized()) revert();\n\n        uint8 tierPosition = getTierPosition(this);\n\n        //start time should be greater then end time of previous tiers\n        for (uint8 j = 0; j < tierPosition; j++) {\n            CrowdsaleExt crowdsale = CrowdsaleExt(joinedCrowdsales[j]);\n            assert(time >= crowdsale.endsAt());\n        }\n\n        startsAt = time;\n        StartsAtChanged(startsAt);\n    }\n\n    /**\n     * Allow crowdsale owner to close early or extend the crowdsale.\n     *\n     * This is useful e.g. for a manual soft cap implementation:\n     * - after X amount is reached determine manual closing\n     *\n     * This may put the crowdsale to an invalid state,\n     * but we trust owners know what they are doing.\n     *\n     */\n    function setEndsAt(uint time) public onlyOwner {\n        assert(!finalized);\n        assert(now <= time);\n        // Don't change past\n        assert(startsAt <= time);\n        assert(now <= endsAt);\n\n        CrowdsaleExt lastTierCntrct = CrowdsaleExt(getLastTier());\n        if (lastTierCntrct.finalized()) revert();\n\n\n        uint8 tierPosition = getTierPosition(this);\n\n        for (uint8 j = tierPosition + 1; j < joinedCrowdsalesLen; j++) {\n            CrowdsaleExt crowdsale = CrowdsaleExt(joinedCrowdsales[j]);\n            assert(time <= crowdsale.startsAt());\n        }\n\n        endsAt = time;\n        EndsAtChanged(endsAt);\n    }\n\n    /**\n     * Allow to (re)set pricing strategy.\n     *\n     * Design choice: no state restrictions on the set, so that we can fix fat finger mistakes.\n     */\n    function setPricingStrategy(PricingStrategy _pricingStrategy) public onlyOwner {\n        assert(address(_pricingStrategy) != address(0));\n        assert(address(pricingStrategy) == address(0));\n        pricingStrategy = _pricingStrategy;\n\n        // Don't allow setting bad agent\n        if (!pricingStrategy.isPricingStrategy()) {\n            revert();\n        }\n    }\n\n    /**\n     * Allow to change the team multisig address in the case of emergency.\n     *\n     * This allows to save a deployed crowdsale wallet in the case the crowdsale has not yet begun\n     * (we have done only few test transactions). After the crowdsale is going\n     * then multisig address stays locked for the safety reasons.\n     */\n    function setMultisig(address addr) public onlyOwner {\n\n        // Change\n        if (investorCount > MAX_INVESTMENTS_BEFORE_MULTISIG_CHANGE) {\n            revert();\n        }\n\n        multisigWallet = addr;\n    }\n\n    /**\n     * @return true if the crowdsale has raised enough money to be a successful.\n     */\n    function isMinimumGoalReached() public constant returns (bool reached) {\n        return weiRaised >= minimumFundingGoal;\n    }\n\n    /**\n     * Check if the contract relationship looks good.\n     */\n    function isFinalizerSane() public constant returns (bool sane) {\n        return finalizeAgent.isSane();\n    }\n\n    /**\n     * Check if the contract relationship looks good.\n     */\n    function isPricingSane() public constant returns (bool sane) {\n        return pricingStrategy.isSane(address(this));\n    }\n\n    /**\n     * Crowdfund state machine management.\n     *\n     * We make it a function and do not assign the result to a variable, so there is no chance of the variable being stale.\n     */\n    function getState() public constant returns (State) {\n        if (finalized) return State.Finalized;\n        else if (address(finalizeAgent) == 0) return State.Preparing;\n        else if (!finalizeAgent.isSane()) return State.Preparing;\n        else if (!pricingStrategy.isSane(address(this))) return State.Preparing;\n        else if (block.timestamp < startsAt) return State.PreFunding;\n        else if (block.timestamp <= endsAt && !isCrowdsaleFull()) return State.Funding;\n        else if (isMinimumGoalReached()) return State.Success;\n        else return State.Failure;\n    }\n\n    /** Interface marker. */\n    function isCrowdsale() public constant returns (bool) {\n        return true;\n    }\n\n    //\n    // Modifiers\n    //\n\n    /** Modified allowing execution only if the crowdsale is currently running.  */\n    modifier inState(State state) {\n        if (getState() != state) revert();\n        _;\n    }\n\n\n    //\n    // Abstract functions\n    //\n\n    /**\n     * Check if the current invested breaks our cap rules.\n     *\n     *\n     * The child contract must define their own cap setting rules.\n     * We allow a lot of flexibility through different capping strategies (ETH, token count)\n     * Called from invest().\n     *\n     * @param weiAmount The amount of wei the investor tries to invest in the current transaction\n     * @param tokenAmount The amount of tokens we try to give to the investor in the current transaction\n     * @param weiRaisedTotal What would be our total raised balance after this transaction\n     * @param tokensSoldTotal What would be our total sold tokens count after this transaction\n     *\n     * @return true if taking this investment would break our cap rules\n     */\n    function isBreakingCap(uint weiAmount, uint tokenAmount, uint weiRaisedTotal, uint tokensSoldTotal) public constant returns (bool limitBroken) {\n\n    }\n\n    function isBreakingInvestorCap(address receiver, uint tokenAmount) public constant returns (bool limitBroken) {\n\n    }\n\n    /**\n     * Check if the current crowdsale is full and we can no longer sell any tokens.\n     */\n    function isCrowdsaleFull() public constant returns (bool) {\n\n    }\n\n    /**\n     * Create new tokens or transfer issued tokens to the investor depending on the cap model.\n     */\n    function assignTokens(address receiver, uint tokenAmount) private {\n\n    }\n}\n\n\n/**\n * ICO crowdsale contract that is capped by amout of tokens.\n *\n * - Tokens are dynamically created during the crowdsale\n *\n *\n */\ncontract MintedTokenCappedCrowdsaleExt is CrowdsaleExt {\n\n    /* Maximum amount of tokens this crowdsale can sell. */\n    uint public maximumSellableTokens;\n\n    constructor(\n        string _name,\n        address _token,\n        PricingStrategy _pricingStrategy,\n        address _multisigWallet,\n        uint _start, uint _end,\n        uint _minimumFundingGoal,\n        uint _maximumSellableTokens,\n        bool _isWhiteListed\n    ) CrowdsaleExt(_name, _token, _pricingStrategy, _multisigWallet, _start, _end, _minimumFundingGoal, _isWhiteListed) payable {\n        maximumSellableTokens = _maximumSellableTokens;\n    }\n\n    // Crowdsale maximumSellableTokens has been changed\n    event MaximumSellableTokensChanged(uint newMaximumSellableTokens);\n\n    /**\n     * Called from invest() to confirm if the curret investment does not break our cap rule.\n     */\n    function isBreakingCap(uint weiAmount, uint tokenAmount, uint weiRaisedTotal, uint tokensSoldTotal)\n    public constant returns (bool limitBroken) {\n        return tokensSoldTotal > maximumSellableTokens;\n    }\n\n    function isBreakingInvestorCap(address addr, uint tokenAmount) public constant returns (bool limitBroken) {\n        assert(isWhiteListed);\n        uint maxCap = earlyParticipantWhitelist[addr].maxCap;\n        return (tokenAmountOf[addr].plus(tokenAmount)) > maxCap;\n    }\n\n    function isCrowdsaleFull() public constant returns (bool) {\n        return tokensSold >= maximumSellableTokens;\n    }\n\n    function setMaximumSellableTokens(uint tokens) public onlyOwner {\n        assert(!finalized);\n        assert(now <= startsAt);\n\n        CrowdsaleExt lastTierCntrct = CrowdsaleExt(getLastTier());\n        assert(!lastTierCntrct.finalized());\n\n        maximumSellableTokens = tokens;\n        MaximumSellableTokensChanged(maximumSellableTokens);\n    }\n\n    function updateRate(uint newOneTokenInWei) public onlyOwner {\n        assert(!finalized);\n        assert(now <= startsAt);\n\n        CrowdsaleExt lastTierCntrct = CrowdsaleExt(getLastTier());\n        assert(!lastTierCntrct.finalized());\n\n        pricingStrategy.updateRate(newOneTokenInWei);\n    }\n\n    /**\n     * Dynamically create tokens and assign them to the investor.\n     */\n    function assignTokens(address receiver, uint tokenAmount) private {\n        MintableTokenExt mintableToken = MintableTokenExt(token);\n        mintableToken.mint(receiver, tokenAmount);\n    }\n\n    function finalizeCrowdsale() public {\n\n    }\n}\n",
  "sourcePath": "/Volumes/Workspace/Ongoing/Morpheus_Labs/wizard/ico-as-service/contracts/MintedTokenCappedCrowdsaleExt.sol",
  "compiler": {
    "name": "solc",
    "version": "0.4.24+commit.e67f0147.Emscripten.clang"
  },
  "schemaVersion": "2.0.1",
  "updatedAt": "2018-10-09T12:25:08.044Z"
}