{
  "contractName": "Haltable",
  "abi": [
    {
      "constant": false,
      "inputs": [],
      "name": "renounceOwnership",
      "outputs": [],
      "payable": false,
      "stateMutability": "nonpayable",
      "type": "function"
    },
    {
      "constant": true,
      "inputs": [],
      "name": "owner",
      "outputs": [
        {
          "name": "",
          "type": "address"
        }
      ],
      "payable": false,
      "stateMutability": "view",
      "type": "function"
    },
    {
      "constant": true,
      "inputs": [],
      "name": "isOwner",
      "outputs": [
        {
          "name": "",
          "type": "bool"
        }
      ],
      "payable": false,
      "stateMutability": "view",
      "type": "function"
    },
    {
      "constant": true,
      "inputs": [],
      "name": "halted",
      "outputs": [
        {
          "name": "",
          "type": "bool"
        }
      ],
      "payable": false,
      "stateMutability": "view",
      "type": "function"
    },
    {
      "constant": false,
      "inputs": [
        {
          "name": "newOwner",
          "type": "address"
        }
      ],
      "name": "transferOwnership",
      "outputs": [],
      "payable": false,
      "stateMutability": "nonpayable",
      "type": "function"
    },
    {
      "anonymous": false,
      "inputs": [
        {
          "indexed": true,
          "name": "previousOwner",
          "type": "address"
        }
      ],
      "name": "OwnershipRenounced",
      "type": "event"
    },
    {
      "anonymous": false,
      "inputs": [
        {
          "indexed": true,
          "name": "previousOwner",
          "type": "address"
        },
        {
          "indexed": true,
          "name": "newOwner",
          "type": "address"
        }
      ],
      "name": "OwnershipTransferred",
      "type": "event"
    },
    {
      "constant": false,
      "inputs": [],
      "name": "halt",
      "outputs": [],
      "payable": false,
      "stateMutability": "nonpayable",
      "type": "function"
    },
    {
      "constant": false,
      "inputs": [],
      "name": "unhalt",
      "outputs": [],
      "payable": false,
      "stateMutability": "nonpayable",
      "type": "function"
    }
  ],
  "bytecode": "0x6080604052336000806101000a81548173ffffffffffffffffffffffffffffffffffffffff021916908373ffffffffffffffffffffffffffffffffffffffff1602179055506106de806100536000396000f300608060405260043610610083576000357c0100000000000000000000000000000000000000000000000000000000900463ffffffff1680635ed7ca5b14610088578063715018a61461009f5780638da5cb5b146100b65780638f32d59b1461010d578063b9b8af0b1461013c578063cb3e64fd1461016b578063f2fde38b14610182575b600080fd5b34801561009457600080fd5b5061009d6101c5565b005b3480156100ab57600080fd5b506100b461025e565b005b3480156100c257600080fd5b506100cb610381565b604051808273ffffffffffffffffffffffffffffffffffffffff1673ffffffffffffffffffffffffffffffffffffffff16815260200191505060405180910390f35b34801561011957600080fd5b506101226103aa565b604051808215151515815260200191505060405180910390f35b34801561014857600080fd5b50610151610401565b604051808215151515815260200191505060405180910390f35b34801561017757600080fd5b50610180610414565b005b34801561018e57600080fd5b506101c3600480360381019080803573ffffffffffffffffffffffffffffffffffffffff1690602001909291905050506104c7565b005b6101cd6103aa565b1515610241576040517f08c379a00000000000000000000000000000000000000000000000000000000081526004018080602001828103825260098152602001807f4e6f74206f776e6572000000000000000000000000000000000000000000000081525060200191505060405180910390fd5b6001600060146101000a81548160ff021916908315150217905550565b6102666103aa565b15156102da576040517f08c379a00000000000000000000000000000000000000000000000000000000081526004018080602001828103825260098152602001807f4e6f74206f776e6572000000000000000000000000000000000000000000000081525060200191505060405180910390fd5b6000809054906101000a900473ffffffffffffffffffffffffffffffffffffffff1673ffffffffffffffffffffffffffffffffffffffff167ff8df31144d9c2f0f6b59d69b8b98abd5459d07f2742c4df920b25aae33c6482060405160405180910390a260008060006101000a81548173ffffffffffffffffffffffffffffffffffffffff021916908373ffffffffffffffffffffffffffffffffffffffff160217905550565b60008060009054906101000a900473ffffffffffffffffffffffffffffffffffffffff16905090565b60008060009054906101000a900473ffffffffffffffffffffffffffffffffffffffff1673ffffffffffffffffffffffffffffffffffffffff163373ffffffffffffffffffffffffffffffffffffffff1614905090565b600060149054906101000a900460ff1681565b61041c6103aa565b1515610490576040517f08c379a00000000000000000000000000000000000000000000000000000000081526004018080602001828103825260098152602001807f4e6f74206f776e6572000000000000000000000000000000000000000000000081525060200191505060405180910390fd5b600060149054906101000a900460ff1615156104ab57600080fd5b60008060146101000a81548160ff021916908315150217905550565b6104cf6103aa565b1515610543576040517f08c379a00000000000000000000000000000000000000000000000000000000081526004018080602001828103825260098152602001807f4e6f74206f776e6572000000000000000000000000000000000000000000000081525060200191505060405180910390fd5b61054c8161054f565b50565b600073ffffffffffffffffffffffffffffffffffffffff168173ffffffffffffffffffffffffffffffffffffffff16141515156105f4576040517f08c379a00000000000000000000000000000000000000000000000000000000081526004018080602001828103825260168152602001807f4e6577206f776e6572206164647265737320697320300000000000000000000081525060200191505060405180910390fd5b8073ffffffffffffffffffffffffffffffffffffffff166000809054906101000a900473ffffffffffffffffffffffffffffffffffffffff1673ffffffffffffffffffffffffffffffffffffffff167f8be0079c531659141344cd1fd0a4f28419497f9722a3daafe3b4186f6b6457e060405160405180910390a3806000806101000a81548173ffffffffffffffffffffffffffffffffffffffff021916908373ffffffffffffffffffffffffffffffffffffffff160217905550505600a165627a7a723058200860424951020a1b0344e82eee5aa042c7bf52a4eb8550321e8a57c78d6b09c70029",
  "source": "/**\n * Issued by Morpheus Labs ICO as a Service Wizard\n */\npragma solidity ^0.4.19;\nimport \"./Ownable.sol\";\n\n/*\n * Haltable\n *\n * Abstract contract that allows children to implement an\n * emergency stop mechanism. Differs from Pausable by causing a throw when in halt mode.\n *\n *\n * Originally envisioned in FirstBlood ICO contract.\n */\ncontract Haltable is Ownable {\n  bool public halted;\n\n  modifier stopInEmergency {\n    if (halted) revert();\n    _;\n  }\n\n  modifier stopNonOwnersInEmergency {\n    if (halted && msg.sender != owner) revert();\n    _;\n  }\n\n  modifier onlyInEmergency {\n    if (!halted) revert();\n    _;\n  }\n\n  // called by the owner on emergency, triggers stopped state\n  function halt() external onlyOwner {\n    halted = true;\n  }\n\n  // called by the owner on end of emergency, returns to normal state\n  function unhalt() external onlyOwner onlyInEmergency {\n    halted = false;\n  }\n\n}",
  "sourcePath": "/Volumes/Workspace/Ongoing/Morpheus_Labs/wizard/ico-as-service/contracts/lib/Haltable.sol",
  "compiler": {
    "name": "solc",
    "version": "0.4.24+commit.e67f0147.Emscripten.clang"
  },
  "schemaVersion": "2.0.1",
  "updatedAt": "2018-10-09T12:25:08.063Z"
}