{
  "contractName": "PricingStrategy",
  "abi": [
    {
      "constant": true,
      "inputs": [],
      "name": "tier",
      "outputs": [
        {
          "name": "",
          "type": "address"
        }
      ],
      "payable": false,
      "stateMutability": "view",
      "type": "function"
    },
    {
      "constant": true,
      "inputs": [],
      "name": "isPricingStrategy",
      "outputs": [
        {
          "name": "",
          "type": "bool"
        }
      ],
      "payable": false,
      "stateMutability": "view",
      "type": "function"
    },
    {
      "constant": true,
      "inputs": [
        {
          "name": "crowdsale",
          "type": "address"
        }
      ],
      "name": "isSane",
      "outputs": [
        {
          "name": "",
          "type": "bool"
        }
      ],
      "payable": false,
      "stateMutability": "view",
      "type": "function"
    },
    {
      "constant": true,
      "inputs": [
        {
          "name": "purchaser",
          "type": "address"
        }
      ],
      "name": "isPresalePurchase",
      "outputs": [
        {
          "name": "",
          "type": "bool"
        }
      ],
      "payable": false,
      "stateMutability": "view",
      "type": "function"
    },
    {
      "constant": false,
      "inputs": [
        {
          "name": "newOneTokenInWei",
          "type": "uint256"
        }
      ],
      "name": "updateRate",
      "outputs": [],
      "payable": false,
      "stateMutability": "nonpayable",
      "type": "function"
    },
    {
      "constant": true,
      "inputs": [
        {
          "name": "value",
          "type": "uint256"
        },
        {
          "name": "weiRaised",
          "type": "uint256"
        },
        {
          "name": "tokensSold",
          "type": "uint256"
        },
        {
          "name": "msgSender",
          "type": "address"
        },
        {
          "name": "decimals",
          "type": "uint256"
        }
      ],
      "name": "calculatePrice",
      "outputs": [
        {
          "name": "tokenAmount",
          "type": "uint256"
        }
      ],
      "payable": false,
      "stateMutability": "view",
      "type": "function"
    }
  ],
  "bytecode": "0x608060405234801561001057600080fd5b506102e2806100206000396000f300608060405260043610610078576000357c0100000000000000000000000000000000000000000000000000000000900463ffffffff16806304bbc2551461007d57806316f4d022146100ac57806318a4155e1461010357806369ea1771146101825780638e768288146101af578063f14ae17d1461020a575b600080fd5b34801561008957600080fd5b50610092610265565b604051808215151515815260200191505060405180910390f35b3480156100b857600080fd5b506100c161026e565b604051808273ffffffffffffffffffffffffffffffffffffffff1673ffffffffffffffffffffffffffffffffffffffff16815260200191505060405180910390f35b34801561010f57600080fd5b5061016c600480360381019080803590602001909291908035906020019092919080359060200190929190803573ffffffffffffffffffffffffffffffffffffffff16906020019092919080359060200190929190505050610293565b6040518082815260200191505060405180910390f35b34801561018e57600080fd5b506101ad6004803603810190808035906020019092919050505061029e565b005b3480156101bb57600080fd5b506101f0600480360381019080803573ffffffffffffffffffffffffffffffffffffffff1690602001909291905050506102a1565b604051808215151515815260200191505060405180910390f35b34801561021657600080fd5b5061024b600480360381019080803573ffffffffffffffffffffffffffffffffffffffff1690602001909291905050506102ac565b604051808215151515815260200191505060405180910390f35b60006001905090565b6000809054906101000a900473ffffffffffffffffffffffffffffffffffffffff1681565b600095945050505050565b50565b600060019050919050565b60008090509190505600a165627a7a723058201b0706df13b97f08a75c8fe2ff203f3e958725ea2c95537fd7aca125d173b3e50029",
  "source": "/**\n * Issued by Morpheus Labs ICO as a Service Wizard\n */\npragma solidity ^0.4.19;\n\n/**\n * Interface for defining crowdsale pricing.\n */\ncontract PricingStrategy {\n\n  address public tier;\n\n  /** Interface declaration. */\n  function isPricingStrategy() public constant returns (bool) {\n    return true;\n  }\n\n  /** Self check if all references are correctly set.\n   *\n   * Checks that pricing strategy matches crowdsale parameters.\n   */\n  function isSane(address crowdsale) public constant returns (bool) {\n    return true;\n  }\n\n  /**\n   * @dev Pricing tells if this is a presale purchase or not.\n     @param purchaser Address of the purchaser\n     @return False by default, true if a presale purchaser\n   */\n  function isPresalePurchase(address purchaser) public constant returns (bool) {\n    return false;\n  }\n\n  /* How many weis one token costs */\n  function updateRate(uint newOneTokenInWei) public {\n\n  }\n\n  /**\n   * When somebody tries to buy tokens for X eth, calculate how many tokens they get.\n   *\n   *\n   * @param value - What is the value of the transaction send in as wei\n   * @param tokensSold - how much tokens have been sold this far\n   * @param weiRaised - how much money has been raised this far in the main token sale - this number excludes presale\n   * @param msgSender - who is the investor of this transaction\n   * @param decimals - how many decimal units the token has\n   * @return Amount of tokens the investor receives\n   */\n  function calculatePrice(uint value, uint weiRaised, uint tokensSold, address msgSender, uint decimals) public constant returns (uint tokenAmount) {\n\n  }\n}",
  "sourcePath": "/Volumes/Workspace/Ongoing/Morpheus_Labs/wizard/ico-as-service/contracts/lib/PricingStrategy.sol",
  "compiler": {
    "name": "solc",
    "version": "0.4.24+commit.e67f0147.Emscripten.clang"
  },
  "schemaVersion": "2.0.1",
  "updatedAt": "2018-10-09T12:25:08.066Z"
}