{
  "contractName": "ReservedTokensFinalizeAgent",
  "abi": [
    {
      "constant": true,
      "inputs": [],
      "name": "isFinalizeAgent",
      "outputs": [
        {
          "name": "",
          "type": "bool"
        }
      ],
      "payable": false,
      "stateMutability": "view",
      "type": "function"
    },
    {
      "constant": true,
      "inputs": [],
      "name": "crowdsale",
      "outputs": [
        {
          "name": "",
          "type": "address"
        }
      ],
      "payable": false,
      "stateMutability": "view",
      "type": "function"
    },
    {
      "constant": true,
      "inputs": [],
      "name": "distributedReservedTokensDestinationsLen",
      "outputs": [
        {
          "name": "",
          "type": "uint256"
        }
      ],
      "payable": false,
      "stateMutability": "view",
      "type": "function"
    },
    {
      "constant": true,
      "inputs": [],
      "name": "reservedTokensAreDistributed",
      "outputs": [
        {
          "name": "",
          "type": "bool"
        }
      ],
      "payable": false,
      "stateMutability": "view",
      "type": "function"
    },
    {
      "constant": true,
      "inputs": [],
      "name": "token",
      "outputs": [
        {
          "name": "",
          "type": "address"
        }
      ],
      "payable": false,
      "stateMutability": "view",
      "type": "function"
    },
    {
      "inputs": [
        {
          "name": "_token",
          "type": "address"
        },
        {
          "name": "_crowdsale",
          "type": "address"
        }
      ],
      "payable": false,
      "stateMutability": "nonpayable",
      "type": "constructor"
    },
    {
      "constant": true,
      "inputs": [],
      "name": "isSane",
      "outputs": [
        {
          "name": "",
          "type": "bool"
        }
      ],
      "payable": false,
      "stateMutability": "view",
      "type": "function"
    },
    {
      "constant": false,
      "inputs": [
        {
          "name": "reservedTokensDistributionBatch",
          "type": "uint256"
        }
      ],
      "name": "distributeReservedTokens",
      "outputs": [],
      "payable": false,
      "stateMutability": "nonpayable",
      "type": "function"
    },
    {
      "constant": false,
      "inputs": [],
      "name": "finalizeCrowdsale",
      "outputs": [],
      "payable": false,
      "stateMutability": "nonpayable",
      "type": "function"
    }
  ],
  "bytecode": "0x608060405260008060006101000a81548160ff021916908315150217905550600060025534801561002f57600080fd5b5060405160408061151c833981018060405281019080805190602001909291908051906020019092919050505081600060016101000a81548173ffffffffffffffffffffffffffffffffffffffff021916908373ffffffffffffffffffffffffffffffffffffffff16021790555080600160006101000a81548173ffffffffffffffffffffffffffffffffffffffff021916908373ffffffffffffffffffffffffffffffffffffffff160217905550505061142d806100ef6000396000f30060806040526004361061008e576000357c0100000000000000000000000000000000000000000000000000000000900463ffffffff1680630bf318a314610093578063614cb904146100aa57806382771c8e146100d95780639c1e03a014610108578063c71a7aea1461015f578063cddaf2411461018a578063f9cb6d7a146101b7578063fc0c546a146101e6575b600080fd5b34801561009f57600080fd5b506100a861023d565b005b3480156100b657600080fd5b506100bf610416565b604051808215151515815260200191505060405180910390f35b3480156100e557600080fd5b506100ee61041f565b604051808215151515815260200191505060405180910390f35b34801561011457600080fd5b5061011d610515565b604051808273ffffffffffffffffffffffffffffffffffffffff1673ffffffffffffffffffffffffffffffffffffffff16815260200191505060405180910390f35b34801561016b57600080fd5b5061017461053b565b6040518082815260200191505060405180910390f35b34801561019657600080fd5b506101b560048036038101908080359060200190929190505050610541565b005b3480156101c357600080fd5b506101cc6113c9565b604051808215151515815260200191505060405180910390f35b3480156101f257600080fd5b506101fb6113db565b604051808273ffffffffffffffffffffffffffffffffffffffff1673ffffffffffffffffffffffffffffffffffffffff16815260200191505060405180910390f35b600160009054906101000a900473ffffffffffffffffffffffffffffffffffffffff1673ffffffffffffffffffffffffffffffffffffffff163373ffffffffffffffffffffffffffffffffffffffff1614151561029657fe5b60008060019054906101000a900473ffffffffffffffffffffffffffffffffffffffff1673ffffffffffffffffffffffffffffffffffffffff1663c33105176040518163ffffffff167c0100000000000000000000000000000000000000000000000000000000028152600401602060405180830381600087803b15801561031d57600080fd5b505af1158015610331573d6000803e3d6000fd5b505050506040513d602081101561034757600080fd5b81019080805190602001909291905050501115610376576000809054906101000a900460ff16151561037557fe5b5b600060019054906101000a900473ffffffffffffffffffffffffffffffffffffffff1673ffffffffffffffffffffffffffffffffffffffff16635f412d4f6040518163ffffffff167c0100000000000000000000000000000000000000000000000000000000028152600401600060405180830381600087803b1580156103fc57600080fd5b505af1158015610410573d6000803e3d6000fd5b50505050565b60006001905090565b60003073ffffffffffffffffffffffffffffffffffffffff16600060019054906101000a900473ffffffffffffffffffffffffffffffffffffffff1673ffffffffffffffffffffffffffffffffffffffff1663d1f276d36040518163ffffffff167c0100000000000000000000000000000000000000000000000000000000028152600401602060405180830381600087803b1580156104be57600080fd5b505af11580156104d2573d6000803e3d6000fd5b505050506040513d60208110156104e857600080fd5b810190808051906020019092919050505073ffffffffffffffffffffffffffffffffffffffff1614905090565b600160009054906101000a900473ffffffffffffffffffffffffffffffffffffffff1681565b60025481565b600080600080600080600080600080600080600160009054906101000a900473ffffffffffffffffffffffffffffffffffffffff1673ffffffffffffffffffffffffffffffffffffffff163373ffffffffffffffffffffffffffffffffffffffff161415156105ac57fe5b60008d1115156105b857fe5b6000809054906101000a900460ff161515156105d057fe5b600060019054906101000a900473ffffffffffffffffffffffffffffffffffffffff1673ffffffffffffffffffffffffffffffffffffffff1663c33105176040518163ffffffff167c0100000000000000000000000000000000000000000000000000000000028152600401602060405180830381600087803b15801561065657600080fd5b505af115801561066a573d6000803e3d6000fd5b505050506040513d602081101561068057600080fd5b810190808051906020019092919050505060025410151561069d57fe5b60009b5060009a505b600160009054906101000a900473ffffffffffffffffffffffffffffffffffffffff1673ffffffffffffffffffffffffffffffffffffffff1663ebdfa4556040518163ffffffff167c0100000000000000000000000000000000000000000000000000000000028152600401602060405180830381600087803b15801561072c57600080fd5b505af1158015610740573d6000803e3d6000fd5b505050506040513d602081101561075657600080fd5b810190808051906020019092919050505060ff168b60ff1610156109a257600160009054906101000a900473ffffffffffffffffffffffffffffffffffffffff1673ffffffffffffffffffffffffffffffffffffffff1663bede2cac8c6040518263ffffffff167c0100000000000000000000000000000000000000000000000000000000028152600401808260ff168152602001915050602060405180830381600087803b15801561080857600080fd5b505af115801561081c573d6000803e3d6000fd5b505050506040513d602081101561083257600080fd5b810190808051906020019092919050505099508b73__SafeMathLibExt________________________6366098d4f90918c73ffffffffffffffffffffffffffffffffffffffff1663518ab2a86040518163ffffffff167c0100000000000000000000000000000000000000000000000000000000028152600401602060405180830381600087803b1580156108c657600080fd5b505af11580156108da573d6000803e3d6000fd5b505050506040513d60208110156108f057600080fd5b81019080805190602001909291905050506040518363ffffffff167c0100000000000000000000000000000000000000000000000000000000028152600401808381526020018281526020019250505060206040518083038186803b15801561095857600080fd5b505af415801561096c573d6000803e3d6000fd5b505050506040513d602081101561098257600080fd5b81019080805190602001909291905050509b508a806001019b50506106a6565b6002549850600060019054906101000a900473ffffffffffffffffffffffffffffffffffffffff1673ffffffffffffffffffffffffffffffffffffffff1663c33105176040518163ffffffff167c0100000000000000000000000000000000000000000000000000000000028152600401602060405180830381600087803b158015610a2d57600080fd5b505af1158015610a41573d6000803e3d6000fd5b505050506040513d6020811015610a5757600080fd5b810190808051906020019092919050505073__SafeMathLibExt________________________63f4f3bdc190916002546040518363ffffffff167c0100000000000000000000000000000000000000000000000000000000028152600401808381526020018281526020019250505060206040518083038186803b158015610ade57600080fd5b505af4158015610af2573d6000803e3d6000fd5b505050506040513d6020811015610b0857600080fd5b810190808051906020019092919050505097508c88101515610b28578c97505b87890196508895505b868610156112d557600060019054906101000a900473ffffffffffffffffffffffffffffffffffffffff1673ffffffffffffffffffffffffffffffffffffffff16637386f0a7876040518263ffffffff167c010000000000000000000000000000000000000000000000000000000002815260040180828152602001915050602060405180830381600087803b158015610bca57600080fd5b505af1158015610bde573d6000803e3d6000fd5b505050506040513d6020811015610bf457600080fd5b81019080805190602001909291905050509450600060019054906101000a900473ffffffffffffffffffffffffffffffffffffffff1673ffffffffffffffffffffffffffffffffffffffff1663b4ecb847866040518263ffffffff167c0100000000000000000000000000000000000000000000000000000000028152600401808273ffffffffffffffffffffffffffffffffffffffff1673ffffffffffffffffffffffffffffffffffffffff168152602001915050602060405180830381600087803b158015610cc457600080fd5b505af1158015610cd8573d6000803e3d6000fd5b505050506040513d6020811015610cee57600080fd5b810190808051906020019092919050505015156112c857600060019054906101000a900473ffffffffffffffffffffffffffffffffffffffff1673ffffffffffffffffffffffffffffffffffffffff1663612544b3866040518263ffffffff167c0100000000000000000000000000000000000000000000000000000000028152600401808273ffffffffffffffffffffffffffffffffffffffff1673ffffffffffffffffffffffffffffffffffffffff168152602001915050602060405180830381600087803b158015610dc257600080fd5b505af1158015610dd6573d6000803e3d6000fd5b505050506040513d6020811015610dec57600080fd5b81019080805190602001909291905050509250600060019054906101000a900473ffffffffffffffffffffffffffffffffffffffff1673ffffffffffffffffffffffffffffffffffffffff16633d0acdaa866040518263ffffffff167c0100000000000000000000000000000000000000000000000000000000028152600401808273ffffffffffffffffffffffffffffffffffffffff1673ffffffffffffffffffffffffffffffffffffffff168152602001915050602060405180830381600087803b158015610ebc57600080fd5b505af1158015610ed0573d6000803e3d6000fd5b505050506040513d6020811015610ee657600080fd5b81019080805190602001909291905050509150600060019054906101000a900473ffffffffffffffffffffffffffffffffffffffff1673ffffffffffffffffffffffffffffffffffffffff166345e7e140866040518263ffffffff167c0100000000000000000000000000000000000000000000000000000000028152600401808273ffffffffffffffffffffffffffffffffffffffff1673ffffffffffffffffffffffffffffffffffffffff168152602001915050602060405180830381600087803b158015610fb657600080fd5b505af1158015610fca573d6000803e3d6000fd5b505050506040513d6020811015610fe057600080fd5b8101908080519060200190929190505050905060008211156110f957606481600a0a838e0281151561100e57fe5b0481151561101857fe5b049350600060019054906101000a900473ffffffffffffffffffffffffffffffffffffffff1673ffffffffffffffffffffffffffffffffffffffff166340c10f1986866040518363ffffffff167c0100000000000000000000000000000000000000000000000000000000028152600401808373ffffffffffffffffffffffffffffffffffffffff1673ffffffffffffffffffffffffffffffffffffffff16815260200182815260200192505050600060405180830381600087803b1580156110e057600080fd5b505af11580156110f4573d6000803e3d6000fd5b505050505b60008311156111e057600060019054906101000a900473ffffffffffffffffffffffffffffffffffffffff1673ffffffffffffffffffffffffffffffffffffffff166340c10f1986856040518363ffffffff167c0100000000000000000000000000000000000000000000000000000000028152600401808373ffffffffffffffffffffffffffffffffffffffff1673ffffffffffffffffffffffffffffffffffffffff16815260200182815260200192505050600060405180830381600087803b1580156111c757600080fd5b505af11580156111db573d6000803e3d6000fd5b505050505b600060019054906101000a900473ffffffffffffffffffffffffffffffffffffffff1673ffffffffffffffffffffffffffffffffffffffff16636ffc22b8866040518263ffffffff167c0100000000000000000000000000000000000000000000000000000000028152600401808273ffffffffffffffffffffffffffffffffffffffff1673ffffffffffffffffffffffffffffffffffffffff168152602001915050600060405180830381600087803b15801561129d57600080fd5b505af11580156112b1573d6000803e3d6000fd5b505050506002600081548092919060010191905055505b8580600101965050610b31565b600060019054906101000a900473ffffffffffffffffffffffffffffffffffffffff1673ffffffffffffffffffffffffffffffffffffffff1663c33105176040518163ffffffff167c0100000000000000000000000000000000000000000000000000000000028152600401602060405180830381600087803b15801561135b57600080fd5b505af115801561136f573d6000803e3d6000fd5b505050506040513d602081101561138557600080fd5b810190808051906020019092919050505060025414156113ba5760016000806101000a81548160ff0219169083151502179055505b50505050505050505050505050565b6000809054906101000a900460ff1681565b600060019054906101000a900473ffffffffffffffffffffffffffffffffffffffff16815600a165627a7a723058207d725f10e78ce82e8a3035c516487a6396b47ca3338137c60a7c02e16c20770d0029",
  "source": "/**\n * Issued by Morpheus Labs ICO as a Service Wizard\n */\npragma solidity ^0.4.19;\n\nimport \"./lib/FinalizeAgent.sol\";\nimport \"./lib/SafeMathLibExt.sol\";\nimport \"./CrowdsaleTokenExt.sol\";\nimport \"./MintedTokenCappedCrowdsaleExt.sol\";\n\n\n/**\n * The default behavior for the crowdsale end.\n *\n * Unlock tokens.\n */\ncontract ReservedTokensFinalizeAgent is FinalizeAgent {\n    using SafeMathLibExt for uint;\n    CrowdsaleTokenExt public token;\n    CrowdsaleExt public crowdsale;\n\n    uint public distributedReservedTokensDestinationsLen = 0;\n\n    constructor(CrowdsaleTokenExt _token, CrowdsaleExt _crowdsale) public {\n        token = _token;\n        crowdsale = _crowdsale;\n    }\n\n    /** Check that we can release the token */\n    function isSane() public constant returns (bool) {\n        return (token.releaseAgent() == address(this));\n    }\n\n    //distributes reserved tokens. Should be called before finalization\n    function distributeReservedTokens(uint reservedTokensDistributionBatch) public {\n        assert(msg.sender == address(crowdsale));\n\n        assert(reservedTokensDistributionBatch > 0);\n        assert(!reservedTokensAreDistributed);\n        assert(distributedReservedTokensDestinationsLen < token.reservedTokensDestinationsLen());\n\n\n        // How many % of tokens the founders and others get\n        uint tokensSold = 0;\n        for (uint8 i = 0; i < crowdsale.joinedCrowdsalesLen(); i++) {\n            CrowdsaleExt tier = CrowdsaleExt(crowdsale.joinedCrowdsales(i));\n            tokensSold = tokensSold.plus(tier.tokensSold());\n        }\n\n        uint startLooping = distributedReservedTokensDestinationsLen;\n        uint batch = token.reservedTokensDestinationsLen().minus(distributedReservedTokensDestinationsLen);\n        if (batch >= reservedTokensDistributionBatch) {\n            batch = reservedTokensDistributionBatch;\n        }\n        uint endLooping = startLooping + batch;\n\n        // move reserved tokens\n        for (uint j = startLooping; j < endLooping; j++) {\n            address reservedAddr = token.reservedTokensDestinations(j);\n            if (!token.areTokensDistributedForAddress(reservedAddr)) {\n                uint allocatedBonusInPercentage;\n                uint allocatedBonusInTokens = token.getReservedTokens(reservedAddr);\n                uint percentsOfTokensUnit = token.getReservedPercentageUnit(reservedAddr);\n                uint percentsOfTokensDecimals = token.getReservedPercentageDecimals(reservedAddr);\n\n                if (percentsOfTokensUnit > 0) {\n                    allocatedBonusInPercentage = tokensSold * percentsOfTokensUnit / 10 ** percentsOfTokensDecimals / 100;\n                    token.mint(reservedAddr, allocatedBonusInPercentage);\n                }\n\n                if (allocatedBonusInTokens > 0) {\n                    token.mint(reservedAddr, allocatedBonusInTokens);\n                }\n\n                token.finalizeReservedAddress(reservedAddr);\n                distributedReservedTokensDestinationsLen++;\n            }\n        }\n\n        if (distributedReservedTokensDestinationsLen == token.reservedTokensDestinationsLen()) {\n            reservedTokensAreDistributed = true;\n        }\n    }\n\n    /** Called once by crowdsale finalize() if the sale was success. */\n    function finalizeCrowdsale() public {\n        assert(msg.sender == address(crowdsale));\n\n        if (token.reservedTokensDestinationsLen() > 0) {\n            assert(reservedTokensAreDistributed);\n        }\n\n        token.releaseTokenTransfer();\n    }\n\n}",
  "sourcePath": "/Volumes/Workspace/Ongoing/Morpheus_Labs/wizard/ico-as-service/contracts/ReservedTokensFinalizeAgent.sol",
  "compiler": {
    "name": "solc",
    "version": "0.4.24+commit.e67f0147.Emscripten.clang"
  },
  "schemaVersion": "2.0.1",
  "updatedAt": "2018-10-09T12:25:08.058Z"
}