{
  "contractName": "SafeMathLibExt",
  "abi": [
    {
      "constant": false,
      "inputs": [
        {
          "name": "a",
          "type": "uint256"
        },
        {
          "name": "b",
          "type": "uint256"
        }
      ],
      "name": "times",
      "outputs": [
        {
          "name": "",
          "type": "uint256"
        }
      ],
      "payable": false,
      "stateMutability": "nonpayable",
      "type": "function"
    },
    {
      "constant": false,
      "inputs": [
        {
          "name": "a",
          "type": "uint256"
        },
        {
          "name": "b",
          "type": "uint256"
        }
      ],
      "name": "divides",
      "outputs": [
        {
          "name": "",
          "type": "uint256"
        }
      ],
      "payable": false,
      "stateMutability": "nonpayable",
      "type": "function"
    },
    {
      "constant": false,
      "inputs": [
        {
          "name": "a",
          "type": "uint256"
        },
        {
          "name": "b",
          "type": "uint256"
        }
      ],
      "name": "minus",
      "outputs": [
        {
          "name": "",
          "type": "uint256"
        }
      ],
      "payable": false,
      "stateMutability": "nonpayable",
      "type": "function"
    },
    {
      "constant": false,
      "inputs": [
        {
          "name": "a",
          "type": "uint256"
        },
        {
          "name": "b",
          "type": "uint256"
        }
      ],
      "name": "plus",
      "outputs": [
        {
          "name": "",
          "type": "uint256"
        }
      ],
      "payable": false,
      "stateMutability": "nonpayable",
      "type": "function"
    }
  ],
  "bytecode": "0x610281610030600b82828239805160001a6073146000811461002057610022565bfe5b5030600052607381538281f3007300000000000000000000000000000000000000003014608060405260043610610079576000357c0100000000000000000000000000000000000000000000000000000000900463ffffffff1680631d3b9edf1461007e57806366098d4f146100c9578063a12f69e014610114578063f4f3bdc11461015f575b600080fd5b81801561008a57600080fd5b506100b360048036038101908080359060200190929190803590602001909291905050506101aa565b6040518082815260200191505060405180910390f35b8180156100d557600080fd5b506100fe60048036038101908080359060200190929190803590602001909291905050506101dd565b6040518082815260200191505060405180910390f35b81801561012057600080fd5b5061014960048036038101908080359060200190929190803590602001909291905050506101fb565b6040518082815260200191505060405180910390f35b81801561016b57600080fd5b50610194600480360381019080803590602001909291908035906020019092919050505061023c565b6040518082815260200191505060405180910390f35b600080828402905060008414806101cb57508284828115156101c857fe5b04145b15156101d357fe5b8091505092915050565b60008082840190508381101515156101f157fe5b8091505092915050565b60008060008311151561020a57fe5b828481151561021557fe5b049050828481151561022357fe5b06818402018414151561023257fe5b8091505092915050565b600082821115151561024a57fe5b8183039050929150505600a165627a7a723058209a11a448818b0e4d01bf85de8f17fa0c2f2062c5e6c7abd9de36b60a15e335300029",
  "source": "/**\n * Issued by Morpheus Labs ICO as a Service Wizard\n */\npragma solidity ^0.4.19;\n\n/**\n * Safe unsigned safe math.\n *\n * https://blog.aragon.one/library-driven-development-in-solidity-2bebcaf88736#.750gwtwli\n *\n * Originally from https://raw.githubusercontent.com/AragonOne/zeppelin-solidity/master/contracts/SafeMathLib.sol\n *\n * Maintained here until merged to mainline zeppelin-solidity.\n *\n */\nlibrary SafeMathLibExt {\n\n  function times(uint a, uint b) public returns (uint) {\n    uint c = a * b;\n    assert(a == 0 || c / a == b);\n    return c;\n  }\n\n  function divides(uint a, uint b) public returns (uint) {\n    assert(b > 0);\n    uint c = a / b;\n    assert(a == b * c + a % b);\n    return c;\n  }\n\n  function minus(uint a, uint b) public returns (uint) {\n    assert(b <= a);\n    return a - b;\n  }\n\n  function plus(uint a, uint b) public returns (uint) {\n    uint c = a + b;\n    assert(c >= a);\n    return c;\n  }\n\n}",
  "sourcePath": "/Volumes/Workspace/Ongoing/Morpheus_Labs/wizard/ico-as-service/contracts/lib/SafeMathLibExt.sol",
  "compiler": {
    "name": "solc",
    "version": "0.4.24+commit.e67f0147.Emscripten.clang"
  },
  "schemaVersion": "2.0.1",
  "updatedAt": "2018-10-09T12:25:08.069Z"
}