{
  "contractName": "TokenVesting",
  "abi": [
    {
      "constant": true,
      "inputs": [],
      "name": "totalVestedTokens",
      "outputs": [
        {
          "name": "",
          "type": "uint256"
        }
      ],
      "payable": false,
      "stateMutability": "view",
      "type": "function"
    },
    {
      "constant": false,
      "inputs": [],
      "name": "renounceOwnership",
      "outputs": [],
      "payable": false,
      "stateMutability": "nonpayable",
      "type": "function"
    },
    {
      "constant": true,
      "inputs": [],
      "name": "owner",
      "outputs": [
        {
          "name": "",
          "type": "address"
        }
      ],
      "payable": false,
      "stateMutability": "view",
      "type": "function"
    },
    {
      "constant": true,
      "inputs": [],
      "name": "isOwner",
      "outputs": [
        {
          "name": "",
          "type": "bool"
        }
      ],
      "payable": false,
      "stateMutability": "view",
      "type": "function"
    },
    {
      "constant": true,
      "inputs": [
        {
          "name": "",
          "type": "uint256"
        }
      ],
      "name": "vestedAddresses",
      "outputs": [
        {
          "name": "",
          "type": "address"
        }
      ],
      "payable": false,
      "stateMutability": "view",
      "type": "function"
    },
    {
      "constant": true,
      "inputs": [],
      "name": "slide",
      "outputs": [
        {
          "name": "",
          "type": "uint256"
        }
      ],
      "payable": false,
      "stateMutability": "view",
      "type": "function"
    },
    {
      "constant": true,
      "inputs": [
        {
          "name": "",
          "type": "address"
        }
      ],
      "name": "grants",
      "outputs": [
        {
          "name": "value",
          "type": "uint256"
        },
        {
          "name": "level",
          "type": "uint256"
        },
        {
          "name": "transferred",
          "type": "uint256"
        }
      ],
      "payable": false,
      "stateMutability": "view",
      "type": "function"
    },
    {
      "constant": true,
      "inputs": [],
      "name": "start",
      "outputs": [
        {
          "name": "",
          "type": "uint256"
        }
      ],
      "payable": false,
      "stateMutability": "view",
      "type": "function"
    },
    {
      "constant": true,
      "inputs": [],
      "name": "locked",
      "outputs": [
        {
          "name": "",
          "type": "bool"
        }
      ],
      "payable": false,
      "stateMutability": "view",
      "type": "function"
    },
    {
      "constant": true,
      "inputs": [],
      "name": "end",
      "outputs": [
        {
          "name": "",
          "type": "uint256"
        }
      ],
      "payable": false,
      "stateMutability": "view",
      "type": "function"
    },
    {
      "constant": false,
      "inputs": [
        {
          "name": "newOwner",
          "type": "address"
        }
      ],
      "name": "transferOwnership",
      "outputs": [],
      "payable": false,
      "stateMutability": "nonpayable",
      "type": "function"
    },
    {
      "constant": true,
      "inputs": [],
      "name": "token",
      "outputs": [
        {
          "name": "",
          "type": "address"
        }
      ],
      "payable": false,
      "stateMutability": "view",
      "type": "function"
    },
    {
      "inputs": [
        {
          "name": "_token",
          "type": "address"
        }
      ],
      "payable": false,
      "stateMutability": "nonpayable",
      "type": "constructor"
    },
    {
      "anonymous": false,
      "inputs": [
        {
          "indexed": false,
          "name": "_time",
          "type": "uint256"
        }
      ],
      "name": "StartVesting",
      "type": "event"
    },
    {
      "anonymous": false,
      "inputs": [
        {
          "indexed": false,
          "name": "_holder",
          "type": "address"
        },
        {
          "indexed": false,
          "name": "_amount",
          "type": "uint256"
        }
      ],
      "name": "NewGrant",
      "type": "event"
    },
    {
      "anonymous": false,
      "inputs": [
        {
          "indexed": false,
          "name": "_holder",
          "type": "address"
        },
        {
          "indexed": false,
          "name": "_amount",
          "type": "uint256"
        }
      ],
      "name": "NewRelease",
      "type": "event"
    },
    {
      "anonymous": false,
      "inputs": [
        {
          "indexed": false,
          "name": "_amount",
          "type": "uint256"
        }
      ],
      "name": "WithdrawAll",
      "type": "event"
    },
    {
      "anonymous": false,
      "inputs": [
        {
          "indexed": false,
          "name": "_address",
          "type": "address"
        }
      ],
      "name": "LockedVault",
      "type": "event"
    },
    {
      "anonymous": false,
      "inputs": [
        {
          "indexed": true,
          "name": "previousOwner",
          "type": "address"
        }
      ],
      "name": "OwnershipRenounced",
      "type": "event"
    },
    {
      "anonymous": false,
      "inputs": [
        {
          "indexed": true,
          "name": "previousOwner",
          "type": "address"
        },
        {
          "indexed": true,
          "name": "newOwner",
          "type": "address"
        }
      ],
      "name": "OwnershipTransferred",
      "type": "event"
    },
    {
      "constant": false,
      "inputs": [
        {
          "name": "_start",
          "type": "uint256"
        },
        {
          "name": "_slide",
          "type": "uint256"
        }
      ],
      "name": "startVesting",
      "outputs": [],
      "payable": false,
      "stateMutability": "nonpayable",
      "type": "function"
    },
    {
      "constant": false,
      "inputs": [
        {
          "name": "_to",
          "type": "address"
        },
        {
          "name": "_value",
          "type": "uint256"
        },
        {
          "name": "_level",
          "type": "uint256"
        }
      ],
      "name": "grant",
      "outputs": [],
      "payable": false,
      "stateMutability": "nonpayable",
      "type": "function"
    },
    {
      "constant": true,
      "inputs": [
        {
          "name": "_holder",
          "type": "address"
        },
        {
          "name": "_time",
          "type": "uint256"
        }
      ],
      "name": "transferableTokens",
      "outputs": [
        {
          "name": "",
          "type": "uint256"
        }
      ],
      "payable": false,
      "stateMutability": "view",
      "type": "function"
    },
    {
      "constant": false,
      "inputs": [],
      "name": "claim",
      "outputs": [],
      "payable": false,
      "stateMutability": "nonpayable",
      "type": "function"
    },
    {
      "constant": false,
      "inputs": [
        {
          "name": "teamWallet",
          "type": "address"
        }
      ],
      "name": "withdraw",
      "outputs": [],
      "payable": false,
      "stateMutability": "nonpayable",
      "type": "function"
    },
    {
      "constant": false,
      "inputs": [],
      "name": "lockVault",
      "outputs": [],
      "payable": false,
      "stateMutability": "nonpayable",
      "type": "function"
    }
  ],
  "bytecode": "0x608060405234801561001057600080fd5b506040516020806119ec83398101806040528101908080519060200190929190505050336000806101000a81548173ffffffffffffffffffffffffffffffffffffffff021916908373ffffffffffffffffffffffffffffffffffffffff16021790555060008173ffffffffffffffffffffffffffffffffffffffff1614151515610102576040517f08c379a00000000000000000000000000000000000000000000000000000000081526004018080602001828103825260208152602001807f546f6b656e20616464726573732073686f756c64206e6f74206265207a65726f81525060200191505060405180910390fd5b80600160006101000a81548173ffffffffffffffffffffffffffffffffffffffff021916908373ffffffffffffffffffffffffffffffffffffffff1602179055506000600760006101000a81548160ff0219169083151502179055505061187e8061016e6000396000f3006080604052600436106100fc576000357c0100000000000000000000000000000000000000000000000000000000900463ffffffff16806348bdd198146101015780634e71d92d1461011857806351cff8d91461012f57806351e0963114610172578063715018a61461019d5780637fdb5031146101b45780638da5cb5b146102155780638f32d59b1461026c578063946b6a381461029b578063982f3bfd14610308578063b69a232914610333578063b869cea31461038a578063be9a6555146103ef578063bf85e6281461041a578063cf30901214610451578063efbe1c1c14610480578063f2fde38b146104ab578063fc0c546a146104ee575b600080fd5b34801561010d57600080fd5b50610116610545565b005b34801561012457600080fd5b5061012d610562565b005b34801561013b57600080fd5b50610170600480360381019080803573ffffffffffffffffffffffffffffffffffffffff169060200190929190505050610919565b005b34801561017e57600080fd5b50610187610b51565b6040518082815260200191505060405180910390f35b3480156101a957600080fd5b506101b2610b57565b005b3480156101c057600080fd5b506101ff600480360381019080803573ffffffffffffffffffffffffffffffffffffffff16906020019092919080359060200190929190505050610c7a565b6040518082815260200191505060405180910390f35b34801561022157600080fd5b5061022a610d12565b604051808273ffffffffffffffffffffffffffffffffffffffff1673ffffffffffffffffffffffffffffffffffffffff16815260200191505060405180910390f35b34801561027857600080fd5b50610281610d3b565b604051808215151515815260200191505060405180910390f35b3480156102a757600080fd5b506102c660048036038101908080359060200190929190505050610d92565b604051808273ffffffffffffffffffffffffffffffffffffffff1673ffffffffffffffffffffffffffffffffffffffff16815260200191505060405180910390f35b34801561031457600080fd5b5061031d610dd0565b6040518082815260200191505060405180910390f35b34801561033f57600080fd5b50610388600480360381019080803573ffffffffffffffffffffffffffffffffffffffff1690602001909291908035906020019092919080359060200190929190505050610dd6565b005b34801561039657600080fd5b506103cb600480360381019080803573ffffffffffffffffffffffffffffffffffffffff1690602001909291905050506112b8565b60405180848152602001838152602001828152602001935050505060405180910390f35b3480156103fb57600080fd5b506104046112e2565b6040518082815260200191505060405180910390f35b34801561042657600080fd5b5061044f60048036038101908080359060200190929190803590602001909291905050506112e8565b005b34801561045d57600080fd5b506104666114bd565b604051808215151515815260200191505060405180910390f35b34801561048c57600080fd5b506104956114d0565b6040518082815260200191505060405180910390f35b3480156104b757600080fd5b506104ec600480360381019080803573ffffffffffffffffffffffffffffffffffffffff1690602001909291905050506114d6565b005b3480156104fa57600080fd5b5061050361155e565b604051808273ffffffffffffffffffffffffffffffffffffffff1673ffffffffffffffffffffffffffffffffffffffff16815260200191505060405180910390f35b6001600760006101000a81548160ff021916908315150217905550565b6000806000600260003373ffffffffffffffffffffffffffffffffffffffff1673ffffffffffffffffffffffffffffffffffffffff168152602001908152602001600020925060008360000154111515610624576040517f08c379a00000000000000000000000000000000000000000000000000000000081526004018080602001828103825260148152602001807f4772616e7420646f6573206e6f7420657869737400000000000000000000000081525060200191505060405180910390fd5b6106588360606040519081016040529081600082015481526020016001820154815260200160028201548152505042611584565b91506000821115156106d2576040517f08c379a00000000000000000000000000000000000000000000000000000000081526004018080602001828103825260198152602001807f5468657265206973206e6f2076657374656420746f6b656e730000000000000081525060200191505060405180910390fd5b6106e0828460020154611638565b9050600081111515610780576040517f08c379a000000000000000000000000000000000000000000000000000000000815260040180806020018281038252602e8152602001807f5468657265206973206e6f2072656d61696e696e672062616c616e636520666f81526020017f722074686973206164647265737300000000000000000000000000000000000081525060400191505060405180910390fd5b61078e836002015482611651565b83600201819055506107a260065482611638565b600681905550600160009054906101000a900473ffffffffffffffffffffffffffffffffffffffff1673ffffffffffffffffffffffffffffffffffffffff1663a9059cbb33836040518363ffffffff167c0100000000000000000000000000000000000000000000000000000000028152600401808373ffffffffffffffffffffffffffffffffffffffff1673ffffffffffffffffffffffffffffffffffffffff16815260200182815260200192505050602060405180830381600087803b15801561086d57600080fd5b505af1158015610881573d6000803e3d6000fd5b505050506040513d602081101561089757600080fd5b8101908080519060200190929190505050507f38e785014e96127623de427316eafb50c37603b38f89ee19e2148b04894a3d963382604051808373ffffffffffffffffffffffffffffffffffffffff1673ffffffffffffffffffffffffffffffffffffffff1681526020018281526020019250505060405180910390a1505050565b6000600160009054906101000a900473ffffffffffffffffffffffffffffffffffffffff1673ffffffffffffffffffffffffffffffffffffffff166370a08231306040518263ffffffff167c0100000000000000000000000000000000000000000000000000000000028152600401808273ffffffffffffffffffffffffffffffffffffffff1673ffffffffffffffffffffffffffffffffffffffff168152602001915050602060405180830381600087803b1580156109d857600080fd5b505af11580156109ec573d6000803e3d6000fd5b505050506040513d6020811015610a0257600080fd5b81019080805190602001909291905050509050600160009054906101000a900473ffffffffffffffffffffffffffffffffffffffff1673ffffffffffffffffffffffffffffffffffffffff1663a9059cbb83836040518363ffffffff167c0100000000000000000000000000000000000000000000000000000000028152600401808373ffffffffffffffffffffffffffffffffffffffff1673ffffffffffffffffffffffffffffffffffffffff16815260200182815260200192505050602060405180830381600087803b158015610ada57600080fd5b505af1158015610aee573d6000803e3d6000fd5b505050506040513d6020811015610b0457600080fd5b8101908080519060200190929190505050507f3d5a341dc6a12221fcf31279cef3771f8fad757b2d9261f97605ccc17c257424816040518082815260200191505060405180910390a15050565b60065481565b610b5f610d3b565b1515610bd3576040517f08c379a00000000000000000000000000000000000000000000000000000000081526004018080602001828103825260098152602001807f4e6f74206f776e6572000000000000000000000000000000000000000000000081525060200191505060405180910390fd5b6000809054906101000a900473ffffffffffffffffffffffffffffffffffffffff1673ffffffffffffffffffffffffffffffffffffffff167ff8df31144d9c2f0f6b59d69b8b98abd5459d07f2742c4df920b25aae33c6482060405160405180910390a260008060006101000a81548173ffffffffffffffffffffffffffffffffffffffff021916908373ffffffffffffffffffffffffffffffffffffffff160217905550565b600080600260008573ffffffffffffffffffffffffffffffffffffffff1673ffffffffffffffffffffffffffffffffffffffff1681526020019081526020016000209050600081600001541415610cd45760009150610d0b565b610d088160606040519081016040529081600082015481526020016001820154815260200160028201548152505084611584565b91505b5092915050565b60008060009054906101000a900473ffffffffffffffffffffffffffffffffffffffff16905090565b60008060009054906101000a900473ffffffffffffffffffffffffffffffffffffffff1673ffffffffffffffffffffffffffffffffffffffff163373ffffffffffffffffffffffffffffffffffffffff1614905090565b600881815481101515610da157fe5b906000526020600020016000915054906101000a900473ffffffffffffffffffffffffffffffffffffffff1681565b60055481565b610dde610d3b565b1515610e52576040517f08c379a00000000000000000000000000000000000000000000000000000000081526004018080602001828103825260098152602001807f4e6f74206f776e6572000000000000000000000000000000000000000000000081525060200191505060405180910390fd5b60001515600760009054906101000a900460ff161515141515610edd576040517f08c379a00000000000000000000000000000000000000000000000000000000081526004018080602001828103825260178152602001807f5661756c7420697320616c7265616479206c6f636b656400000000000000000081525060200191505060405180910390fd5b600073ffffffffffffffffffffffffffffffffffffffff168373ffffffffffffffffffffffffffffffffffffffff1614151515610f82576040517f08c379a000000000000000000000000000000000000000000000000000000000815260040180806020018281038252601a8152602001807f416464726573732073686f756c64206e6f74206265207a65726f00000000000081525060200191505060405180910390fd5b600082111515611020576040517f08c379a00000000000000000000000000000000000000000000000000000000081526004018080602001828103825260298152602001807f56657374656420616d6f756e742073686f756c6420626520677265617465722081526020017f7468616e207a65726f000000000000000000000000000000000000000000000081525060400191505060405180910390fd5b60008114151515611099576040517f08c379a00000000000000000000000000000000000000000000000000000000081526004018080602001828103825260158152602001807f496e76616c69642076657374696e67206c6576656c000000000000000000000081525060200191505060405180910390fd5b6000600260008573ffffffffffffffffffffffffffffffffffffffff1673ffffffffffffffffffffffffffffffffffffffff16815260200190815260200160002060000154141515611153576040517f08c379a000000000000000000000000000000000000000000000000000000000815260040180806020018281038252601e8152602001807f416c726561647920616464656420746f2076657374696e67207661756c74000081525060200191505060405180910390fd5b6060604051908101604052808381526020018281526020016000815250600260008573ffffffffffffffffffffffffffffffffffffffff1673ffffffffffffffffffffffffffffffffffffffff16815260200190815260200160002060008201518160000155602082015181600101556040820151816002015590505060088390806001815401808255809150509060018203906000526020600020016000909192909190916101000a81548173ffffffffffffffffffffffffffffffffffffffff021916908373ffffffffffffffffffffffffffffffffffffffff160217905550507f9f808b48aa49d6354341cec305ba80825f6548f485ac497629c213c699e0b4568383604051808373ffffffffffffffffffffffffffffffffffffffff1673ffffffffffffffffffffffffffffffffffffffff1681526020018281526020019250505060405180910390a16112ad60065483611651565b600681905550505050565b60026020528060005260406000206000915090508060000154908060010154908060020154905083565b60035481565b6112f0610d3b565b1515611364576040517f08c379a00000000000000000000000000000000000000000000000000000000081526004018080602001828103825260098152602001807f4e6f74206f776e6572000000000000000000000000000000000000000000000081525060200191505060405180910390fd5b60001515600760009054906101000a900460ff1615151415156113ef576040517f08c379a00000000000000000000000000000000000000000000000000000000081526004018080602001828103825260178152602001807f5661756c7420697320616c7265616479206c6f636b656400000000000000000081525060200191505060405180910390fd5b4282111515611466576040517f08c379a000000000000000000000000000000000000000000000000000000000815260040180806020018281038252601a8152602001807f53746172742074696d652073686f756c642062652076616c696400000000000081525060200191505060405180910390fd5b816003819055508060058190555060055460020282016004819055507f85715036950e30029d114e21984a1aa2cd393ecc31dc2c822b50716e61b3c52f826040518082815260200191505060405180910390a15050565b600760009054906101000a900460ff1681565b60045481565b6114de610d3b565b1515611552576040517f08c379a00000000000000000000000000000000000000000000000000000000081526004018080602001828103825260098152602001807f4e6f74206f776e6572000000000000000000000000000000000000000000000081525060200191505060405180910390fd5b61155b8161167b565b50565b600160009054906101000a900473ffffffffffffffffffffffffffffffffffffffff1681565b60008160055460035401111561159d5760009050611632565b8160045410156115b35782600001519050611632565b8160055460035401111580156115d157506005546002026003540182105b1561163157600183602001511415611603576115fc6115f5846000015160146117de565b6064611811565b9050611632565b60028360200151141561163057611629611622846000015160216117de565b6064611811565b9050611632565b5b5b92915050565b600082821115151561164657fe5b818303905092915050565b60008082840190508381101580156116695750828110155b151561167157fe5b8091505092915050565b600073ffffffffffffffffffffffffffffffffffffffff168173ffffffffffffffffffffffffffffffffffffffff1614151515611720576040517f08c379a00000000000000000000000000000000000000000000000000000000081526004018080602001828103825260168152602001807f4e6577206f776e6572206164647265737320697320300000000000000000000081525060200191505060405180910390fd5b8073ffffffffffffffffffffffffffffffffffffffff166000809054906101000a900473ffffffffffffffffffffffffffffffffffffffff1673ffffffffffffffffffffffffffffffffffffffff167f8be0079c531659141344cd1fd0a4f28419497f9722a3daafe3b4186f6b6457e060405160405180910390a3806000806101000a81548173ffffffffffffffffffffffffffffffffffffffff021916908373ffffffffffffffffffffffffffffffffffffffff16021790555050565b600080828402905060008414806117ff57508284828115156117fc57fe5b04145b151561180757fe5b8091505092915050565b60008060008311151561182057fe5b828481151561182b57fe5b049050828481151561183957fe5b06818402018414151561184857fe5b80915050929150505600a165627a7a72305820dfa82d3be7b9f0d6d5e7a93e10eb920a1526d0c89e3b2f6b3933bc670e5817c90029",
  "source": "pragma solidity ^0.4.19;\n\nimport \"./CrowdsaleTokenExt.sol\";\n\n/**\n* @title VestingVault Contract that will hold vested tokens\n* @notice Tokens for vested contributors will be hold in this contract and administrator will release after business days\n*/\ncontract TokenVesting is Ownable, SafeMath {\n\n  struct Grant {\n    uint value;       // vested amount\n    uint level;       // 0.03 tier or 0.05 tier of their price\n    uint transferred; // transferred amount\n  }\n\n  CrowdsaleTokenExt public token;\n\n  mapping (address => Grant) public grants;\n\n  uint public start;\n  uint public end;\n  uint public slide;\n  uint public totalVestedTokens;\n  bool public locked;\n\n  // array of vested users addresses\n  address[] public vestedAddresses;\n\n  event StartVesting(uint256 _time);\n  event NewGrant(address _holder, uint _amount);\n  event NewRelease(address _holder, uint _amount);\n  event WithdrawAll(uint _amount);\n  event LockedVault(address _address);\n\n  modifier isOpen() {\n    require(locked == false, \"Vault is already locked\");\n    _;\n  }\n\n  constructor (CrowdsaleTokenExt _token) public {\n    require(address(_token) != 0, \"Token address should not be zero\");\n\n    token = _token;\n    locked = false;\n  }\n\n  /**\n   * @dev Function to set vesting start time\n   * @param _start epoch time that vesting starts from\n   @ @param _slide seconds amound of vesting slide\n   */\n  function startVesting(uint256 _start, uint256 _slide) public onlyOwner isOpen {\n    require(_start > now, \"Start time should be valid\");\n    start = _start;\n    slide = _slide;\n    end = _start + 2 * slide;\n\n    emit StartVesting(_start);\n  }\n\n  /**\n   * @dev Add vested contributor information\n   * @param _to Withdraw address that tokens will be sent\n   * @param _value Amount to hold for vesting period\n   * @param _level Indicator that will represent vesting level for 0.03 and 0.05 eur tier; has 1 or 2\n   */\n  function grant(address _to, uint _value, uint _level) external onlyOwner isOpen {\n    require(_to != address(0), \"Address should not be zero\");\n    require(_value > 0, \"Vested amount should be greater than zero\");\n    require(_level != 0, \"Invalid vesting level\");\n\n    // make sure a single address can be granted tokens only once.\n    require(grants[_to].value == 0, \"Already added to vesting vault\");\n\n    grants[_to] = Grant({\n      value: _value,\n      level: _level,\n      transferred: 0\n      });\n\n    vestedAddresses.push(_to);\n\n    emit NewGrant(_to, _value);\n    totalVestedTokens = safeAdd(totalVestedTokens, _value);\n  }\n\n  /**\n   * @dev Get token amount for a token holder available to transfer at specific time\n   * @param _holder Address that represents holders withdraw address\n   * @param _time Time at the moment\n   * @return Int value that represents token amount that is available to release at the moment\n   */\n  function transferableTokens(address _holder, uint256 _time) public view returns (uint256) {\n    Grant storage grantInfo = grants[_holder];\n\n    if (grantInfo.value == 0) {\n      return 0;\n    }\n\n    return calculateTransferableTokens(grantInfo, _time);\n  }\n\n  /**\n   * @dev Internal function to calculate available amount at specific time\n   */\n  function calculateTransferableTokens(Grant _grant, uint256 _time) private view returns (uint256) {\n    // before cliff date (first vesting slide)\n    if (start + slide > _time) {\n      return 0;\n    }\n\n    // after vesting period ends\n    if (end < _time) {\n      return _grant.value;\n    }\n\n    if ((start + slide <= _time) && (_time < start + 2 * slide)) {\n      if (_grant.level == 1) {\n        // 20% of tokens will be available after 1 slide for contributors purchased at price 0.03 eur\n        return safeDiv(safeMul(_grant.value, 20), 100);\n      } else if (_grant.level == 2) {\n        // 33% of tokens will be available after 1 slide for contributors purchased at price 0.05 eur\n        return safeDiv(safeMul(_grant.value, 33), 100);\n      }\n    }\n  }\n\n  /**\n   * @dev Claim vested token\n   * @notice this will be eligible after first 90 days and after next 180 days\n   */\n  function claim() public {\n    Grant storage grantInfo = grants[msg.sender];\n    require(grantInfo.value > 0, \"Grant does not exist\");\n\n    uint256 vested = calculateTransferableTokens(grantInfo, now);\n    require(vested > 0, \"There is no vested tokens\");\n\n    uint256 transferable = safeSub(vested, grantInfo.transferred);\n    require(transferable > 0, \"There is no remaining balance for this address\");\n\n    grantInfo.transferred = safeAdd(grantInfo.transferred, transferable);\n    totalVestedTokens = safeSub(totalVestedTokens, transferable);\n\n    token.transfer(msg.sender, transferable);\n\n    emit NewRelease(msg.sender, transferable);\n  }\n\n  /**\n   * @dev Function to release tokens for team\n   */\n  function withdraw(address teamWallet) public {\n    uint amount = token.balanceOf(address(this));\n    token.transfer(teamWallet, amount);\n\n    emit WithdrawAll(amount);\n  }\n\n  /**\n   * @dev Function to lock vault not to be able to alloc more\n   */\n  function lockVault() public {\n    locked = true;\n  }\n}",
  "sourcePath": "/Volumes/Workspace/Ongoing/Morpheus_Labs/wizard/ico-as-service/contracts/TokenVesting.sol",
  "compiler": {
    "name": "solc",
    "version": "0.4.24+commit.e67f0147.Emscripten.clang"
  },
  "schemaVersion": "2.0.1",
  "updatedAt": "2018-10-09T12:25:08.059Z"
}