{
  "contractName": "CrowdsaleExt",
  "abi": [
    {
      "constant": true,
      "inputs": [],
      "name": "ownerTestValue",
      "outputs": [
        {
          "name": "",
          "type": "uint256"
        }
      ],
      "payable": false,
      "stateMutability": "view",
      "type": "function"
    },
    {
      "constant": true,
      "inputs": [],
      "name": "name",
      "outputs": [
        {
          "name": "",
          "type": "string"
        }
      ],
      "payable": false,
      "stateMutability": "view",
      "type": "function"
    },
    {
      "constant": true,
      "inputs": [],
      "name": "endsAt",
      "outputs": [
        {
          "name": "",
          "type": "uint256"
        }
      ],
      "payable": false,
      "stateMutability": "view",
      "type": "function"
    },
    {
      "constant": true,
      "inputs": [],
      "name": "minimumFundingGoal",
      "outputs": [
        {
          "name": "",
          "type": "uint256"
        }
      ],
      "payable": false,
      "stateMutability": "view",
      "type": "function"
    },
    {
      "constant": true,
      "inputs": [
        {
          "name": "",
          "type": "address"
        }
      ],
      "name": "investedAmountOf",
      "outputs": [
        {
          "name": "",
          "type": "uint256"
        }
      ],
      "payable": false,
      "stateMutability": "view",
      "type": "function"
    },
    {
      "constant": true,
      "inputs": [],
      "name": "finalizeAgent",
      "outputs": [
        {
          "name": "",
          "type": "address"
        }
      ],
      "payable": false,
      "stateMutability": "view",
      "type": "function"
    },
    {
      "constant": true,
      "inputs": [],
      "name": "weiRaised",
      "outputs": [
        {
          "name": "",
          "type": "uint256"
        }
      ],
      "payable": false,
      "stateMutability": "view",
      "type": "function"
    },
    {
      "constant": true,
      "inputs": [],
      "name": "tokensSold",
      "outputs": [
        {
          "name": "",
          "type": "uint256"
        }
      ],
      "payable": false,
      "stateMutability": "view",
      "type": "function"
    },
    {
      "constant": false,
      "inputs": [],
      "name": "halt",
      "outputs": [],
      "payable": false,
      "stateMutability": "nonpayable",
      "type": "function"
    },
    {
      "constant": true,
      "inputs": [],
      "name": "MAX_INVESTMENTS_BEFORE_MULTISIG_CHANGE",
      "outputs": [
        {
          "name": "",
          "type": "uint256"
        }
      ],
      "payable": false,
      "stateMutability": "view",
      "type": "function"
    },
    {
      "constant": false,
      "inputs": [],
      "name": "renounceOwnership",
      "outputs": [],
      "payable": false,
      "stateMutability": "nonpayable",
      "type": "function"
    },
    {
      "constant": true,
      "inputs": [],
      "name": "pricingStrategy",
      "outputs": [
        {
          "name": "",
          "type": "address"
        }
      ],
      "payable": false,
      "stateMutability": "view",
      "type": "function"
    },
    {
      "constant": true,
      "inputs": [],
      "name": "joinedCrowdsalesLenMax",
      "outputs": [
        {
          "name": "",
          "type": "uint8"
        }
      ],
      "payable": false,
      "stateMutability": "view",
      "type": "function"
    },
    {
      "constant": true,
      "inputs": [],
      "name": "owner",
      "outputs": [
        {
          "name": "",
          "type": "address"
        }
      ],
      "payable": false,
      "stateMutability": "view",
      "type": "function"
    },
    {
      "constant": true,
      "inputs": [],
      "name": "isOwner",
      "outputs": [
        {
          "name": "",
          "type": "bool"
        }
      ],
      "payable": false,
      "stateMutability": "view",
      "type": "function"
    },
    {
      "constant": true,
      "inputs": [],
      "name": "multisigWallet",
      "outputs": [
        {
          "name": "",
          "type": "address"
        }
      ],
      "payable": false,
      "stateMutability": "view",
      "type": "function"
    },
    {
      "constant": true,
      "inputs": [
        {
          "name": "",
          "type": "address"
        }
      ],
      "name": "tokenAmountOf",
      "outputs": [
        {
          "name": "",
          "type": "uint256"
        }
      ],
      "payable": false,
      "stateMutability": "view",
      "type": "function"
    },
    {
      "constant": true,
      "inputs": [],
      "name": "isParamSet",
      "outputs": [
        {
          "name": "",
          "type": "bool"
        }
      ],
      "payable": false,
      "stateMutability": "view",
      "type": "function"
    },
    {
      "constant": true,
      "inputs": [],
      "name": "startsAt",
      "outputs": [
        {
          "name": "",
          "type": "uint256"
        }
      ],
      "payable": false,
      "stateMutability": "view",
      "type": "function"
    },
    {
      "constant": true,
      "inputs": [],
      "name": "finalized",
      "outputs": [
        {
          "name": "",
          "type": "bool"
        }
      ],
      "payable": false,
      "stateMutability": "view",
      "type": "function"
    },
    {
      "constant": true,
      "inputs": [],
      "name": "halted",
      "outputs": [
        {
          "name": "",
          "type": "bool"
        }
      ],
      "payable": false,
      "stateMutability": "view",
      "type": "function"
    },
    {
      "constant": true,
      "inputs": [
        {
          "name": "",
          "type": "uint256"
        }
      ],
      "name": "joinedCrowdsales",
      "outputs": [
        {
          "name": "",
          "type": "address"
        }
      ],
      "payable": false,
      "stateMutability": "view",
      "type": "function"
    },
    {
      "constant": true,
      "inputs": [
        {
          "name": "",
          "type": "address"
        }
      ],
      "name": "earlyParticipantWhitelist",
      "outputs": [
        {
          "name": "status",
          "type": "bool"
        },
        {
          "name": "minCap",
          "type": "uint256"
        },
        {
          "name": "maxCap",
          "type": "uint256"
        }
      ],
      "payable": false,
      "stateMutability": "view",
      "type": "function"
    },
    {
      "constant": false,
      "inputs": [],
      "name": "unhalt",
      "outputs": [],
      "payable": false,
      "stateMutability": "nonpayable",
      "type": "function"
    },
    {
      "constant": true,
      "inputs": [],
      "name": "investorCount",
      "outputs": [
        {
          "name": "",
          "type": "uint256"
        }
      ],
      "payable": false,
      "stateMutability": "view",
      "type": "function"
    },
    {
      "constant": true,
      "inputs": [
        {
          "name": "",
          "type": "uint256"
        }
      ],
      "name": "whitelistedParticipants",
      "outputs": [
        {
          "name": "",
          "type": "address"
        }
      ],
      "payable": false,
      "stateMutability": "view",
      "type": "function"
    },
    {
      "constant": true,
      "inputs": [],
      "name": "joinedCrowdsalesLen",
      "outputs": [
        {
          "name": "",
          "type": "uint8"
        }
      ],
      "payable": false,
      "stateMutability": "view",
      "type": "function"
    },
    {
      "constant": true,
      "inputs": [],
      "name": "isWhiteListed",
      "outputs": [
        {
          "name": "",
          "type": "bool"
        }
      ],
      "payable": false,
      "stateMutability": "view",
      "type": "function"
    },
    {
      "constant": false,
      "inputs": [
        {
          "name": "newOwner",
          "type": "address"
        }
      ],
      "name": "transferOwnership",
      "outputs": [],
      "payable": false,
      "stateMutability": "nonpayable",
      "type": "function"
    },
    {
      "constant": true,
      "inputs": [],
      "name": "token",
      "outputs": [
        {
          "name": "",
          "type": "address"
        }
      ],
      "payable": false,
      "stateMutability": "view",
      "type": "function"
    },
    {
      "inputs": [],
      "payable": false,
      "stateMutability": "nonpayable",
      "type": "constructor"
    },
    {
      "payable": true,
      "stateMutability": "payable",
      "type": "fallback"
    },
    {
      "anonymous": false,
      "inputs": [
        {
          "indexed": false,
          "name": "investor",
          "type": "address"
        },
        {
          "indexed": false,
          "name": "weiAmount",
          "type": "uint256"
        },
        {
          "indexed": false,
          "name": "tokenAmount",
          "type": "uint256"
        },
        {
          "indexed": false,
          "name": "customerId",
          "type": "uint128"
        }
      ],
      "name": "Invested",
      "type": "event"
    },
    {
      "anonymous": false,
      "inputs": [
        {
          "indexed": false,
          "name": "addr",
          "type": "address"
        },
        {
          "indexed": false,
          "name": "status",
          "type": "bool"
        },
        {
          "indexed": false,
          "name": "minCap",
          "type": "uint256"
        },
        {
          "indexed": false,
          "name": "maxCap",
          "type": "uint256"
        }
      ],
      "name": "Whitelisted",
      "type": "event"
    },
    {
      "anonymous": false,
      "inputs": [
        {
          "indexed": false,
          "name": "addr",
          "type": "address"
        },
        {
          "indexed": false,
          "name": "status",
          "type": "bool"
        },
        {
          "indexed": false,
          "name": "minCap",
          "type": "uint256"
        },
        {
          "indexed": false,
          "name": "maxCap",
          "type": "uint256"
        }
      ],
      "name": "WhitelistItemChanged",
      "type": "event"
    },
    {
      "anonymous": false,
      "inputs": [
        {
          "indexed": false,
          "name": "newStartsAt",
          "type": "uint256"
        }
      ],
      "name": "StartsAtChanged",
      "type": "event"
    },
    {
      "anonymous": false,
      "inputs": [
        {
          "indexed": false,
          "name": "newEndsAt",
          "type": "uint256"
        }
      ],
      "name": "EndsAtChanged",
      "type": "event"
    },
    {
      "anonymous": false,
      "inputs": [
        {
          "indexed": true,
          "name": "previousOwner",
          "type": "address"
        }
      ],
      "name": "OwnershipRenounced",
      "type": "event"
    },
    {
      "anonymous": false,
      "inputs": [
        {
          "indexed": true,
          "name": "previousOwner",
          "type": "address"
        },
        {
          "indexed": true,
          "name": "newOwner",
          "type": "address"
        }
      ],
      "name": "OwnershipTransferred",
      "type": "event"
    },
    {
      "constant": false,
      "inputs": [
        {
          "name": "addr",
          "type": "address"
        }
      ],
      "name": "invest",
      "outputs": [],
      "payable": true,
      "stateMutability": "payable",
      "type": "function"
    },
    {
      "constant": false,
      "inputs": [],
      "name": "buy",
      "outputs": [],
      "payable": true,
      "stateMutability": "payable",
      "type": "function"
    },
    {
      "constant": false,
      "inputs": [
        {
          "name": "reservedTokensDistributionBatch",
          "type": "uint256"
        }
      ],
      "name": "distributeReservedTokens",
      "outputs": [],
      "payable": false,
      "stateMutability": "nonpayable",
      "type": "function"
    },
    {
      "constant": true,
      "inputs": [],
      "name": "areReservedTokensDistributed",
      "outputs": [
        {
          "name": "",
          "type": "bool"
        }
      ],
      "payable": false,
      "stateMutability": "view",
      "type": "function"
    },
    {
      "constant": true,
      "inputs": [],
      "name": "canDistributeReservedTokens",
      "outputs": [
        {
          "name": "",
          "type": "bool"
        }
      ],
      "payable": false,
      "stateMutability": "view",
      "type": "function"
    },
    {
      "constant": false,
      "inputs": [],
      "name": "finalize",
      "outputs": [],
      "payable": false,
      "stateMutability": "nonpayable",
      "type": "function"
    },
    {
      "constant": false,
      "inputs": [
        {
          "name": "addr",
          "type": "address"
        }
      ],
      "name": "setFinalizeAgent",
      "outputs": [],
      "payable": false,
      "stateMutability": "nonpayable",
      "type": "function"
    },
    {
      "constant": false,
      "inputs": [
        {
          "name": "addr",
          "type": "address"
        },
        {
          "name": "status",
          "type": "bool"
        },
        {
          "name": "minCap",
          "type": "uint256"
        },
        {
          "name": "maxCap",
          "type": "uint256"
        }
      ],
      "name": "setEarlyParticipantWhitelist",
      "outputs": [],
      "payable": false,
      "stateMutability": "nonpayable",
      "type": "function"
    },
    {
      "constant": false,
      "inputs": [
        {
          "name": "addrs",
          "type": "address[]"
        },
        {
          "name": "statuses",
          "type": "bool[]"
        },
        {
          "name": "minCaps",
          "type": "uint256[]"
        },
        {
          "name": "maxCaps",
          "type": "uint256[]"
        }
      ],
      "name": "setEarlyParticipantWhitelistMultiple",
      "outputs": [],
      "payable": false,
      "stateMutability": "nonpayable",
      "type": "function"
    },
    {
      "constant": false,
      "inputs": [
        {
          "name": "addr",
          "type": "address"
        },
        {
          "name": "tokensBought",
          "type": "uint256"
        }
      ],
      "name": "updateEarlyParticipantWhitelist",
      "outputs": [],
      "payable": false,
      "stateMutability": "nonpayable",
      "type": "function"
    },
    {
      "constant": true,
      "inputs": [
        {
          "name": "addr",
          "type": "address"
        }
      ],
      "name": "isAddressWhitelisted",
      "outputs": [
        {
          "name": "",
          "type": "bool"
        }
      ],
      "payable": false,
      "stateMutability": "view",
      "type": "function"
    },
    {
      "constant": true,
      "inputs": [],
      "name": "whitelistedParticipantsLength",
      "outputs": [
        {
          "name": "",
          "type": "uint256"
        }
      ],
      "payable": false,
      "stateMutability": "view",
      "type": "function"
    },
    {
      "constant": true,
      "inputs": [
        {
          "name": "addr",
          "type": "address"
        }
      ],
      "name": "isTierJoined",
      "outputs": [
        {
          "name": "",
          "type": "bool"
        }
      ],
      "payable": false,
      "stateMutability": "view",
      "type": "function"
    },
    {
      "constant": true,
      "inputs": [
        {
          "name": "addr",
          "type": "address"
        }
      ],
      "name": "getTierPosition",
      "outputs": [
        {
          "name": "",
          "type": "uint8"
        }
      ],
      "payable": false,
      "stateMutability": "view",
      "type": "function"
    },
    {
      "constant": true,
      "inputs": [],
      "name": "getLastTier",
      "outputs": [
        {
          "name": "",
          "type": "address"
        }
      ],
      "payable": false,
      "stateMutability": "view",
      "type": "function"
    },
    {
      "constant": false,
      "inputs": [
        {
          "name": "addrs",
          "type": "address[]"
        }
      ],
      "name": "updateJoinedCrowdsalesMultiple",
      "outputs": [],
      "payable": false,
      "stateMutability": "nonpayable",
      "type": "function"
    },
    {
      "constant": false,
      "inputs": [
        {
          "name": "time",
          "type": "uint256"
        }
      ],
      "name": "setStartsAt",
      "outputs": [],
      "payable": false,
      "stateMutability": "nonpayable",
      "type": "function"
    },
    {
      "constant": false,
      "inputs": [
        {
          "name": "time",
          "type": "uint256"
        }
      ],
      "name": "setEndsAt",
      "outputs": [],
      "payable": false,
      "stateMutability": "nonpayable",
      "type": "function"
    },
    {
      "constant": false,
      "inputs": [
        {
          "name": "_pricingStrategy",
          "type": "address"
        }
      ],
      "name": "setPricingStrategy",
      "outputs": [],
      "payable": false,
      "stateMutability": "nonpayable",
      "type": "function"
    },
    {
      "constant": false,
      "inputs": [
        {
          "name": "addr",
          "type": "address"
        }
      ],
      "name": "setMultisig",
      "outputs": [],
      "payable": false,
      "stateMutability": "nonpayable",
      "type": "function"
    },
    {
      "constant": true,
      "inputs": [],
      "name": "isMinimumGoalReached",
      "outputs": [
        {
          "name": "reached",
          "type": "bool"
        }
      ],
      "payable": false,
      "stateMutability": "view",
      "type": "function"
    },
    {
      "constant": true,
      "inputs": [],
      "name": "isFinalizerSane",
      "outputs": [
        {
          "name": "sane",
          "type": "bool"
        }
      ],
      "payable": false,
      "stateMutability": "view",
      "type": "function"
    },
    {
      "constant": true,
      "inputs": [],
      "name": "isPricingSane",
      "outputs": [
        {
          "name": "sane",
          "type": "bool"
        }
      ],
      "payable": false,
      "stateMutability": "view",
      "type": "function"
    },
    {
      "constant": true,
      "inputs": [],
      "name": "getState",
      "outputs": [
        {
          "name": "",
          "type": "uint8"
        }
      ],
      "payable": false,
      "stateMutability": "view",
      "type": "function"
    },
    {
      "constant": true,
      "inputs": [],
      "name": "isCrowdsale",
      "outputs": [
        {
          "name": "",
          "type": "bool"
        }
      ],
      "payable": false,
      "stateMutability": "view",
      "type": "function"
    },
    {
      "constant": true,
      "inputs": [
        {
          "name": "weiAmount",
          "type": "uint256"
        },
        {
          "name": "tokenAmount",
          "type": "uint256"
        },
        {
          "name": "weiRaisedTotal",
          "type": "uint256"
        },
        {
          "name": "tokensSoldTotal",
          "type": "uint256"
        }
      ],
      "name": "isBreakingCap",
      "outputs": [
        {
          "name": "limitBroken",
          "type": "bool"
        }
      ],
      "payable": false,
      "stateMutability": "view",
      "type": "function"
    },
    {
      "constant": true,
      "inputs": [
        {
          "name": "receiver",
          "type": "address"
        },
        {
          "name": "tokenAmount",
          "type": "uint256"
        }
      ],
      "name": "isBreakingInvestorCap",
      "outputs": [
        {
          "name": "limitBroken",
          "type": "bool"
        }
      ],
      "payable": false,
      "stateMutability": "view",
      "type": "function"
    },
    {
      "constant": true,
      "inputs": [],
      "name": "isCrowdsaleFull",
      "outputs": [
        {
          "name": "",
          "type": "bool"
        }
      ],
      "payable": false,
      "stateMutability": "view",
      "type": "function"
    }
  ],
  "bytecode": "0x608060405260008060146101000a81548160ff02191690831515021790555060056001556000600a556000600b556000600c556000600f60006101000a81548160ff021916908360ff1602179055506032600f60016101000a81548160ff021916908360ff16021790555034801561007657600080fd5b50336000806101000a81548173ffffffffffffffffffffffffffffffffffffffff021916908373ffffffffffffffffffffffffffffffffffffffff160217905550614607806100c66000396000f3006080604052600436106102b4576000357c0100000000000000000000000000000000000000000000000000000000900463ffffffff1680630226401d146102b957806303f9c793146102e4578063045b1a0c1461031a57806304fc7c6d1461037f578063062b01ce146103e557806306fdde03146104145780630a09284a146104a457806313f44d10146104cf57806313f4e9771461052a5780631865c57d1461055557806319b667da1461058e5780631a98d0de146105d15780631aae3460146105fc57806321d5c0f614610653578063253ebd92146106aa57806325e0671f146107055780634042b66f146107345780634551dd591461075f5780634bb278f31461078e57806350c67734146107a5578063518ab2a8146107e85780635ed7ca5b146108135780636203f09f1461082a5780636e50eb3f14610855578063715018a61461088257806378b99c24146108995780637c2e08a3146108f05780638507bee81461091f578063895594f6146109505780638da5cb5b146109b35780638f32d59b14610a0a5780639075becf14610a3957806397b150ca14610a905780639981954114610ae75780639d3c663f14610b16578063a6f2ae3a14610b79578063a7ba44c314610b83578063af46868214610bb2578063af58574a14610bdd578063b1cb574b14610c3a578063b3f05b9714610d69578063b9b8af0b14610d98578063bd71933614610dc7578063bede2cac14610df6578063bf5fc2ee14610e63578063c12eb19114610e90578063c24becf314610edd578063cb16e6d014610f34578063cb3e64fd14610f9d578063cddaf24114610fb4578063d5d0902114610fe1578063d7e64c0014611010578063e6d04d5e1461103b578063ebdfa455146110a8578063ef674e66146110d9578063f2fde38b14611108578063f3283fba1461114b578063fc0c546a1461118e575b600080fd5b3480156102c557600080fd5b506102ce6111e5565b6040518082815260200191505060405180910390f35b610318600480360381019080803573ffffffffffffffffffffffffffffffffffffffff1690602001909291905050506111eb565b005b34801561032657600080fd5b50610365600480360381019080803573ffffffffffffffffffffffffffffffffffffffff169060200190929190803590602001909291905050506111f9565b604051808215151515815260200191505060405180910390f35b34801561038b57600080fd5b506103e360048036038101908080359060200190820180359060200190808060200260200160405190810160405280939291908181526020018383602002808284378201915050505050509192919290505050611201565b005b3480156103f157600080fd5b506103fa61130e565b604051808215151515815260200191505060405180910390f35b34801561042057600080fd5b5061042961140d565b6040518080602001828103825283818151815260200191508051906020019080838360005b8381101561046957808201518184015260208101905061044e565b50505050905090810190601f1680156104965780820380516001836020036101000a031916815260200191505b509250505060405180910390f35b3480156104b057600080fd5b506104b96114ab565b6040518082815260200191505060405180910390f35b3480156104db57600080fd5b50610510600480360381019080803573ffffffffffffffffffffffffffffffffffffffff1690602001909291905050506114b1565b604051808215151515815260200191505060405180910390f35b34801561053657600080fd5b5061053f611554565b6040518082815260200191505060405180910390f35b34801561056157600080fd5b5061056a61155a565b6040518082600681111561057a57fe5b60ff16815260200191505060405180910390f35b34801561059a57600080fd5b506105cf600480360381019080803573ffffffffffffffffffffffffffffffffffffffff1690602001909291905050506117f1565b005b3480156105dd57600080fd5b506105e6611a10565b6040518082815260200191505060405180910390f35b34801561060857600080fd5b5061063d600480360381019080803573ffffffffffffffffffffffffffffffffffffffff169060200190929190505050611a1d565b6040518082815260200191505060405180910390f35b34801561065f57600080fd5b50610668611a35565b604051808273ffffffffffffffffffffffffffffffffffffffff1673ffffffffffffffffffffffffffffffffffffffff16815260200191505060405180910390f35b3480156106b657600080fd5b506106eb600480360381019080803573ffffffffffffffffffffffffffffffffffffffff169060200190929190505050611a5b565b604051808215151515815260200191505060405180910390f35b34801561071157600080fd5b5061071a611ab4565b604051808215151515815260200191505060405180910390f35b34801561074057600080fd5b50610749611b7c565b6040518082815260200191505060405180910390f35b34801561076b57600080fd5b50610774611b82565b604051808215151515815260200191505060405180910390f35b34801561079a57600080fd5b506107a3611b8b565b005b3480156107b157600080fd5b506107e6600480360381019080803573ffffffffffffffffffffffffffffffffffffffff169060200190929190505050611d81565b005b3480156107f457600080fd5b506107fd611fa0565b6040518082815260200191505060405180910390f35b34801561081f57600080fd5b50610828611fa6565b005b34801561083657600080fd5b5061083f61203f565b6040518082815260200191505060405180910390f35b34801561086157600080fd5b5061088060048036038101908080359060200190929190505050612045565b005b34801561088e57600080fd5b50610897612329565b005b3480156108a557600080fd5b506108ae61244c565b604051808273ffffffffffffffffffffffffffffffffffffffff1673ffffffffffffffffffffffffffffffffffffffff16815260200191505060405180910390f35b3480156108fc57600080fd5b50610905612472565b604051808215151515815260200191505060405180910390f35b34801561092b57600080fd5b50610934612481565b604051808260ff1660ff16815260200191505060405180910390f35b34801561095c57600080fd5b506109b1600480360381019080803573ffffffffffffffffffffffffffffffffffffffff1690602001909291908035151590602001909291908035906020019092919080359060200190929190505050612494565b005b3480156109bf57600080fd5b506109c861279d565b604051808273ffffffffffffffffffffffffffffffffffffffff1673ffffffffffffffffffffffffffffffffffffffff16815260200191505060405180910390f35b348015610a1657600080fd5b50610a1f6127c6565b604051808215151515815260200191505060405180910390f35b348015610a4557600080fd5b50610a4e61281d565b604051808273ffffffffffffffffffffffffffffffffffffffff1673ffffffffffffffffffffffffffffffffffffffff16815260200191505060405180910390f35b348015610a9c57600080fd5b50610ad1600480360381019080803573ffffffffffffffffffffffffffffffffffffffff169060200190929190505050612843565b6040518082815260200191505060405180910390f35b348015610af357600080fd5b50610afc61285b565b604051808215151515815260200191505060405180910390f35b348015610b2257600080fd5b50610b5f6004803603810190808035906020019092919080359060200190929190803590602001909291908035906020019092919050505061286e565b604051808215151515815260200191505060405180910390f35b610b81612878565b005b348015610b8f57600080fd5b50610b98612883565b604051808215151515815260200191505060405180910390f35b348015610bbe57600080fd5b50610bc761294b565b6040518082815260200191505060405180910390f35b348015610be957600080fd5b50610c1e600480360381019080803573ffffffffffffffffffffffffffffffffffffffff169060200190929190505050612951565b604051808260ff1660ff16815260200191505060405180910390f35b348015610c4657600080fd5b50610d67600480360381019080803590602001908201803590602001908080602002602001604051908101604052809392919081815260200183836020028082843782019150505050505091929192908035906020019082018035906020019080806020026020016040519081016040528093929190818152602001838360200280828437820191505050505050919291929080359060200190820180359060200190808060200260200160405190810160405280939291908181526020018383602002808284378201915050505050509192919290803590602001908201803590602001908080602002602001604051908101604052809392919081815260200183836020028082843782019150505050505091929192905050506129aa565b005b348015610d7557600080fd5b50610d7e612b02565b604051808215151515815260200191505060405180910390f35b348015610da457600080fd5b50610dad612b15565b604051808215151515815260200191505060405180910390f35b348015610dd357600080fd5b50610ddc612b28565b604051808215151515815260200191505060405180910390f35b348015610e0257600080fd5b50610e2160048036038101908080359060200190929190505050612dfc565b604051808273ffffffffffffffffffffffffffffffffffffffff1673ffffffffffffffffffffffffffffffffffffffff16815260200191505060405180910390f35b348015610e6f57600080fd5b50610e8e60048036038101908080359060200190929190505050612e3a565b005b348015610e9c57600080fd5b50610edb600480360381019080803573ffffffffffffffffffffffffffffffffffffffff1690602001909291908035906020019092919050505061310d565b005b348015610ee957600080fd5b50610ef2613359565b604051808273ffffffffffffffffffffffffffffffffffffffff1673ffffffffffffffffffffffffffffffffffffffff16815260200191505060405180910390f35b348015610f4057600080fd5b50610f75600480360381019080803573ffffffffffffffffffffffffffffffffffffffff1690602001909291905050506133d3565b6040518084151515158152602001838152602001828152602001935050505060405180910390f35b348015610fa957600080fd5b50610fb261340a565b005b348015610fc057600080fd5b50610fdf600480360381019080803590602001909291905050506134bd565b005b348015610fed57600080fd5b50610ff66136a4565b604051808215151515815260200191505060405180910390f35b34801561101c57600080fd5b506110256136a9565b6040518082815260200191505060405180910390f35b34801561104757600080fd5b50611066600480360381019080803590602001909291905050506136af565b604051808273ffffffffffffffffffffffffffffffffffffffff1673ffffffffffffffffffffffffffffffffffffffff16815260200191505060405180910390f35b3480156110b457600080fd5b506110bd6136ed565b604051808260ff1660ff16815260200191505060405180910390f35b3480156110e557600080fd5b506110ee613700565b604051808215151515815260200191505060405180910390f35b34801561111457600080fd5b50611149600480360381019080803573ffffffffffffffffffffffffffffffffffffffff169060200190929190505050613713565b005b34801561115757600080fd5b5061118c600480360381019080803573ffffffffffffffffffffffffffffffffffffffff16906020019092919050505061379b565b005b34801561119a57600080fd5b506111a361386e565b604051808273ffffffffffffffffffffffffffffffffffffffff1673ffffffffffffffffffffffffffffffffffffffff16815260200191505060405180910390f35b60155481565b6111f6816000613894565b50565b600092915050565b600061120b6127c6565b151561127f576040517f08c379a00000000000000000000000000000000000000000000000000000000081526004018080602001828103825260098152602001807f4e6f74206f776e6572000000000000000000000000000000000000000000000081525060200191505060405180910390fd5b6000825111151561128c57fe5b6000600f60009054906101000a900460ff1660ff161415156112aa57fe5b600f60019054906101000a900460ff1660ff168251111515156112c957fe5b600090505b81518160ff16101561130a576112fd828260ff168151811015156112ee57fe5b90602001906020020151613ff8565b80806001019150506112ce565b5050565b6000600360009054906101000a900473ffffffffffffffffffffffffffffffffffffffff1673ffffffffffffffffffffffffffffffffffffffff16638e768288306040518263ffffffff167c0100000000000000000000000000000000000000000000000000000000028152600401808273ffffffffffffffffffffffffffffffffffffffff1673ffffffffffffffffffffffffffffffffffffffff168152602001915050602060405180830381600087803b1580156113cd57600080fd5b505af11580156113e1573d6000803e3d6000fd5b505050506040513d60208110156113f757600080fd5b8101908080519060200190929190505050905090565b60058054600181600116156101000203166002900480601f0160208091040260200160405190810160405280929190818152602001828054600181600116156101000203166002900480156114a35780601f10611478576101008083540402835291602001916114a3565b820191906000526020600020905b81548152906001019060200180831161148657829003601f168201915b505050505081565b60095481565b600080600090505b601480549050811015611549578273ffffffffffffffffffffffffffffffffffffffff166014828154811015156114ec57fe5b9060005260206000200160009054906101000a900473ffffffffffffffffffffffffffffffffffffffff1673ffffffffffffffffffffffffffffffffffffffff16141561153c576001915061154e565b80806001019150506114b9565b600091505b50919050565b60075481565b6000600d60009054906101000a900460ff161561157a57600690506117ee565b6000600460009054906101000a900473ffffffffffffffffffffffffffffffffffffffff1673ffffffffffffffffffffffffffffffffffffffff1614156115c457600190506117ee565b600460009054906101000a900473ffffffffffffffffffffffffffffffffffffffff1673ffffffffffffffffffffffffffffffffffffffff166382771c8e6040518163ffffffff167c0100000000000000000000000000000000000000000000000000000000028152600401602060405180830381600087803b15801561164a57600080fd5b505af115801561165e573d6000803e3d6000fd5b505050506040513d602081101561167457600080fd5b8101908080519060200190929190505050151561169457600190506117ee565b600360009054906101000a900473ffffffffffffffffffffffffffffffffffffffff1673ffffffffffffffffffffffffffffffffffffffff16638e768288306040518263ffffffff167c0100000000000000000000000000000000000000000000000000000000028152600401808273ffffffffffffffffffffffffffffffffffffffff1673ffffffffffffffffffffffffffffffffffffffff168152602001915050602060405180830381600087803b15801561175157600080fd5b505af1158015611765573d6000803e3d6000fd5b505050506040513d602081101561177b57600080fd5b8101908080519060200190929190505050151561179b57600190506117ee565b6008544210156117ae57600290506117ee565b60095442111580156117c557506117c36136a4565b155b156117d357600390506117ee565b6117db612472565b156117e957600490506117ee565b600590505b90565b6117f96127c6565b151561186d576040517f08c379a00000000000000000000000000000000000000000000000000000000081526004018080602001828103825260098152602001807f4e6f74206f776e6572000000000000000000000000000000000000000000000081525060200191505060405180910390fd5b600073ffffffffffffffffffffffffffffffffffffffff168173ffffffffffffffffffffffffffffffffffffffff16141515156118a657fe5b600073ffffffffffffffffffffffffffffffffffffffff16600460009054906101000a900473ffffffffffffffffffffffffffffffffffffffff1673ffffffffffffffffffffffffffffffffffffffff1614151561190057fe5b80600460006101000a81548173ffffffffffffffffffffffffffffffffffffffff021916908373ffffffffffffffffffffffffffffffffffffffff160217905550600460009054906101000a900473ffffffffffffffffffffffffffffffffffffffff1673ffffffffffffffffffffffffffffffffffffffff1663614cb9046040518163ffffffff167c0100000000000000000000000000000000000000000000000000000000028152600401602060405180830381600087803b1580156119c757600080fd5b505af11580156119db573d6000803e3d6000fd5b505050506040513d60208110156119f157600080fd5b81019080805190602001909291905050501515611a0d57600080fd5b50565b6000601480549050905090565b60116020528060005260406000206000915090505481565b600460009054906101000a900473ffffffffffffffffffffffffffffffffffffffff1681565b6000601060008373ffffffffffffffffffffffffffffffffffffffff1673ffffffffffffffffffffffffffffffffffffffff16815260200190815260200160002060000160009054906101000a900460ff169050919050565b6000600460009054906101000a900473ffffffffffffffffffffffffffffffffffffffff1673ffffffffffffffffffffffffffffffffffffffff1663f9cb6d7a6040518163ffffffff167c0100000000000000000000000000000000000000000000000000000000028152600401602060405180830381600087803b158015611b3c57600080fd5b505af1158015611b50573d6000803e3d6000fd5b505050506040513d6020811015611b6657600080fd5b8101908080519060200190929190505050905090565b600b5481565b60006001905090565b6004806006811115611b9957fe5b611ba161155a565b6006811115611bac57fe5b141515611bb857600080fd5b611bc06127c6565b1515611c34576040517f08c379a00000000000000000000000000000000000000000000000000000000081526004018080602001828103825260098152602001807f4e6f74206f776e6572000000000000000000000000000000000000000000000081525060200191505060405180910390fd5b600060159054906101000a900460ff16151515611c5057600080fd5b600d60009054906101000a900460ff16151515611c6c57600080fd5b600073ffffffffffffffffffffffffffffffffffffffff16600460009054906101000a900473ffffffffffffffffffffffffffffffffffffffff1673ffffffffffffffffffffffffffffffffffffffff16141515611d6357600460009054906101000a900473ffffffffffffffffffffffffffffffffffffffff1673ffffffffffffffffffffffffffffffffffffffff16630bf318a36040518163ffffffff167c0100000000000000000000000000000000000000000000000000000000028152600401600060405180830381600087803b158015611d4a57600080fd5b505af1158015611d5e573d6000803e3d6000fd5b505050505b6001600d60006101000a81548160ff02191690831515021790555050565b611d896127c6565b1515611dfd576040517f08c379a00000000000000000000000000000000000000000000000000000000081526004018080602001828103825260098152602001807f4e6f74206f776e6572000000000000000000000000000000000000000000000081525060200191505060405180910390fd5b600073ffffffffffffffffffffffffffffffffffffffff168173ffffffffffffffffffffffffffffffffffffffff1614151515611e3657fe5b600073ffffffffffffffffffffffffffffffffffffffff16600360009054906101000a900473ffffffffffffffffffffffffffffffffffffffff1673ffffffffffffffffffffffffffffffffffffffff16141515611e9057fe5b80600360006101000a81548173ffffffffffffffffffffffffffffffffffffffff021916908373ffffffffffffffffffffffffffffffffffffffff160217905550600360009054906101000a900473ffffffffffffffffffffffffffffffffffffffff1673ffffffffffffffffffffffffffffffffffffffff166304bbc2556040518163ffffffff167c0100000000000000000000000000000000000000000000000000000000028152600401602060405180830381600087803b158015611f5757600080fd5b505af1158015611f6b573d6000803e3d6000fd5b505050506040513d6020811015611f8157600080fd5b81019080805190602001909291905050501515611f9d57600080fd5b50565b600a5481565b611fae6127c6565b1515612022576040517f08c379a00000000000000000000000000000000000000000000000000000000081526004018080602001828103825260098152602001807f4e6f74206f776e6572000000000000000000000000000000000000000000000081525060200191505060405180910390fd5b6001600060156101000a81548160ff021916908315150217905550565b60015481565b6000806000806120536127c6565b15156120c7576040517f08c379a00000000000000000000000000000000000000000000000000000000081526004018080602001828103825260098152602001807f4e6f74206f776e6572000000000000000000000000000000000000000000000081525060200191505060405180910390fd5b600d60009054906101000a900460ff161515156120e057fe5b8442111515156120ec57fe5b84600854111515156120fa57fe5b600954421115151561210857fe5b612110613359565b93508373ffffffffffffffffffffffffffffffffffffffff1663b3f05b976040518163ffffffff167c0100000000000000000000000000000000000000000000000000000000028152600401602060405180830381600087803b15801561217657600080fd5b505af115801561218a573d6000803e3d6000fd5b505050506040513d60208110156121a057600080fd5b81019080805190602001909291905050501515156121bd57600080fd5b6121c630612951565b92506001830191505b600f60009054906101000a900460ff1660ff168260ff1610156122e257600e8260ff168154811015156121fe57fe5b9060005260206000200160009054906101000a900473ffffffffffffffffffffffffffffffffffffffff1690508073ffffffffffffffffffffffffffffffffffffffff1663af4686826040518163ffffffff167c0100000000000000000000000000000000000000000000000000000000028152600401602060405180830381600087803b15801561228f57600080fd5b505af11580156122a3573d6000803e3d6000fd5b505050506040513d60208110156122b957600080fd5b810190808051906020019092919050505085111515156122d557fe5b81806001019250506121cf565b846009819055507fd34bb772c4ae9baa99db852f622773b31c7827e8ee818449fef20d30980bd3106009546040518082815260200191505060405180910390a15050505050565b6123316127c6565b15156123a5576040517f08c379a00000000000000000000000000000000000000000000000000000000081526004018080602001828103825260098152602001807f4e6f74206f776e6572000000000000000000000000000000000000000000000081525060200191505060405180910390fd5b6000809054906101000a900473ffffffffffffffffffffffffffffffffffffffff1673ffffffffffffffffffffffffffffffffffffffff167ff8df31144d9c2f0f6b59d69b8b98abd5459d07f2742c4df920b25aae33c6482060405160405180910390a260008060006101000a81548173ffffffffffffffffffffffffffffffffffffffff021916908373ffffffffffffffffffffffffffffffffffffffff160217905550565b600360009054906101000a900473ffffffffffffffffffffffffffffffffffffffff1681565b6000600754600b541015905090565b600f60019054906101000a900460ff1681565b61249c6127c6565b1515612510576040517f08c379a00000000000000000000000000000000000000000000000000000000081526004018080602001828103825260098152602001807f4e6f74206f776e6572000000000000000000000000000000000000000000000081525060200191505060405180910390fd5b600d60019054906101000a900460ff16151561252b57600080fd5b600073ffffffffffffffffffffffffffffffffffffffff168473ffffffffffffffffffffffffffffffffffffffff161415151561256457fe5b60008111151561257057fe5b80821115151561257c57fe5b600954421115151561258a57fe5b612593846114b1565b15156126835760148490806001815401808255809150509060018203906000526020600020016000909192909190916101000a81548173ffffffffffffffffffffffffffffffffffffffff021916908373ffffffffffffffffffffffffffffffffffffffff160217905550507fc03e2cbfed65ba7e1df8d32da4afaccb75208d8a6b188f67800ceb19cb9d526484848484604051808573ffffffffffffffffffffffffffffffffffffffff1673ffffffffffffffffffffffffffffffffffffffff1681526020018415151515815260200183815260200182815260200194505050505060405180910390a1612703565b7f618943c36e69f6b3bae8b5bc48231e8911852a0c844743af41be110450a2a58f84848484604051808573ffffffffffffffffffffffffffffffffffffffff1673ffffffffffffffffffffffffffffffffffffffff1681526020018415151515815260200183815260200182815260200194505050505060405180910390a15b606060405190810160405280841515815260200183815260200182815250601360008673ffffffffffffffffffffffffffffffffffffffff1673ffffffffffffffffffffffffffffffffffffffff16815260200190815260200160002060008201518160000160006101000a81548160ff021916908315150217905550602082015181600101556040820151816002015590505050505050565b60008060009054906101000a900473ffffffffffffffffffffffffffffffffffffffff16905090565b60008060009054906101000a900473ffffffffffffffffffffffffffffffffffffffff1673ffffffffffffffffffffffffffffffffffffffff163373ffffffffffffffffffffffffffffffffffffffff1614905090565b600660009054906101000a900473ffffffffffffffffffffffffffffffffffffffff1681565b60126020528060005260406000206000915090505481565b600060149054906101000a900460ff1681565b6000949350505050565b612881336111eb565b565b6000600460009054906101000a900473ffffffffffffffffffffffffffffffffffffffff1673ffffffffffffffffffffffffffffffffffffffff166382771c8e6040518163ffffffff167c0100000000000000000000000000000000000000000000000000000000028152600401602060405180830381600087803b15801561290b57600080fd5b505af115801561291f573d6000803e3d6000fd5b505050506040513d602081101561293557600080fd5b8101908080519060200190929190505050905090565b60085481565b6000601060008373ffffffffffffffffffffffffffffffffffffffff1673ffffffffffffffffffffffffffffffffffffffff16815260200190815260200160002060000160019054906101000a900460ff169050919050565b60006129b46127c6565b1515612a28576040517f08c379a00000000000000000000000000000000000000000000000000000000081526004018080602001828103825260098152602001807f4e6f74206f776e6572000000000000000000000000000000000000000000000081525060200191505060405180910390fd5b600d60019054906101000a900460ff161515612a4357600080fd5b6009544211151515612a5157fe5b83518551141515612a5e57fe5b82518451141515612a6b57fe5b81518351141515612a7857fe5b600090505b8451811015612afb57612aee8582815181101515612a9757fe5b906020019060200201518583815181101515612aaf57fe5b906020019060200201518584815181101515612ac757fe5b906020019060200201518585815181101515612adf57fe5b90602001906020020151612494565b8080600101915050612a7d565b5050505050565b600d60009054906101000a900460ff1681565b600060159054906101000a900460ff1681565b600080612b33613359565b905060046006811115612b4257fe5b8173ffffffffffffffffffffffffffffffffffffffff16631865c57d6040518163ffffffff167c0100000000000000000000000000000000000000000000000000000000028152600401602060405180830381600087803b158015612ba657600080fd5b505af1158015612bba573d6000803e3d6000fd5b505050506040513d6020811015612bd057600080fd5b81019080805190602001909291905050506006811115612bec57fe5b148015612c9557508073ffffffffffffffffffffffffffffffffffffffff1663b9b8af0b6040518163ffffffff167c0100000000000000000000000000000000000000000000000000000000028152600401602060405180830381600087803b158015612c5857600080fd5b505af1158015612c6c573d6000803e3d6000fd5b505050506040513d6020811015612c8257600080fd5b8101908080519060200190929190505050155b8015612d3d57508073ffffffffffffffffffffffffffffffffffffffff1663b3f05b976040518163ffffffff167c0100000000000000000000000000000000000000000000000000000000028152600401602060405180830381600087803b158015612d0057600080fd5b505af1158015612d14573d6000803e3d6000fd5b505050506040513d6020811015612d2a57600080fd5b8101908080519060200190929190505050155b8015612de557508073ffffffffffffffffffffffffffffffffffffffff166325e0671f6040518163ffffffff167c0100000000000000000000000000000000000000000000000000000000028152600401602060405180830381600087803b158015612da857600080fd5b505af1158015612dbc573d6000803e3d6000fd5b505050506040513d6020811015612dd257600080fd5b8101908080519060200190929190505050155b15612df35760019150612df8565b600091505b5090565b600e81815481101515612e0b57fe5b906000526020600020016000915054906101000a900473ffffffffffffffffffffffffffffffffffffffff1681565b600080600080612e486127c6565b1515612ebc576040517f08c379a00000000000000000000000000000000000000000000000000000000081526004018080602001828103825260098152602001807f4e6f74206f776e6572000000000000000000000000000000000000000000000081525060200191505060405180910390fd5b600d60009054906101000a900460ff16151515612ed557fe5b844211151515612ee157fe5b6009548511151515612eef57fe5b6008544211151515612efd57fe5b612f05613359565b93508373ffffffffffffffffffffffffffffffffffffffff1663b3f05b976040518163ffffffff167c0100000000000000000000000000000000000000000000000000000000028152600401602060405180830381600087803b158015612f6b57600080fd5b505af1158015612f7f573d6000803e3d6000fd5b505050506040513d6020811015612f9557600080fd5b8101908080519060200190929190505050151515612fb257600080fd5b612fbb30612951565b9250600091505b8260ff168260ff1610156130c657600e8260ff16815481101515612fe257fe5b9060005260206000200160009054906101000a900473ffffffffffffffffffffffffffffffffffffffff1690508073ffffffffffffffffffffffffffffffffffffffff16630a09284a6040518163ffffffff167c0100000000000000000000000000000000000000000000000000000000028152600401602060405180830381600087803b15801561307357600080fd5b505af1158015613087573d6000803e3d6000fd5b505050506040513d602081101561309d57600080fd5b810190808051906020019092919050505085101515156130b957fe5b8180600101925050612fc2565b846008819055507fa3f2a813a039e5195c620dabcd490267a9aa5a50e4e1383bc474e9b800f7defe6008546040518082815260200191505060405180910390a15050505050565b6000600d60019054906101000a900460ff16151561312a57600080fd5b600073ffffffffffffffffffffffffffffffffffffffff168373ffffffffffffffffffffffffffffffffffffffff161415151561316357fe5b600954421115151561317157fe5b61317a33611a5b565b151561318257fe5b601360008473ffffffffffffffffffffffffffffffffffffffff1673ffffffffffffffffffffffffffffffffffffffff16815260200190815260200160002060010154821015801561321457506000601260008573ffffffffffffffffffffffffffffffffffffffff1673ffffffffffffffffffffffffffffffffffffffff1681526020019081526020016000205414155b151561321f57600080fd5b601360008473ffffffffffffffffffffffffffffffffffffffff1673ffffffffffffffffffffffffffffffffffffffff16815260200190815260200160002060020154905061326e8183614237565b9050606060405190810160405280601360008673ffffffffffffffffffffffffffffffffffffffff1673ffffffffffffffffffffffffffffffffffffffff16815260200190815260200160002060000160009054906101000a900460ff16151581526020016000815260200182815250601360008573ffffffffffffffffffffffffffffffffffffffff1673ffffffffffffffffffffffffffffffffffffffff16815260200190815260200160002060008201518160000160006101000a81548160ff0219169083151502179055506020820151816001015560408201518160020155905050505050565b600080600f60009054906101000a900460ff1660ff1611156133cb57600e6001600f60009054906101000a900460ff160360ff1681548110151561339957fe5b9060005260206000200160009054906101000a900473ffffffffffffffffffffffffffffffffffffffff1690506133d0565b600090505b90565b60136020528060005260406000206000915090508060000160009054906101000a900460ff16908060010154908060020154905083565b6134126127c6565b1515613486576040517f08c379a00000000000000000000000000000000000000000000000000000000081526004018080602001828103825260098152602001807f4e6f74206f776e6572000000000000000000000000000000000000000000000081525060200191505060405180910390fd5b600060159054906101000a900460ff1615156134a157600080fd5b60008060156101000a81548160ff021916908315150217905550565b60048060068111156134cb57fe5b6134d361155a565b60068111156134de57fe5b1415156134ea57600080fd5b6134f26127c6565b1515613566576040517f08c379a00000000000000000000000000000000000000000000000000000000081526004018080602001828103825260098152602001807f4e6f74206f776e6572000000000000000000000000000000000000000000000081525060200191505060405180910390fd5b600060159054906101000a900460ff1615151561358257600080fd5b600d60009054906101000a900460ff1615151561359e57600080fd5b600073ffffffffffffffffffffffffffffffffffffffff16600460009054906101000a900473ffffffffffffffffffffffffffffffffffffffff1673ffffffffffffffffffffffffffffffffffffffff161415156136a057600460009054906101000a900473ffffffffffffffffffffffffffffffffffffffff1673ffffffffffffffffffffffffffffffffffffffff1663cddaf241836040518263ffffffff167c010000000000000000000000000000000000000000000000000000000002815260040180828152602001915050600060405180830381600087803b15801561368757600080fd5b505af115801561369b573d6000803e3d6000fd5b505050505b5050565b600090565b600c5481565b6014818154811015156136be57fe5b906000526020600020016000915054906101000a900473ffffffffffffffffffffffffffffffffffffffff1681565b600f60009054906101000a900460ff1681565b600d60019054906101000a900460ff1681565b61371b6127c6565b151561378f576040517f08c379a00000000000000000000000000000000000000000000000000000000081526004018080602001828103825260098152602001807f4e6f74206f776e6572000000000000000000000000000000000000000000000081525060200191505060405180910390fd5b61379881614250565b50565b6137a36127c6565b1515613817576040517f08c379a00000000000000000000000000000000000000000000000000000000081526004018080602001828103825260098152602001807f4e6f74206f776e6572000000000000000000000000000000000000000000000081525060200191505060405180910390fd5b600154600c541115151561382a57600080fd5b80600660006101000a81548173ffffffffffffffffffffffffffffffffffffffff021916908373ffffffffffffffffffffffffffffffffffffffff16021790555050565b600260009054906101000a900473ffffffffffffffffffffffffffffffffffffffff1681565b600080600060159054906101000a900460ff161515156138b357600080fd5b600360068111156138c057fe5b6138c861155a565b60068111156138d357fe5b1415156138df57600080fd5b600d60019054906101000a900460ff161561395057601360008573ffffffffffffffffffffffffffffffffffffffff1673ffffffffffffffffffffffffffffffffffffffff16815260200190815260200160002060000160009054906101000a900460ff16151561394f57600080fd5b5b349150600360009054906101000a900473ffffffffffffffffffffffffffffffffffffffff1673ffffffffffffffffffffffffffffffffffffffff166318a4155e83600b54600a5433600260009054906101000a900473ffffffffffffffffffffffffffffffffffffffff1673ffffffffffffffffffffffffffffffffffffffff1663313ce5676040518163ffffffff167c0100000000000000000000000000000000000000000000000000000000028152600401602060405180830381600087803b158015613a1f57600080fd5b505af1158015613a33573d6000803e3d6000fd5b505050506040513d6020811015613a4957600080fd5b81019080805190602001909291905050506040518663ffffffff167c0100000000000000000000000000000000000000000000000000000000028152600401808681526020018581526020018481526020018373ffffffffffffffffffffffffffffffffffffffff1673ffffffffffffffffffffffffffffffffffffffff16815260200182815260200195505050505050602060405180830381600087803b158015613af457600080fd5b505af1158015613b08573d6000803e3d6000fd5b505050506040513d6020811015613b1e57600080fd5b8101908080519060200190929190505050905060008114151515613b4157600080fd5b600d60019054906101000a900460ff1615613c1857601360008573ffffffffffffffffffffffffffffffffffffffff1673ffffffffffffffffffffffffffffffffffffffff168152602001908152602001600020600101548110158015613be857506000601260008673ffffffffffffffffffffffffffffffffffffffff1673ffffffffffffffffffffffffffffffffffffffff1681526020019081526020016000205414155b1515613bf357600080fd5b613bfd84826111f9565b151515613c0957600080fd5b613c1384826143b3565b613d34565b600260009054906101000a900473ffffffffffffffffffffffffffffffffffffffff1673ffffffffffffffffffffffffffffffffffffffff16633fa615b06040518163ffffffff167c0100000000000000000000000000000000000000000000000000000000028152600401602060405180830381600087803b158015613c9e57600080fd5b505af1158015613cb2573d6000803e3d6000fd5b505050506040513d6020811015613cc857600080fd5b81019080805190602001909291905050508110158015613d2857506000601260008673ffffffffffffffffffffffffffffffffffffffff1673ffffffffffffffffffffffffffffffffffffffff1681526020019081526020016000205414155b1515613d3357600080fd5b5b6000601160008673ffffffffffffffffffffffffffffffffffffffff1673ffffffffffffffffffffffffffffffffffffffff168152602001908152602001600020541415613d8f57600c600081548092919060010191905055505b613dd8601160008673ffffffffffffffffffffffffffffffffffffffff1673ffffffffffffffffffffffffffffffffffffffff16815260200190815260200160002054836145ad565b601160008673ffffffffffffffffffffffffffffffffffffffff1673ffffffffffffffffffffffffffffffffffffffff16815260200190815260200160002081905550613e64601260008673ffffffffffffffffffffffffffffffffffffffff1673ffffffffffffffffffffffffffffffffffffffff16815260200190815260200160002054826145ad565b601260008673ffffffffffffffffffffffffffffffffffffffff1673ffffffffffffffffffffffffffffffffffffffff16815260200190815260200160002081905550613eb3600b54836145ad565b600b81905550613ec5600a54826145ad565b600a81905550613edb8282600b54600a5461286e565b151515613ee757600080fd5b613ef184826145d7565b600660009054906101000a900473ffffffffffffffffffffffffffffffffffffffff1673ffffffffffffffffffffffffffffffffffffffff166108fc839081150290604051600060405180830381858888f193505050501515613f5357600080fd5b7f0396f60aaad038749091d273dc13aaabc63db6e2271c7bad442d5cf25cc4335084838386604051808573ffffffffffffffffffffffffffffffffffffffff1673ffffffffffffffffffffffffffffffffffffffff168152602001848152602001838152602001826fffffffffffffffffffffffffffffffff166fffffffffffffffffffffffffffffffff16815260200194505050505060405180910390a150505050565b6140006127c6565b1515614074576040517f08c379a00000000000000000000000000000000000000000000000000000000081526004018080602001828103825260098152602001807f4e6f74206f776e6572000000000000000000000000000000000000000000000081525060200191505060405180910390fd5b600073ffffffffffffffffffffffffffffffffffffffff168173ffffffffffffffffffffffffffffffffffffffff16141515156140ad57fe5b600f60019054906101000a900460ff1660ff16600f60009054906101000a900460ff1660ff16111515156140dd57fe5b6140e681611a5b565b1515156140ef57fe5b600e8190806001815401808255809150509060018203906000526020600020016000909192909190916101000a81548173ffffffffffffffffffffffffffffffffffffffff021916908373ffffffffffffffffffffffffffffffffffffffff160217905550506040805190810160405280600115158152602001600f60009054906101000a900460ff1660ff16815250601060008373ffffffffffffffffffffffffffffffffffffffff1673ffffffffffffffffffffffffffffffffffffffff16815260200190815260200160002060008201518160000160006101000a81548160ff02191690831515021790555060208201518160000160016101000a81548160ff021916908360ff160217905550905050600f600081819054906101000a900460ff168092919060010191906101000a81548160ff021916908360ff1602179055505050565b600082821115151561424557fe5b818303905092915050565b600073ffffffffffffffffffffffffffffffffffffffff168173ffffffffffffffffffffffffffffffffffffffff16141515156142f5576040517f08c379a00000000000000000000000000000000000000000000000000000000081526004018080602001828103825260168152602001807f4e6577206f776e6572206164647265737320697320300000000000000000000081525060200191505060405180910390fd5b8073ffffffffffffffffffffffffffffffffffffffff166000809054906101000a900473ffffffffffffffffffffffffffffffffffffffff1673ffffffffffffffffffffffffffffffffffffffff167f8be0079c531659141344cd1fd0a4f28419497f9722a3daafe3b4186f6b6457e060405160405180910390a3806000806101000a81548173ffffffffffffffffffffffffffffffffffffffff021916908373ffffffffffffffffffffffffffffffffffffffff16021790555050565b6000806000600d60019054906101000a900460ff1615156143d357600080fd5b601360008673ffffffffffffffffffffffffffffffffffffffff1673ffffffffffffffffffffffffffffffffffffffff16815260200190815260200160002060010154841015801561446557506000601260008773ffffffffffffffffffffffffffffffffffffffff1673ffffffffffffffffffffffffffffffffffffffff1681526020019081526020016000205414155b151561447057600080fd5b61447930612951565b92506001830191505b600f60009054906101000a900460ff1660ff168260ff1610156145a657600e8260ff168154811015156144b157fe5b9060005260206000200160009054906101000a900473ffffffffffffffffffffffffffffffffffffffff1690508073ffffffffffffffffffffffffffffffffffffffff1663c12eb19186866040518363ffffffff167c0100000000000000000000000000000000000000000000000000000000028152600401808373ffffffffffffffffffffffffffffffffffffffff1673ffffffffffffffffffffffffffffffffffffffff16815260200182815260200192505050600060405180830381600087803b15801561458157600080fd5b505af1158015614595573d6000803e3d6000fd5b505050508180600101925050614482565b5050505050565b60008082840190508381101580156145c55750828110155b15156145cd57fe5b8091505092915050565b50505600a165627a7a7230582094310ec3f46477bdd6f29885bffee0adb27ecd961f220e90460a514479656a760029",
  "source": "/**\n * Issued by Morpheus Labs ICO as a Service Wizard\n */\npragma solidity ^0.4.24;\nimport \"./lib/SafeMath.sol\";\nimport \"./lib/FractionalERC20Ext.sol\";\nimport \"./lib/PricingStrategy.sol\";\nimport \"./lib/FinalizeAgent.sol\";\nimport \"./lib/Haltable.sol\";\nimport \"./lib/MintableTokenExt.sol\";\n\n/**\n * Abstract base contract for token sales.\n * Handle\n * - start and end dates\n * - accepting investments\n * - minimum funding goal and refund\n * - various statistics during the crowdfund\n * - different pricing strategies\n * - different investment policies (require server side customer id, allow only whitelisted addresses)\n */\ncontract CrowdsaleExt is Haltable, SafeMath {\n\n    /* Max investment count when we are still allowed to change the multisig address */\n    uint public MAX_INVESTMENTS_BEFORE_MULTISIG_CHANGE = 5;\n\n    /* The token we are selling */\n    FractionalERC20Ext public token;\n\n    /* How we are going to price our offering */\n    PricingStrategy public pricingStrategy;\n\n    /* Post-success callback */\n    FinalizeAgent public finalizeAgent;\n\n    /* name of the crowdsale tier */\n    string public name;\n\n    /* tokens will be transfered from this address */\n    address public multisigWallet;\n\n    /* if the funding goal is not reached, investors may withdraw their funds */\n    uint public minimumFundingGoal;\n\n    /* the UNIX timestamp start date of the crowdsale */\n    uint public startsAt;\n\n    /* the UNIX timestamp end date of the crowdsale */\n    uint public endsAt;\n\n    /* the number of tokens already sold through this contract*/\n    uint public tokensSold = 0;\n\n    /* How many wei of funding we have raised */\n    uint public weiRaised = 0;\n\n    /* How many distinct addresses have invested */\n    uint public investorCount = 0;\n\n    /* Has this crowdsale been finalized */\n    bool public finalized;\n\n    bool public isWhiteListed;\n\n    address[] public joinedCrowdsales;\n    uint8 public joinedCrowdsalesLen = 0;\n    uint8 public joinedCrowdsalesLenMax = 50;\n\n    struct JoinedCrowdsaleStatus {\n        bool isJoined;\n        uint8 position;\n    }\n\n    mapping(address => JoinedCrowdsaleStatus) joinedCrowdsaleState;\n\n    /** How much ETH each address has invested to this crowdsale */\n    mapping(address => uint256) public investedAmountOf;\n\n    /** How much tokens this crowdsale has credited for each investor address */\n    mapping(address => uint256) public tokenAmountOf;\n\n    struct WhiteListData {\n        bool status;\n        uint minCap;\n        uint maxCap;\n    }\n\n    /** Addresses that are allowed to invest even before ICO offical opens. For testing, for ICO partners, etc. */\n    mapping(address => WhiteListData) public earlyParticipantWhitelist;\n\n    /** List of whitelisted addresses */\n    address[] public whitelistedParticipants;\n\n    /** This is for manuel testing for the interaction from owner wallet. You can set it to any value and inspect this in blockchain explorer to see that crowdsale interaction works. */\n    uint public ownerTestValue;\n\n    /** State machine\n     * - Preparing: All contract initialization calls and variables have not been set yet\n     * - Prefunding: We have not passed start time yet\n     * - Funding: Active crowdsale\n     * - Success: Minimum funding goal reached\n     * - Failure: Minimum funding goal not reached before ending time\n     * - Finalized: The finalized has been called and succesfully executed\n     */\n    enum State{Unknown, Preparing, PreFunding, Funding, Success, Failure, Finalized}\n\n    /** Modified allowing execution only if the crowdsale is currently running.  */\n    modifier inState(State state) {\n      if (getState() != state) revert();\n      _;\n    }\n\n    // A new investment was made\n    event Invested(address investor, uint weiAmount, uint tokenAmount, uint128 customerId);\n\n    // Address early participation whitelist status changed\n    event Whitelisted(address addr, bool status, uint minCap, uint maxCap);\n    event WhitelistItemChanged(address addr, bool status, uint minCap, uint maxCap);\n\n    // Crowdsale start time has been changed\n    event StartsAtChanged(uint newStartsAt);\n\n    // Crowdsale end time has been changed\n    event EndsAtChanged(uint newEndsAt);\n\n    constructor() {\n        \n    }\n\n    function setParamInternal(string _name, address _token, PricingStrategy _pricingStrategy, address _multisigWallet, uint _start, uint _end, uint _minimumFundingGoal, bool _isWhiteListed) internal onlyOwner paramNotSet {\n        require (_multisigWallet != address(0));\n        require (_token != address(0));\n        require (_pricingStrategy != address(0));\n        require (_start != 0);\n        require (_end != 0);\n        require (_start < _end);\n\n        name = _name;\n        token = FractionalERC20Ext(_token);\n        setPricingStrategy(_pricingStrategy);\n        multisigWallet = _multisigWallet;\n        startsAt = _start;\n        endsAt = _end;\n        // Minimum funding goal can be zero\n        minimumFundingGoal = _minimumFundingGoal;\n        isWhiteListed = _isWhiteListed;\n\n        isParamSet = true;\n    }\n\n    /**\n     * Don't expect to just send in money and get tokens.\n     */\n    function() public payable {\n        revert();\n    }\n\n    /**\n     * Make an investment.\n     * Crowdsale must be running for one to invest.\n     * We must have not pressed the emergency brake.\n     * @param receiver The Ethereum address who receives the tokens\n     * @param customerId (optional) UUID v4 to track the successful payments on the server side\n     */\n    function investInternal(address receiver, uint128 customerId) stopInEmergency private {\n        // Determine if it's a good time to accept investment from this participant\n        require (getState() == State.Funding);\n\n        // Retail participants can only come in when the crowdsale is running\n        // pass\n        if (isWhiteListed) {\n            if (!earlyParticipantWhitelist[receiver].status) {\n                revert();\n            }\n        }\n\n        uint weiAmount = msg.value;\n\n        // Account presale sales separately, so that they do not count against pricing tranches\n        uint tokenAmount = pricingStrategy.calculatePrice(weiAmount, weiRaised, tokensSold, msg.sender, token.decimals());\n\n        require (tokenAmount != 0);\n\n        if (isWhiteListed) {\n            require (tokenAmount >= earlyParticipantWhitelist[receiver].minCap && tokenAmountOf[receiver] != 0);\n\n            // Check that we did not bust the investor's cap\n            require (!isBreakingInvestorCap(receiver, tokenAmount));\n\n            updateInheritedEarlyParticipantWhitelist(receiver, tokenAmount);\n        } else {\n            require (tokenAmount >= token.minCap() && tokenAmountOf[receiver] != 0);\n        }\n\n        if (investedAmountOf[receiver] == 0) {\n            // A new investor\n            investorCount++;\n        }\n\n        // Update investor\n        investedAmountOf[receiver] = safeAdd(investedAmountOf[receiver], weiAmount);\n        tokenAmountOf[receiver] = safeAdd(tokenAmountOf[receiver], tokenAmount);\n\n        // Update totals\n        weiRaised = safeAdd(weiRaised, weiAmount);\n        tokensSold = safeAdd(tokensSold, tokenAmount);\n\n        // Check that we did not bust the cap\n        require (!isBreakingCap(weiAmount, tokenAmount, weiRaised, tokensSold));\n\n        assignTokens(receiver, tokenAmount);\n\n        // Pocket the money\n        require (multisigWallet.send(weiAmount));\n\n        // Tell us invest was success\n        Invested(receiver, weiAmount, tokenAmount, customerId);\n    }\n\n    /**\n     * Allow anonymous contributions to this crowdsale.\n     */\n    function invest(address addr) public payable {\n        investInternal(addr, 0);\n    }\n\n    /**\n     * The basic entry point to participate the crowdsale process.\n     * Pay for funding, get invested tokens back in the sender address.\n     */\n    function buy() public payable {\n        invest(msg.sender);\n    }\n\n    function distributeReservedTokens(uint reservedTokensDistributionBatch) public inState(State.Success) onlyOwner stopInEmergency {\n        // Already finalized\n        require (!finalized);\n\n        // Finalizing is optional. We only call it if we are given a finalizing agent.\n        if (address(finalizeAgent) != address(0)) {\n            finalizeAgent.distributeReservedTokens(reservedTokensDistributionBatch);\n        }\n    }\n\n    function areReservedTokensDistributed() public constant returns (bool) {\n        return finalizeAgent.reservedTokensAreDistributed();\n    }\n\n    function canDistributeReservedTokens() public constant returns (bool) {\n        CrowdsaleExt lastTierCntrct = CrowdsaleExt(getLastTier());\n        if ((lastTierCntrct.getState() == State.Success) && !lastTierCntrct.halted() && !lastTierCntrct.finalized() && !lastTierCntrct.areReservedTokensDistributed()) return true;\n        return false;\n    }\n\n    /**\n     * Finalize a succcesful crowdsale.\n     * The owner can triggre a call the contract that provides post-crowdsale actions, like releasing the tokens.\n     */\n    function finalize() public inState(State.Success) onlyOwner stopInEmergency {\n        // Already finalized\n        require (!finalized);\n\n        // Finalizing is optional. We only call it if we are given a finalizing agent.\n        if (address(finalizeAgent) != address(0)) {\n            finalizeAgent.finalizeCrowdsale();\n        }\n        finalized = true;\n    }\n\n    /**\n     * Allow to (re)set finalize agent.\n     * Design choice: no state restrictions on setting this, so that we can fix fat finger mistakes.\n     */\n    function setFinalizeAgent(FinalizeAgent addr) public onlyOwner {\n        assert(address(addr) != address(0));\n        assert(address(finalizeAgent) == address(0));\n        finalizeAgent = addr;\n\n        // Don't allow setting bad agent\n        require (finalizeAgent.isFinalizeAgent());\n    }\n\n    /**\n     * Allow addresses to do early participation.\n     */\n    function setEarlyParticipantWhitelist(address addr, bool status, uint minCap, uint maxCap) public onlyOwner {\n        require (isWhiteListed);\n        assert(addr != address(0));\n        assert(maxCap > 0);\n        assert(minCap <= maxCap);\n        assert(now <= endsAt);\n\n        if (!isAddressWhitelisted(addr)) {\n            whitelistedParticipants.push(addr);\n            Whitelisted(addr, status, minCap, maxCap);\n        } else {\n            WhitelistItemChanged(addr, status, minCap, maxCap);\n        }\n\n        earlyParticipantWhitelist[addr] = WhiteListData({status : status, minCap : minCap, maxCap : maxCap});\n    }\n\n    function setEarlyParticipantWhitelistMultiple(address[] addrs, bool[] statuses, uint[] minCaps, uint[] maxCaps) public onlyOwner {\n        require (isWhiteListed);\n        assert(now <= endsAt);\n        assert(addrs.length == statuses.length);\n        assert(statuses.length == minCaps.length);\n        assert(minCaps.length == maxCaps.length);\n\n        for (uint iterator = 0; iterator < addrs.length; iterator++) {\n            setEarlyParticipantWhitelist(addrs[iterator], statuses[iterator], minCaps[iterator], maxCaps[iterator]);\n        }\n    }\n\n    function updateInheritedEarlyParticipantWhitelist(address reciever, uint tokensBought) private {\n        require (isWhiteListed);\n        require (tokensBought >= earlyParticipantWhitelist[reciever].minCap && tokenAmountOf[reciever] != 0);\n\n        uint8 tierPosition = getTierPosition(this);\n\n        for (uint8 j = tierPosition + 1; j < joinedCrowdsalesLen; j++) {\n            CrowdsaleExt crowdsale = CrowdsaleExt(joinedCrowdsales[j]);\n            crowdsale.updateEarlyParticipantWhitelist(reciever, tokensBought);\n        }\n    }\n\n    function updateEarlyParticipantWhitelist(address addr, uint tokensBought) public {\n        require (isWhiteListed);\n        assert(addr != address(0));\n        assert(now <= endsAt);\n        assert(isTierJoined(msg.sender));\n\n        require (tokensBought >= earlyParticipantWhitelist[addr].minCap && tokenAmountOf[addr] != 0);\n        //if (addr != msg.sender && contractAddr != msg.sender) throw;\n        uint newMaxCap = earlyParticipantWhitelist[addr].maxCap;\n        newMaxCap = safeSub(newMaxCap, tokensBought);\n        earlyParticipantWhitelist[addr] = WhiteListData({status : earlyParticipantWhitelist[addr].status, minCap : 0, maxCap : newMaxCap});\n    }\n\n    function isAddressWhitelisted(address addr) public constant returns (bool) {\n        for (uint i = 0; i < whitelistedParticipants.length; i++) {\n            if (whitelistedParticipants[i] == addr) {\n                return true;\n            }\n        }\n        return false;\n    }\n\n    function whitelistedParticipantsLength() public constant returns (uint) {\n        return whitelistedParticipants.length;\n    }\n\n    function isTierJoined(address addr) public constant returns (bool) {\n        return joinedCrowdsaleState[addr].isJoined;\n    }\n\n    function getTierPosition(address addr) public constant returns (uint8) {\n        return joinedCrowdsaleState[addr].position;\n    }\n\n    function getLastTier() public constant returns (address) {\n        if (joinedCrowdsalesLen > 0)\n            return joinedCrowdsales[joinedCrowdsalesLen - 1];\n        else\n            return address(0);\n    }\n\n    function setJoinedCrowdsales(address addr) private onlyOwner {\n        assert(addr != address(0));\n        assert(joinedCrowdsalesLen <= joinedCrowdsalesLenMax);\n        assert(!isTierJoined(addr));\n        joinedCrowdsales.push(addr);\n        joinedCrowdsaleState[addr] = JoinedCrowdsaleStatus({\n            isJoined : true,\n            position : joinedCrowdsalesLen\n            });\n        joinedCrowdsalesLen++;\n    }\n\n    function updateJoinedCrowdsalesMultiple(address[] addrs) public onlyOwner {\n        assert(addrs.length > 0);\n        assert(joinedCrowdsalesLen == 0);\n        assert(addrs.length <= joinedCrowdsalesLenMax);\n        for (uint8 iter = 0; iter < addrs.length; iter++) {\n            setJoinedCrowdsales(addrs[iter]);\n        }\n    }\n\n    function setStartsAt(uint time) public onlyOwner {\n        assert(!finalized);\n        assert(now <= time);\n        // Don't change past\n        assert(time <= endsAt);\n        assert(now <= startsAt);\n\n        CrowdsaleExt lastTierCntrct = CrowdsaleExt(getLastTier());\n        require (!lastTierCntrct.finalized());\n\n        uint8 tierPosition = getTierPosition(this);\n\n        //start time should be greater then end time of previous tiers\n        for (uint8 j = 0; j < tierPosition; j++) {\n            CrowdsaleExt crowdsale = CrowdsaleExt(joinedCrowdsales[j]);\n            assert(time >= crowdsale.endsAt());\n        }\n\n        startsAt = time;\n        StartsAtChanged(startsAt);\n    }\n\n    /**\n     * Allow crowdsale owner to close early or extend the crowdsale.\n     * This is useful e.g. for a manual soft cap implementation:\n     * - after X amount is reached determine manual closing\n     * This may put the crowdsale to an invalid state,\n     * but we trust owners know what they are doing.\n     */\n    function setEndsAt(uint time) public onlyOwner {\n        assert(!finalized);\n        assert(now <= time);\n        // Don't change past\n        assert(startsAt <= time);\n        assert(now <= endsAt);\n\n        CrowdsaleExt lastTierCntrct = CrowdsaleExt(getLastTier());\n        require (!lastTierCntrct.finalized());\n\n\n        uint8 tierPosition = getTierPosition(this);\n\n        for (uint8 j = tierPosition + 1; j < joinedCrowdsalesLen; j++) {\n            CrowdsaleExt crowdsale = CrowdsaleExt(joinedCrowdsales[j]);\n            assert(time <= crowdsale.startsAt());\n        }\n\n        endsAt = time;\n        EndsAtChanged(endsAt);\n    }\n\n    /**\n     * Allow to (re)set pricing strategy.\n     *\n     * Design choice: no state restrictions on the set, so that we can fix fat finger mistakes.\n     */\n    function setPricingStrategy(PricingStrategy _pricingStrategy) public onlyOwner {\n        assert(address(_pricingStrategy) != address(0));\n        assert(address(pricingStrategy) == address(0));\n        pricingStrategy = _pricingStrategy;\n\n        // Don't allow setting bad agent\n        require (pricingStrategy.isPricingStrategy());\n    }\n\n    /**\n     * Allow to change the team multisig address in the case of emergency.\n     * This allows to save a deployed crowdsale wallet in the case the crowdsale has not yet begun\n     * (we have done only few test transactions). After the crowdsale is going\n     * then multisig address stays locked for the safety reasons.\n     */\n    function setMultisig(address addr) public onlyOwner {\n        // Change\n        require (investorCount <= MAX_INVESTMENTS_BEFORE_MULTISIG_CHANGE);\n        multisigWallet = addr;\n    }\n\n    /**\n     * @return true if the crowdsale has raised enough money to be a successful.\n     */\n    function isMinimumGoalReached() public constant returns (bool reached) {\n        return weiRaised >= minimumFundingGoal;\n    }\n\n    /**\n     * Check if the contract relationship looks good.\n     */\n    function isFinalizerSane() public constant returns (bool sane) {\n        return finalizeAgent.isSane();\n    }\n\n    /**\n     * Check if the contract relationship looks good.\n     */\n    function isPricingSane() public constant returns (bool sane) {\n        return pricingStrategy.isSane(address(this));\n    }\n\n    /**\n     * Crowdfund state machine management.\n     * We make it a function and do not assign the result to a variable, so there is no chance of the variable being stale.\n     */\n    function getState() public constant returns (State) {\n        if (finalized) return State.Finalized;\n        else if (address(finalizeAgent) == 0) return State.Preparing;\n        else if (!finalizeAgent.isSane()) return State.Preparing;\n        else if (!pricingStrategy.isSane(address(this))) return State.Preparing;\n        else if (block.timestamp < startsAt) return State.PreFunding;\n        else if (block.timestamp <= endsAt && !isCrowdsaleFull()) return State.Funding;\n        else if (isMinimumGoalReached()) return State.Success;\n        else return State.Failure;\n    }\n\n    /** Interface marker. */\n    function isCrowdsale() public constant returns (bool) {\n        return true;\n    }\n\n    //\n    // Abstract functions\n    //\n\n    /**\n     * Check if the current invested breaks our cap rules.\n     * The child contract must define their own cap setting rules.\n     * We allow a lot of flexibility through different capping strategies (ETH, token count)\n     * Called from invest().\n     * @param weiAmount The amount of wei the investor tries to invest in the current transaction\n     * @param tokenAmount The amount of tokens we try to give to the investor in the current transaction\n     * @param weiRaisedTotal What would be our total raised balance after this transaction\n     * @param tokensSoldTotal What would be our total sold tokens count after this transaction\n     * @return true if taking this investment would break our cap rules\n     */\n    function isBreakingCap(uint weiAmount, uint tokenAmount, uint weiRaisedTotal, uint tokensSoldTotal) public constant returns (bool limitBroken) {}\n\n    function isBreakingInvestorCap(address receiver, uint tokenAmount) public constant returns (bool limitBroken) {}\n\n    /**\n     * Check if the current crowdsale is full and we can no longer sell any tokens.\n     */\n    function isCrowdsaleFull() public constant returns (bool) {}\n\n    /**\n     * Create new tokens or transfer issued tokens to the investor depending on the cap model.\n     */\n    function assignTokens(address receiver, uint tokenAmount) private {}\n}\n",
  "sourcePath": "/home/trungtt/Work/reference/morphe/ico/ico-as-service-new/contracts/CrowdsaleExt.sol",
  "compiler": {
    "name": "solc",
    "version": "0.4.24+commit.e67f0147.Emscripten.clang"
  },
  "schemaVersion": "2.0.1",
  "updatedAt": "2019-02-19T06:25:51.427Z"
}