{
  "contractName": "FinalizeAgent",
  "abi": [
    {
      "constant": true,
      "inputs": [],
      "name": "reservedTokensAreDistributed",
      "outputs": [
        {
          "name": "",
          "type": "bool"
        }
      ],
      "payable": false,
      "stateMutability": "view",
      "type": "function"
    },
    {
      "constant": true,
      "inputs": [],
      "name": "isFinalizeAgent",
      "outputs": [
        {
          "name": "",
          "type": "bool"
        }
      ],
      "payable": false,
      "stateMutability": "view",
      "type": "function"
    },
    {
      "constant": true,
      "inputs": [],
      "name": "isSane",
      "outputs": [
        {
          "name": "",
          "type": "bool"
        }
      ],
      "payable": false,
      "stateMutability": "view",
      "type": "function"
    },
    {
      "constant": false,
      "inputs": [
        {
          "name": "reservedTokensDistributionBatch",
          "type": "uint256"
        }
      ],
      "name": "distributeReservedTokens",
      "outputs": [],
      "payable": false,
      "stateMutability": "nonpayable",
      "type": "function"
    },
    {
      "constant": false,
      "inputs": [],
      "name": "finalizeCrowdsale",
      "outputs": [],
      "payable": false,
      "stateMutability": "nonpayable",
      "type": "function"
    }
  ],
  "bytecode": "0x608060405260008060006101000a81548160ff02191690831515021790555034801561002a57600080fd5b506101988061003a6000396000f30060806040526004361061006d576000357c0100000000000000000000000000000000000000000000000000000000900463ffffffff1680630bf318a314610072578063614cb9041461008957806382771c8e146100b8578063cddaf241146100e7578063f9cb6d7a14610114575b600080fd5b34801561007e57600080fd5b50610087610143565b005b34801561009557600080fd5b5061009e610145565b604051808215151515815260200191505060405180910390f35b3480156100c457600080fd5b506100cd61014e565b604051808215151515815260200191505060405180910390f35b3480156100f357600080fd5b5061011260048036038101908080359060200190929190505050610157565b005b34801561012057600080fd5b5061012961015a565b604051808215151515815260200191505060405180910390f35b565b60006001905090565b60006001905090565b50565b6000809054906101000a900460ff16815600a165627a7a723058208fb682ccdd3ed4c8ec84498063fb6990c29b0888080e019cfdee1e5d9e95f6c70029",
  "source": "/**\n * Issued by Morpheus Labs ICO as a Service Wizard\n */\npragma solidity ^0.4.24;\n\n/**\n * Finalize agent defines what happens at the end of succeseful crowdsale.\n *\n * - Allocate tokens for founders, bounties and community\n * - Make tokens transferable\n * - etc.\n */\ncontract FinalizeAgent {\n\n  bool public reservedTokensAreDistributed = false;\n\n  function isFinalizeAgent() public constant returns (bool) {\n    return true;\n  }\n\n  /** Return true if we can run finalizeCrowdsale() properly.\n   *\n   * This is a safety check function that doesn't allow crowdsale to begin\n   * unless the finalizer has been set up properly.\n   */\n  function isSane() public constant returns (bool) {\n    return true;\n  }\n\n  function distributeReservedTokens(uint reservedTokensDistributionBatch) public {\n\n  }\n\n  /** Called once by crowdsale finalize() if the sale was success. */\n  function finalizeCrowdsale() public {\n\n  }\n\n}",
  "sourcePath": "/home/trungtt/Work/reference/morphe/ico/ico-as-service-new/contracts/lib/FinalizeAgent.sol",
  "compiler": {
    "name": "solc",
    "version": "0.4.24+commit.e67f0147.Emscripten.clang"
  },
  "schemaVersion": "2.0.1",
  "updatedAt": "2019-02-19T06:25:51.441Z"
}