{
  "contractName": "MintedTokenCappedCrowdsaleExt",
  "abi": [
    {
      "constant": true,
      "inputs": [],
      "name": "ownerTestValue",
      "outputs": [
        {
          "name": "",
          "type": "uint256"
        }
      ],
      "payable": false,
      "stateMutability": "view",
      "type": "function"
    },
    {
      "constant": false,
      "inputs": [
        {
          "name": "addr",
          "type": "address"
        }
      ],
      "name": "invest",
      "outputs": [],
      "payable": true,
      "stateMutability": "payable",
      "type": "function"
    },
    {
      "constant": false,
      "inputs": [
        {
          "name": "addrs",
          "type": "address[]"
        }
      ],
      "name": "updateJoinedCrowdsalesMultiple",
      "outputs": [],
      "payable": false,
      "stateMutability": "nonpayable",
      "type": "function"
    },
    {
      "constant": true,
      "inputs": [],
      "name": "isPricingSane",
      "outputs": [
        {
          "name": "sane",
          "type": "bool"
        }
      ],
      "payable": false,
      "stateMutability": "view",
      "type": "function"
    },
    {
      "constant": true,
      "inputs": [],
      "name": "name",
      "outputs": [
        {
          "name": "",
          "type": "string"
        }
      ],
      "payable": false,
      "stateMutability": "view",
      "type": "function"
    },
    {
      "constant": true,
      "inputs": [],
      "name": "endsAt",
      "outputs": [
        {
          "name": "",
          "type": "uint256"
        }
      ],
      "payable": false,
      "stateMutability": "view",
      "type": "function"
    },
    {
      "constant": true,
      "inputs": [
        {
          "name": "addr",
          "type": "address"
        }
      ],
      "name": "isAddressWhitelisted",
      "outputs": [
        {
          "name": "",
          "type": "bool"
        }
      ],
      "payable": false,
      "stateMutability": "view",
      "type": "function"
    },
    {
      "constant": true,
      "inputs": [],
      "name": "minimumFundingGoal",
      "outputs": [
        {
          "name": "",
          "type": "uint256"
        }
      ],
      "payable": false,
      "stateMutability": "view",
      "type": "function"
    },
    {
      "constant": true,
      "inputs": [],
      "name": "getState",
      "outputs": [
        {
          "name": "",
          "type": "uint8"
        }
      ],
      "payable": false,
      "stateMutability": "view",
      "type": "function"
    },
    {
      "constant": false,
      "inputs": [
        {
          "name": "addr",
          "type": "address"
        }
      ],
      "name": "setFinalizeAgent",
      "outputs": [],
      "payable": false,
      "stateMutability": "nonpayable",
      "type": "function"
    },
    {
      "constant": true,
      "inputs": [],
      "name": "whitelistedParticipantsLength",
      "outputs": [
        {
          "name": "",
          "type": "uint256"
        }
      ],
      "payable": false,
      "stateMutability": "view",
      "type": "function"
    },
    {
      "constant": true,
      "inputs": [
        {
          "name": "",
          "type": "address"
        }
      ],
      "name": "investedAmountOf",
      "outputs": [
        {
          "name": "",
          "type": "uint256"
        }
      ],
      "payable": false,
      "stateMutability": "view",
      "type": "function"
    },
    {
      "constant": true,
      "inputs": [],
      "name": "finalizeAgent",
      "outputs": [
        {
          "name": "",
          "type": "address"
        }
      ],
      "payable": false,
      "stateMutability": "view",
      "type": "function"
    },
    {
      "constant": true,
      "inputs": [
        {
          "name": "addr",
          "type": "address"
        }
      ],
      "name": "isTierJoined",
      "outputs": [
        {
          "name": "",
          "type": "bool"
        }
      ],
      "payable": false,
      "stateMutability": "view",
      "type": "function"
    },
    {
      "constant": true,
      "inputs": [],
      "name": "areReservedTokensDistributed",
      "outputs": [
        {
          "name": "",
          "type": "bool"
        }
      ],
      "payable": false,
      "stateMutability": "view",
      "type": "function"
    },
    {
      "constant": true,
      "inputs": [],
      "name": "maximumSellableTokens",
      "outputs": [
        {
          "name": "",
          "type": "uint256"
        }
      ],
      "payable": false,
      "stateMutability": "view",
      "type": "function"
    },
    {
      "constant": true,
      "inputs": [],
      "name": "weiRaised",
      "outputs": [
        {
          "name": "",
          "type": "uint256"
        }
      ],
      "payable": false,
      "stateMutability": "view",
      "type": "function"
    },
    {
      "constant": true,
      "inputs": [],
      "name": "isCrowdsale",
      "outputs": [
        {
          "name": "",
          "type": "bool"
        }
      ],
      "payable": false,
      "stateMutability": "view",
      "type": "function"
    },
    {
      "constant": false,
      "inputs": [],
      "name": "finalize",
      "outputs": [],
      "payable": false,
      "stateMutability": "nonpayable",
      "type": "function"
    },
    {
      "constant": false,
      "inputs": [
        {
          "name": "_pricingStrategy",
          "type": "address"
        }
      ],
      "name": "setPricingStrategy",
      "outputs": [],
      "payable": false,
      "stateMutability": "nonpayable",
      "type": "function"
    },
    {
      "constant": true,
      "inputs": [],
      "name": "tokensSold",
      "outputs": [
        {
          "name": "",
          "type": "uint256"
        }
      ],
      "payable": false,
      "stateMutability": "view",
      "type": "function"
    },
    {
      "constant": false,
      "inputs": [],
      "name": "halt",
      "outputs": [],
      "payable": false,
      "stateMutability": "nonpayable",
      "type": "function"
    },
    {
      "constant": true,
      "inputs": [],
      "name": "MAX_INVESTMENTS_BEFORE_MULTISIG_CHANGE",
      "outputs": [
        {
          "name": "",
          "type": "uint256"
        }
      ],
      "payable": false,
      "stateMutability": "view",
      "type": "function"
    },
    {
      "constant": false,
      "inputs": [
        {
          "name": "time",
          "type": "uint256"
        }
      ],
      "name": "setEndsAt",
      "outputs": [],
      "payable": false,
      "stateMutability": "nonpayable",
      "type": "function"
    },
    {
      "constant": false,
      "inputs": [],
      "name": "renounceOwnership",
      "outputs": [],
      "payable": false,
      "stateMutability": "nonpayable",
      "type": "function"
    },
    {
      "constant": true,
      "inputs": [],
      "name": "pricingStrategy",
      "outputs": [
        {
          "name": "",
          "type": "address"
        }
      ],
      "payable": false,
      "stateMutability": "view",
      "type": "function"
    },
    {
      "constant": true,
      "inputs": [],
      "name": "isMinimumGoalReached",
      "outputs": [
        {
          "name": "reached",
          "type": "bool"
        }
      ],
      "payable": false,
      "stateMutability": "view",
      "type": "function"
    },
    {
      "constant": true,
      "inputs": [],
      "name": "joinedCrowdsalesLenMax",
      "outputs": [
        {
          "name": "",
          "type": "uint8"
        }
      ],
      "payable": false,
      "stateMutability": "view",
      "type": "function"
    },
    {
      "constant": false,
      "inputs": [
        {
          "name": "addr",
          "type": "address"
        },
        {
          "name": "status",
          "type": "bool"
        },
        {
          "name": "minCap",
          "type": "uint256"
        },
        {
          "name": "maxCap",
          "type": "uint256"
        }
      ],
      "name": "setEarlyParticipantWhitelist",
      "outputs": [],
      "payable": false,
      "stateMutability": "nonpayable",
      "type": "function"
    },
    {
      "constant": true,
      "inputs": [],
      "name": "owner",
      "outputs": [
        {
          "name": "",
          "type": "address"
        }
      ],
      "payable": false,
      "stateMutability": "view",
      "type": "function"
    },
    {
      "constant": true,
      "inputs": [],
      "name": "isOwner",
      "outputs": [
        {
          "name": "",
          "type": "bool"
        }
      ],
      "payable": false,
      "stateMutability": "view",
      "type": "function"
    },
    {
      "constant": true,
      "inputs": [],
      "name": "multisigWallet",
      "outputs": [
        {
          "name": "",
          "type": "address"
        }
      ],
      "payable": false,
      "stateMutability": "view",
      "type": "function"
    },
    {
      "constant": true,
      "inputs": [
        {
          "name": "",
          "type": "address"
        }
      ],
      "name": "tokenAmountOf",
      "outputs": [
        {
          "name": "",
          "type": "uint256"
        }
      ],
      "payable": false,
      "stateMutability": "view",
      "type": "function"
    },
    {
      "constant": true,
      "inputs": [],
      "name": "isParamSet",
      "outputs": [
        {
          "name": "",
          "type": "bool"
        }
      ],
      "payable": false,
      "stateMutability": "view",
      "type": "function"
    },
    {
      "constant": false,
      "inputs": [],
      "name": "buy",
      "outputs": [],
      "payable": true,
      "stateMutability": "payable",
      "type": "function"
    },
    {
      "constant": true,
      "inputs": [],
      "name": "isFinalizerSane",
      "outputs": [
        {
          "name": "sane",
          "type": "bool"
        }
      ],
      "payable": false,
      "stateMutability": "view",
      "type": "function"
    },
    {
      "constant": true,
      "inputs": [],
      "name": "startsAt",
      "outputs": [
        {
          "name": "",
          "type": "uint256"
        }
      ],
      "payable": false,
      "stateMutability": "view",
      "type": "function"
    },
    {
      "constant": true,
      "inputs": [
        {
          "name": "addr",
          "type": "address"
        }
      ],
      "name": "getTierPosition",
      "outputs": [
        {
          "name": "",
          "type": "uint8"
        }
      ],
      "payable": false,
      "stateMutability": "view",
      "type": "function"
    },
    {
      "constant": false,
      "inputs": [
        {
          "name": "addrs",
          "type": "address[]"
        },
        {
          "name": "statuses",
          "type": "bool[]"
        },
        {
          "name": "minCaps",
          "type": "uint256[]"
        },
        {
          "name": "maxCaps",
          "type": "uint256[]"
        }
      ],
      "name": "setEarlyParticipantWhitelistMultiple",
      "outputs": [],
      "payable": false,
      "stateMutability": "nonpayable",
      "type": "function"
    },
    {
      "constant": true,
      "inputs": [],
      "name": "finalized",
      "outputs": [
        {
          "name": "",
          "type": "bool"
        }
      ],
      "payable": false,
      "stateMutability": "view",
      "type": "function"
    },
    {
      "constant": true,
      "inputs": [],
      "name": "halted",
      "outputs": [
        {
          "name": "",
          "type": "bool"
        }
      ],
      "payable": false,
      "stateMutability": "view",
      "type": "function"
    },
    {
      "constant": true,
      "inputs": [],
      "name": "canDistributeReservedTokens",
      "outputs": [
        {
          "name": "",
          "type": "bool"
        }
      ],
      "payable": false,
      "stateMutability": "view",
      "type": "function"
    },
    {
      "constant": true,
      "inputs": [
        {
          "name": "",
          "type": "uint256"
        }
      ],
      "name": "joinedCrowdsales",
      "outputs": [
        {
          "name": "",
          "type": "address"
        }
      ],
      "payable": false,
      "stateMutability": "view",
      "type": "function"
    },
    {
      "constant": false,
      "inputs": [
        {
          "name": "time",
          "type": "uint256"
        }
      ],
      "name": "setStartsAt",
      "outputs": [],
      "payable": false,
      "stateMutability": "nonpayable",
      "type": "function"
    },
    {
      "constant": false,
      "inputs": [
        {
          "name": "addr",
          "type": "address"
        },
        {
          "name": "tokensBought",
          "type": "uint256"
        }
      ],
      "name": "updateEarlyParticipantWhitelist",
      "outputs": [],
      "payable": false,
      "stateMutability": "nonpayable",
      "type": "function"
    },
    {
      "constant": true,
      "inputs": [],
      "name": "getLastTier",
      "outputs": [
        {
          "name": "",
          "type": "address"
        }
      ],
      "payable": false,
      "stateMutability": "view",
      "type": "function"
    },
    {
      "constant": true,
      "inputs": [
        {
          "name": "",
          "type": "address"
        }
      ],
      "name": "earlyParticipantWhitelist",
      "outputs": [
        {
          "name": "status",
          "type": "bool"
        },
        {
          "name": "minCap",
          "type": "uint256"
        },
        {
          "name": "maxCap",
          "type": "uint256"
        }
      ],
      "payable": false,
      "stateMutability": "view",
      "type": "function"
    },
    {
      "constant": false,
      "inputs": [],
      "name": "unhalt",
      "outputs": [],
      "payable": false,
      "stateMutability": "nonpayable",
      "type": "function"
    },
    {
      "constant": false,
      "inputs": [
        {
          "name": "reservedTokensDistributionBatch",
          "type": "uint256"
        }
      ],
      "name": "distributeReservedTokens",
      "outputs": [],
      "payable": false,
      "stateMutability": "nonpayable",
      "type": "function"
    },
    {
      "constant": true,
      "inputs": [],
      "name": "investorCount",
      "outputs": [
        {
          "name": "",
          "type": "uint256"
        }
      ],
      "payable": false,
      "stateMutability": "view",
      "type": "function"
    },
    {
      "constant": true,
      "inputs": [
        {
          "name": "",
          "type": "uint256"
        }
      ],
      "name": "whitelistedParticipants",
      "outputs": [
        {
          "name": "",
          "type": "address"
        }
      ],
      "payable": false,
      "stateMutability": "view",
      "type": "function"
    },
    {
      "constant": true,
      "inputs": [],
      "name": "joinedCrowdsalesLen",
      "outputs": [
        {
          "name": "",
          "type": "uint8"
        }
      ],
      "payable": false,
      "stateMutability": "view",
      "type": "function"
    },
    {
      "constant": true,
      "inputs": [],
      "name": "isWhiteListed",
      "outputs": [
        {
          "name": "",
          "type": "bool"
        }
      ],
      "payable": false,
      "stateMutability": "view",
      "type": "function"
    },
    {
      "constant": false,
      "inputs": [
        {
          "name": "newOwner",
          "type": "address"
        }
      ],
      "name": "transferOwnership",
      "outputs": [],
      "payable": false,
      "stateMutability": "nonpayable",
      "type": "function"
    },
    {
      "constant": false,
      "inputs": [
        {
          "name": "addr",
          "type": "address"
        }
      ],
      "name": "setMultisig",
      "outputs": [],
      "payable": false,
      "stateMutability": "nonpayable",
      "type": "function"
    },
    {
      "constant": true,
      "inputs": [],
      "name": "token",
      "outputs": [
        {
          "name": "",
          "type": "address"
        }
      ],
      "payable": false,
      "stateMutability": "view",
      "type": "function"
    },
    {
      "inputs": [],
      "payable": true,
      "stateMutability": "payable",
      "type": "constructor"
    },
    {
      "payable": true,
      "stateMutability": "payable",
      "type": "fallback"
    },
    {
      "anonymous": false,
      "inputs": [
        {
          "indexed": false,
          "name": "newMaximumSellableTokens",
          "type": "uint256"
        }
      ],
      "name": "MaximumSellableTokensChanged",
      "type": "event"
    },
    {
      "anonymous": false,
      "inputs": [
        {
          "indexed": false,
          "name": "investor",
          "type": "address"
        },
        {
          "indexed": false,
          "name": "weiAmount",
          "type": "uint256"
        },
        {
          "indexed": false,
          "name": "tokenAmount",
          "type": "uint256"
        },
        {
          "indexed": false,
          "name": "customerId",
          "type": "uint128"
        }
      ],
      "name": "Invested",
      "type": "event"
    },
    {
      "anonymous": false,
      "inputs": [
        {
          "indexed": false,
          "name": "addr",
          "type": "address"
        },
        {
          "indexed": false,
          "name": "status",
          "type": "bool"
        },
        {
          "indexed": false,
          "name": "minCap",
          "type": "uint256"
        },
        {
          "indexed": false,
          "name": "maxCap",
          "type": "uint256"
        }
      ],
      "name": "Whitelisted",
      "type": "event"
    },
    {
      "anonymous": false,
      "inputs": [
        {
          "indexed": false,
          "name": "addr",
          "type": "address"
        },
        {
          "indexed": false,
          "name": "status",
          "type": "bool"
        },
        {
          "indexed": false,
          "name": "minCap",
          "type": "uint256"
        },
        {
          "indexed": false,
          "name": "maxCap",
          "type": "uint256"
        }
      ],
      "name": "WhitelistItemChanged",
      "type": "event"
    },
    {
      "anonymous": false,
      "inputs": [
        {
          "indexed": false,
          "name": "newStartsAt",
          "type": "uint256"
        }
      ],
      "name": "StartsAtChanged",
      "type": "event"
    },
    {
      "anonymous": false,
      "inputs": [
        {
          "indexed": false,
          "name": "newEndsAt",
          "type": "uint256"
        }
      ],
      "name": "EndsAtChanged",
      "type": "event"
    },
    {
      "anonymous": false,
      "inputs": [
        {
          "indexed": true,
          "name": "previousOwner",
          "type": "address"
        }
      ],
      "name": "OwnershipRenounced",
      "type": "event"
    },
    {
      "anonymous": false,
      "inputs": [
        {
          "indexed": true,
          "name": "previousOwner",
          "type": "address"
        },
        {
          "indexed": true,
          "name": "newOwner",
          "type": "address"
        }
      ],
      "name": "OwnershipTransferred",
      "type": "event"
    },
    {
      "constant": false,
      "inputs": [
        {
          "name": "_name",
          "type": "string"
        },
        {
          "name": "_token",
          "type": "address"
        },
        {
          "name": "_pricingStrategy",
          "type": "address"
        },
        {
          "name": "_multisigWallet",
          "type": "address"
        },
        {
          "name": "_start",
          "type": "uint256"
        },
        {
          "name": "_end",
          "type": "uint256"
        },
        {
          "name": "_minimumFundingGoal",
          "type": "uint256"
        },
        {
          "name": "_isWhiteListed",
          "type": "bool"
        },
        {
          "name": "_maximumSellableTokens",
          "type": "uint256"
        }
      ],
      "name": "setParam",
      "outputs": [],
      "payable": false,
      "stateMutability": "nonpayable",
      "type": "function"
    },
    {
      "constant": true,
      "inputs": [
        {
          "name": "weiAmount",
          "type": "uint256"
        },
        {
          "name": "tokenAmount",
          "type": "uint256"
        },
        {
          "name": "weiRaisedTotal",
          "type": "uint256"
        },
        {
          "name": "tokensSoldTotal",
          "type": "uint256"
        }
      ],
      "name": "isBreakingCap",
      "outputs": [
        {
          "name": "limitBroken",
          "type": "bool"
        }
      ],
      "payable": false,
      "stateMutability": "view",
      "type": "function"
    },
    {
      "constant": true,
      "inputs": [
        {
          "name": "tokensSoldTotal",
          "type": "uint256"
        }
      ],
      "name": "isBreakingCap",
      "outputs": [
        {
          "name": "limitBroken",
          "type": "bool"
        }
      ],
      "payable": false,
      "stateMutability": "view",
      "type": "function"
    },
    {
      "constant": true,
      "inputs": [
        {
          "name": "addr",
          "type": "address"
        },
        {
          "name": "tokenAmount",
          "type": "uint256"
        }
      ],
      "name": "isBreakingInvestorCap",
      "outputs": [
        {
          "name": "limitBroken",
          "type": "bool"
        }
      ],
      "payable": false,
      "stateMutability": "view",
      "type": "function"
    },
    {
      "constant": true,
      "inputs": [],
      "name": "isCrowdsaleFull",
      "outputs": [
        {
          "name": "",
          "type": "bool"
        }
      ],
      "payable": false,
      "stateMutability": "view",
      "type": "function"
    },
    {
      "constant": false,
      "inputs": [
        {
          "name": "tokens",
          "type": "uint256"
        }
      ],
      "name": "setMaximumSellableTokens",
      "outputs": [],
      "payable": false,
      "stateMutability": "nonpayable",
      "type": "function"
    },
    {
      "constant": false,
      "inputs": [
        {
          "name": "newOneTokenInWei",
          "type": "uint256"
        }
      ],
      "name": "updateRate",
      "outputs": [],
      "payable": false,
      "stateMutability": "nonpayable",
      "type": "function"
    },
    {
      "constant": false,
      "inputs": [],
      "name": "finalizeCrowdsale",
      "outputs": [],
      "payable": false,
      "stateMutability": "nonpayable",
      "type": "function"
    }
  ],
  "bytecode": "0x608060405260008060146101000a81548160ff02191690831515021790555060056001556000600a556000600b556000600c556000600f60006101000a81548160ff021916908360ff1602179055506032600f60016101000a81548160ff021916908360ff160217905550336000806101000a81548173ffffffffffffffffffffffffffffffffffffffff021916908373ffffffffffffffffffffffffffffffffffffffff160217905550615150806100b96000396000f3006080604052600436106102f6576000357c0100000000000000000000000000000000000000000000000000000000900463ffffffff1680630226401d146102fb57806303f9c79314610326578063045b1a0c1461035c57806304fc7c6d146103c1578063062b01ce1461042757806306fdde03146104565780630a09284a146104e65780630bf318a31461051157806313f44d101461052857806313f4e977146105835780631865c57d146105ae57806319b667da146105e75780631a98d0de1461062a5780631aae34601461065557806321d5c0f6146106ac578063253ebd921461070357806325e0671f1461075e5780632c2de40a1461078d5780633ad075ea146107ba5780634042b66f146107e55780634551dd59146108105780634bb278f31461083f57806350c6773414610856578063518ab2a814610899578063557e6696146108c45780635ed7ca5b146109c15780636203f09f146109d857806369ea177114610a035780636e50eb3f14610a30578063715018a614610a5d57806378b99c2414610a745780637c2e08a314610acb5780638507bee814610afa578063895594f614610b2b5780638da5cb5b14610b8e5780638f32d59b14610be55780639075becf14610c1457806397b150ca14610c6b5780639981954114610cc25780639d3c663f14610cf1578063a6f2ae3a14610d54578063a7ba44c314610d5e578063af46868214610d8d578063af58574a14610db8578063b1cb574b14610e15578063b3f05b9714610f44578063b9b8af0b14610f73578063bd71933614610fa2578063bede2cac14610fd1578063bf5fc2ee1461103e578063c12eb1911461106b578063c24becf3146110b8578063cb16e6d01461110f578063cb3e64fd14611178578063cddaf2411461118f578063d5d09021146111bc578063d7e64c00146111eb578063df2d33d514611216578063e6d04d5e1461125b578063ebdfa455146112c8578063ef674e66146112f9578063f2fde38b14611328578063f3283fba1461136b578063fc0c546a146113ae575b600080fd5b34801561030757600080fd5b50610310611405565b6040518082815260200191505060405180910390f35b61035a600480360381019080803573ffffffffffffffffffffffffffffffffffffffff16906020019092919050505061140b565b005b34801561036857600080fd5b506103a7600480360381019080803573ffffffffffffffffffffffffffffffffffffffff16906020019092919080359060200190929190505050611419565b604051808215151515815260200191505060405180910390f35b3480156103cd57600080fd5b50610425600480360381019080803590602001908201803590602001908080602002602001604051908101604052809392919081815260200183836020028082843782019150505050505091929192905050506114cd565b005b34801561043357600080fd5b5061043c6115da565b604051808215151515815260200191505060405180910390f35b34801561046257600080fd5b5061046b6116d9565b6040518080602001828103825283818151815260200191508051906020019080838360005b838110156104ab578082015181840152602081019050610490565b50505050905090810190601f1680156104d85780820380516001836020036101000a031916815260200191505b509250505060405180910390f35b3480156104f257600080fd5b506104fb611777565b6040518082815260200191505060405180910390f35b34801561051d57600080fd5b5061052661177d565b005b34801561053457600080fd5b50610569600480360381019080803573ffffffffffffffffffffffffffffffffffffffff16906020019092919050505061177f565b604051808215151515815260200191505060405180910390f35b34801561058f57600080fd5b50610598611822565b6040518082815260200191505060405180910390f35b3480156105ba57600080fd5b506105c3611828565b604051808260068111156105d357fe5b60ff16815260200191505060405180910390f35b3480156105f357600080fd5b50610628600480360381019080803573ffffffffffffffffffffffffffffffffffffffff169060200190929190505050611abf565b005b34801561063657600080fd5b5061063f611cde565b6040518082815260200191505060405180910390f35b34801561066157600080fd5b50610696600480360381019080803573ffffffffffffffffffffffffffffffffffffffff169060200190929190505050611ceb565b6040518082815260200191505060405180910390f35b3480156106b857600080fd5b506106c1611d03565b604051808273ffffffffffffffffffffffffffffffffffffffff1673ffffffffffffffffffffffffffffffffffffffff16815260200191505060405180910390f35b34801561070f57600080fd5b50610744600480360381019080803573ffffffffffffffffffffffffffffffffffffffff169060200190929190505050611d29565b604051808215151515815260200191505060405180910390f35b34801561076a57600080fd5b50610773611d82565b604051808215151515815260200191505060405180910390f35b34801561079957600080fd5b506107b860048036038101908080359060200190929190505050611e4a565b005b3480156107c657600080fd5b506107cf611fe5565b6040518082815260200191505060405180910390f35b3480156107f157600080fd5b506107fa611feb565b6040518082815260200191505060405180910390f35b34801561081c57600080fd5b50610825611ff1565b604051808215151515815260200191505060405180910390f35b34801561084b57600080fd5b50610854611ffa565b005b34801561086257600080fd5b50610897600480360381019080803573ffffffffffffffffffffffffffffffffffffffff1690602001909291905050506121f0565b005b3480156108a557600080fd5b506108ae61240f565b6040518082815260200191505060405180910390f35b3480156108d057600080fd5b506109bf600480360381019080803590602001908201803590602001908080601f0160208091040260200160405190810160405280939291908181526020018383808284378201915050505050509192919290803573ffffffffffffffffffffffffffffffffffffffff169060200190929190803573ffffffffffffffffffffffffffffffffffffffff169060200190929190803573ffffffffffffffffffffffffffffffffffffffff16906020019092919080359060200190929190803590602001909291908035906020019092919080351515906020019092919080359060200190929190505050612415565b005b3480156109cd57600080fd5b506109d66124d5565b005b3480156109e457600080fd5b506109ed61256e565b6040518082815260200191505060405180910390f35b348015610a0f57600080fd5b50610a2e60048036038101908080359060200190929190505050612574565b005b348015610a3c57600080fd5b50610a5b60048036038101908080359060200190929190505050612778565b005b348015610a6957600080fd5b50610a72612a5c565b005b348015610a8057600080fd5b50610a89612b7f565b604051808273ffffffffffffffffffffffffffffffffffffffff1673ffffffffffffffffffffffffffffffffffffffff16815260200191505060405180910390f35b348015610ad757600080fd5b50610ae0612ba5565b604051808215151515815260200191505060405180910390f35b348015610b0657600080fd5b50610b0f612bb4565b604051808260ff1660ff16815260200191505060405180910390f35b348015610b3757600080fd5b50610b8c600480360381019080803573ffffffffffffffffffffffffffffffffffffffff1690602001909291908035151590602001909291908035906020019092919080359060200190929190505050612bc7565b005b348015610b9a57600080fd5b50610ba3612ed0565b604051808273ffffffffffffffffffffffffffffffffffffffff1673ffffffffffffffffffffffffffffffffffffffff16815260200191505060405180910390f35b348015610bf157600080fd5b50610bfa612ef9565b604051808215151515815260200191505060405180910390f35b348015610c2057600080fd5b50610c29612f50565b604051808273ffffffffffffffffffffffffffffffffffffffff1673ffffffffffffffffffffffffffffffffffffffff16815260200191505060405180910390f35b348015610c7757600080fd5b50610cac600480360381019080803573ffffffffffffffffffffffffffffffffffffffff169060200190929190505050612f76565b6040518082815260200191505060405180910390f35b348015610cce57600080fd5b50610cd7612f8e565b604051808215151515815260200191505060405180910390f35b348015610cfd57600080fd5b50610d3a60048036038101908080359060200190929190803590602001909291908035906020019092919080359060200190929190505050612fa1565b604051808215151515815260200191505060405180910390f35b610d5c612fab565b005b348015610d6a57600080fd5b50610d73612fb6565b604051808215151515815260200191505060405180910390f35b348015610d9957600080fd5b50610da261307e565b6040518082815260200191505060405180910390f35b348015610dc457600080fd5b50610df9600480360381019080803573ffffffffffffffffffffffffffffffffffffffff169060200190929190505050613084565b604051808260ff1660ff16815260200191505060405180910390f35b348015610e2157600080fd5b50610f42600480360381019080803590602001908201803590602001908080602002602001604051908101604052809392919081815260200183836020028082843782019150505050505091929192908035906020019082018035906020019080806020026020016040519081016040528093929190818152602001838360200280828437820191505050505050919291929080359060200190820180359060200190808060200260200160405190810160405280939291908181526020018383602002808284378201915050505050509192919290803590602001908201803590602001908080602002602001604051908101604052809392919081815260200183836020028082843782019150505050505091929192905050506130dd565b005b348015610f5057600080fd5b50610f59613235565b604051808215151515815260200191505060405180910390f35b348015610f7f57600080fd5b50610f88613248565b604051808215151515815260200191505060405180910390f35b348015610fae57600080fd5b50610fb761325b565b604051808215151515815260200191505060405180910390f35b348015610fdd57600080fd5b50610ffc6004803603810190808035906020019092919050505061352f565b604051808273ffffffffffffffffffffffffffffffffffffffff1673ffffffffffffffffffffffffffffffffffffffff16815260200191505060405180910390f35b34801561104a57600080fd5b506110696004803603810190808035906020019092919050505061356d565b005b34801561107757600080fd5b506110b6600480360381019080803573ffffffffffffffffffffffffffffffffffffffff16906020019092919080359060200190929190505050613840565b005b3480156110c457600080fd5b506110cd613a8c565b604051808273ffffffffffffffffffffffffffffffffffffffff1673ffffffffffffffffffffffffffffffffffffffff16815260200191505060405180910390f35b34801561111b57600080fd5b50611150600480360381019080803573ffffffffffffffffffffffffffffffffffffffff169060200190929190505050613b06565b6040518084151515158152602001838152602001828152602001935050505060405180910390f35b34801561118457600080fd5b5061118d613b3d565b005b34801561119b57600080fd5b506111ba60048036038101908080359060200190929190505050613bf0565b005b3480156111c857600080fd5b506111d1613dd7565b604051808215151515815260200191505060405180910390f35b3480156111f757600080fd5b50611200613de6565b6040518082815260200191505060405180910390f35b34801561122257600080fd5b5061124160048036038101908080359060200190929190505050613dec565b604051808215151515815260200191505060405180910390f35b34801561126757600080fd5b5061128660048036038101908080359060200190929190505050613dfa565b604051808273ffffffffffffffffffffffffffffffffffffffff1673ffffffffffffffffffffffffffffffffffffffff16815260200191505060405180910390f35b3480156112d457600080fd5b506112dd613e38565b604051808260ff1660ff16815260200191505060405180910390f35b34801561130557600080fd5b5061130e613e4b565b604051808215151515815260200191505060405180910390f35b34801561133457600080fd5b50611369600480360381019080803573ffffffffffffffffffffffffffffffffffffffff169060200190929190505050613e5e565b005b34801561137757600080fd5b506113ac600480360381019080803573ffffffffffffffffffffffffffffffffffffffff169060200190929190505050613ee6565b005b3480156113ba57600080fd5b506113c3613fb9565b604051808273ffffffffffffffffffffffffffffffffffffffff1673ffffffffffffffffffffffffffffffffffffffff16815260200191505060405180910390f35b60155481565b611416816000613fdf565b50565b600080600d60019054906101000a900460ff16151561143457fe5b601360008573ffffffffffffffffffffffffffffffffffffffff1673ffffffffffffffffffffffffffffffffffffffff168152602001908152602001600020600201549050806114c3601260008773ffffffffffffffffffffffffffffffffffffffff1673ffffffffffffffffffffffffffffffffffffffff1681526020019081526020016000205485614743565b1191505092915050565b60006114d7612ef9565b151561154b576040517f08c379a00000000000000000000000000000000000000000000000000000000081526004018080602001828103825260098152602001807f4e6f74206f776e6572000000000000000000000000000000000000000000000081525060200191505060405180910390fd5b6000825111151561155857fe5b6000600f60009054906101000a900460ff1660ff1614151561157657fe5b600f60019054906101000a900460ff1660ff1682511115151561159557fe5b600090505b81518160ff1610156115d6576115c9828260ff168151811015156115ba57fe5b9060200190602002015161476d565b808060010191505061159a565b5050565b6000600360009054906101000a900473ffffffffffffffffffffffffffffffffffffffff1673ffffffffffffffffffffffffffffffffffffffff16638e768288306040518263ffffffff167c0100000000000000000000000000000000000000000000000000000000028152600401808273ffffffffffffffffffffffffffffffffffffffff1673ffffffffffffffffffffffffffffffffffffffff168152602001915050602060405180830381600087803b15801561169957600080fd5b505af11580156116ad573d6000803e3d6000fd5b505050506040513d60208110156116c357600080fd5b8101908080519060200190929190505050905090565b60058054600181600116156101000203166002900480601f01602080910402602001604051908101604052809291908181526020018280546001816001161561010002031660029004801561176f5780601f106117445761010080835404028352916020019161176f565b820191906000526020600020905b81548152906001019060200180831161175257829003601f168201915b505050505081565b60095481565b565b600080600090505b601480549050811015611817578273ffffffffffffffffffffffffffffffffffffffff166014828154811015156117ba57fe5b9060005260206000200160009054906101000a900473ffffffffffffffffffffffffffffffffffffffff1673ffffffffffffffffffffffffffffffffffffffff16141561180a576001915061181c565b8080600101915050611787565b600091505b50919050565b60075481565b6000600d60009054906101000a900460ff16156118485760069050611abc565b6000600460009054906101000a900473ffffffffffffffffffffffffffffffffffffffff1673ffffffffffffffffffffffffffffffffffffffff1614156118925760019050611abc565b600460009054906101000a900473ffffffffffffffffffffffffffffffffffffffff1673ffffffffffffffffffffffffffffffffffffffff166382771c8e6040518163ffffffff167c0100000000000000000000000000000000000000000000000000000000028152600401602060405180830381600087803b15801561191857600080fd5b505af115801561192c573d6000803e3d6000fd5b505050506040513d602081101561194257600080fd5b810190808051906020019092919050505015156119625760019050611abc565b600360009054906101000a900473ffffffffffffffffffffffffffffffffffffffff1673ffffffffffffffffffffffffffffffffffffffff16638e768288306040518263ffffffff167c0100000000000000000000000000000000000000000000000000000000028152600401808273ffffffffffffffffffffffffffffffffffffffff1673ffffffffffffffffffffffffffffffffffffffff168152602001915050602060405180830381600087803b158015611a1f57600080fd5b505af1158015611a33573d6000803e3d6000fd5b505050506040513d6020811015611a4957600080fd5b81019080805190602001909291905050501515611a695760019050611abc565b600854421015611a7c5760029050611abc565b6009544211158015611a935750611a91613dd7565b155b15611aa15760039050611abc565b611aa9612ba5565b15611ab75760049050611abc565b600590505b90565b611ac7612ef9565b1515611b3b576040517f08c379a00000000000000000000000000000000000000000000000000000000081526004018080602001828103825260098152602001807f4e6f74206f776e6572000000000000000000000000000000000000000000000081525060200191505060405180910390fd5b600073ffffffffffffffffffffffffffffffffffffffff168173ffffffffffffffffffffffffffffffffffffffff1614151515611b7457fe5b600073ffffffffffffffffffffffffffffffffffffffff16600460009054906101000a900473ffffffffffffffffffffffffffffffffffffffff1673ffffffffffffffffffffffffffffffffffffffff16141515611bce57fe5b80600460006101000a81548173ffffffffffffffffffffffffffffffffffffffff021916908373ffffffffffffffffffffffffffffffffffffffff160217905550600460009054906101000a900473ffffffffffffffffffffffffffffffffffffffff1673ffffffffffffffffffffffffffffffffffffffff1663614cb9046040518163ffffffff167c0100000000000000000000000000000000000000000000000000000000028152600401602060405180830381600087803b158015611c9557600080fd5b505af1158015611ca9573d6000803e3d6000fd5b505050506040513d6020811015611cbf57600080fd5b81019080805190602001909291905050501515611cdb57600080fd5b50565b6000601480549050905090565b60116020528060005260406000206000915090505481565b600460009054906101000a900473ffffffffffffffffffffffffffffffffffffffff1681565b6000601060008373ffffffffffffffffffffffffffffffffffffffff1673ffffffffffffffffffffffffffffffffffffffff16815260200190815260200160002060000160009054906101000a900460ff169050919050565b6000600460009054906101000a900473ffffffffffffffffffffffffffffffffffffffff1673ffffffffffffffffffffffffffffffffffffffff1663f9cb6d7a6040518163ffffffff167c0100000000000000000000000000000000000000000000000000000000028152600401602060405180830381600087803b158015611e0a57600080fd5b505af1158015611e1e573d6000803e3d6000fd5b505050506040513d6020811015611e3457600080fd5b8101908080519060200190929190505050905090565b6000611e54612ef9565b1515611ec8576040517f08c379a00000000000000000000000000000000000000000000000000000000081526004018080602001828103825260098152602001807f4e6f74206f776e6572000000000000000000000000000000000000000000000081525060200191505060405180910390fd5b600d60009054906101000a900460ff16151515611ee157fe5b6008544211151515611eef57fe5b611ef7613a8c565b90508073ffffffffffffffffffffffffffffffffffffffff1663b3f05b976040518163ffffffff167c0100000000000000000000000000000000000000000000000000000000028152600401602060405180830381600087803b158015611f5d57600080fd5b505af1158015611f71573d6000803e3d6000fd5b505050506040513d6020811015611f8757600080fd5b8101908080519060200190929190505050151515611fa157fe5b816016819055507f7df545c7a1df0d2a1ba979e94124b026facab86a15ed46b6b4a732d995f9e1826016546040518082815260200191505060405180910390a15050565b60165481565b600b5481565b60006001905090565b600480600681111561200857fe5b612010611828565b600681111561201b57fe5b14151561202757600080fd5b61202f612ef9565b15156120a3576040517f08c379a00000000000000000000000000000000000000000000000000000000081526004018080602001828103825260098152602001807f4e6f74206f776e6572000000000000000000000000000000000000000000000081525060200191505060405180910390fd5b600060159054906101000a900460ff161515156120bf57600080fd5b600d60009054906101000a900460ff161515156120db57600080fd5b600073ffffffffffffffffffffffffffffffffffffffff16600460009054906101000a900473ffffffffffffffffffffffffffffffffffffffff1673ffffffffffffffffffffffffffffffffffffffff161415156121d257600460009054906101000a900473ffffffffffffffffffffffffffffffffffffffff1673ffffffffffffffffffffffffffffffffffffffff16630bf318a36040518163ffffffff167c0100000000000000000000000000000000000000000000000000000000028152600401600060405180830381600087803b1580156121b957600080fd5b505af11580156121cd573d6000803e3d6000fd5b505050505b6001600d60006101000a81548160ff02191690831515021790555050565b6121f8612ef9565b151561226c576040517f08c379a00000000000000000000000000000000000000000000000000000000081526004018080602001828103825260098152602001807f4e6f74206f776e6572000000000000000000000000000000000000000000000081525060200191505060405180910390fd5b600073ffffffffffffffffffffffffffffffffffffffff168173ffffffffffffffffffffffffffffffffffffffff16141515156122a557fe5b600073ffffffffffffffffffffffffffffffffffffffff16600360009054906101000a900473ffffffffffffffffffffffffffffffffffffffff1673ffffffffffffffffffffffffffffffffffffffff161415156122ff57fe5b80600360006101000a81548173ffffffffffffffffffffffffffffffffffffffff021916908373ffffffffffffffffffffffffffffffffffffffff160217905550600360009054906101000a900473ffffffffffffffffffffffffffffffffffffffff1673ffffffffffffffffffffffffffffffffffffffff166304bbc2556040518163ffffffff167c0100000000000000000000000000000000000000000000000000000000028152600401602060405180830381600087803b1580156123c657600080fd5b505af11580156123da573d6000803e3d6000fd5b505050506040513d60208110156123f057600080fd5b8101908080519060200190929190505050151561240c57600080fd5b50565b600a5481565b61241d612ef9565b1515612491576040517f08c379a00000000000000000000000000000000000000000000000000000000081526004018080602001828103825260098152602001807f4e6f74206f776e6572000000000000000000000000000000000000000000000081525060200191505060405180910390fd5b60001515600060149054906101000a900460ff1615151415156124b357600080fd5b6124c389898989898989896149ac565b80601681905550505050505050505050565b6124dd612ef9565b1515612551576040517f08c379a00000000000000000000000000000000000000000000000000000000081526004018080602001828103825260098152602001807f4e6f74206f776e6572000000000000000000000000000000000000000000000081525060200191505060405180910390fd5b6001600060156101000a81548160ff021916908315150217905550565b60015481565b600061257e612ef9565b15156125f2576040517f08c379a00000000000000000000000000000000000000000000000000000000081526004018080602001828103825260098152602001807f4e6f74206f776e6572000000000000000000000000000000000000000000000081525060200191505060405180910390fd5b600d60009054906101000a900460ff1615151561260b57fe5b600854421115151561261957fe5b612621613a8c565b90508073ffffffffffffffffffffffffffffffffffffffff1663b3f05b976040518163ffffffff167c0100000000000000000000000000000000000000000000000000000000028152600401602060405180830381600087803b15801561268757600080fd5b505af115801561269b573d6000803e3d6000fd5b505050506040513d60208110156126b157600080fd5b81019080805190602001909291905050501515156126cb57fe5b600360009054906101000a900473ffffffffffffffffffffffffffffffffffffffff1673ffffffffffffffffffffffffffffffffffffffff166369ea1771836040518263ffffffff167c010000000000000000000000000000000000000000000000000000000002815260040180828152602001915050600060405180830381600087803b15801561275c57600080fd5b505af1158015612770573d6000803e3d6000fd5b505050505050565b600080600080612786612ef9565b15156127fa576040517f08c379a00000000000000000000000000000000000000000000000000000000081526004018080602001828103825260098152602001807f4e6f74206f776e6572000000000000000000000000000000000000000000000081525060200191505060405180910390fd5b600d60009054906101000a900460ff1615151561281357fe5b84421115151561281f57fe5b846008541115151561282d57fe5b600954421115151561283b57fe5b612843613a8c565b93508373ffffffffffffffffffffffffffffffffffffffff1663b3f05b976040518163ffffffff167c0100000000000000000000000000000000000000000000000000000000028152600401602060405180830381600087803b1580156128a957600080fd5b505af11580156128bd573d6000803e3d6000fd5b505050506040513d60208110156128d357600080fd5b81019080805190602001909291905050501515156128f057600080fd5b6128f930613084565b92506001830191505b600f60009054906101000a900460ff1660ff168260ff161015612a1557600e8260ff1681548110151561293157fe5b9060005260206000200160009054906101000a900473ffffffffffffffffffffffffffffffffffffffff1690508073ffffffffffffffffffffffffffffffffffffffff1663af4686826040518163ffffffff167c0100000000000000000000000000000000000000000000000000000000028152600401602060405180830381600087803b1580156129c257600080fd5b505af11580156129d6573d6000803e3d6000fd5b505050506040513d60208110156129ec57600080fd5b81019080805190602001909291905050508511151515612a0857fe5b8180600101925050612902565b846009819055507fd34bb772c4ae9baa99db852f622773b31c7827e8ee818449fef20d30980bd3106009546040518082815260200191505060405180910390a15050505050565b612a64612ef9565b1515612ad8576040517f08c379a00000000000000000000000000000000000000000000000000000000081526004018080602001828103825260098152602001807f4e6f74206f776e6572000000000000000000000000000000000000000000000081525060200191505060405180910390fd5b6000809054906101000a900473ffffffffffffffffffffffffffffffffffffffff1673ffffffffffffffffffffffffffffffffffffffff167ff8df31144d9c2f0f6b59d69b8b98abd5459d07f2742c4df920b25aae33c6482060405160405180910390a260008060006101000a81548173ffffffffffffffffffffffffffffffffffffffff021916908373ffffffffffffffffffffffffffffffffffffffff160217905550565b600360009054906101000a900473ffffffffffffffffffffffffffffffffffffffff1681565b6000600754600b541015905090565b600f60019054906101000a900460ff1681565b612bcf612ef9565b1515612c43576040517f08c379a00000000000000000000000000000000000000000000000000000000081526004018080602001828103825260098152602001807f4e6f74206f776e6572000000000000000000000000000000000000000000000081525060200191505060405180910390fd5b600d60019054906101000a900460ff161515612c5e57600080fd5b600073ffffffffffffffffffffffffffffffffffffffff168473ffffffffffffffffffffffffffffffffffffffff1614151515612c9757fe5b600081111515612ca357fe5b808211151515612caf57fe5b6009544211151515612cbd57fe5b612cc68461177f565b1515612db65760148490806001815401808255809150509060018203906000526020600020016000909192909190916101000a81548173ffffffffffffffffffffffffffffffffffffffff021916908373ffffffffffffffffffffffffffffffffffffffff160217905550507fc03e2cbfed65ba7e1df8d32da4afaccb75208d8a6b188f67800ceb19cb9d526484848484604051808573ffffffffffffffffffffffffffffffffffffffff1673ffffffffffffffffffffffffffffffffffffffff1681526020018415151515815260200183815260200182815260200194505050505060405180910390a1612e36565b7f618943c36e69f6b3bae8b5bc48231e8911852a0c844743af41be110450a2a58f84848484604051808573ffffffffffffffffffffffffffffffffffffffff1673ffffffffffffffffffffffffffffffffffffffff1681526020018415151515815260200183815260200182815260200194505050505060405180910390a15b606060405190810160405280841515815260200183815260200182815250601360008673ffffffffffffffffffffffffffffffffffffffff1673ffffffffffffffffffffffffffffffffffffffff16815260200190815260200160002060008201518160000160006101000a81548160ff021916908315150217905550602082015181600101556040820151816002015590505050505050565b60008060009054906101000a900473ffffffffffffffffffffffffffffffffffffffff16905090565b60008060009054906101000a900473ffffffffffffffffffffffffffffffffffffffff1673ffffffffffffffffffffffffffffffffffffffff163373ffffffffffffffffffffffffffffffffffffffff1614905090565b600660009054906101000a900473ffffffffffffffffffffffffffffffffffffffff1681565b60126020528060005260406000206000915090505481565b600060149054906101000a900460ff1681565b6000949350505050565b612fb43361140b565b565b6000600460009054906101000a900473ffffffffffffffffffffffffffffffffffffffff1673ffffffffffffffffffffffffffffffffffffffff166382771c8e6040518163ffffffff167c0100000000000000000000000000000000000000000000000000000000028152600401602060405180830381600087803b15801561303e57600080fd5b505af1158015613052573d6000803e3d6000fd5b505050506040513d602081101561306857600080fd5b8101908080519060200190929190505050905090565b60085481565b6000601060008373ffffffffffffffffffffffffffffffffffffffff1673ffffffffffffffffffffffffffffffffffffffff16815260200190815260200160002060000160019054906101000a900460ff169050919050565b60006130e7612ef9565b151561315b576040517f08c379a00000000000000000000000000000000000000000000000000000000081526004018080602001828103825260098152602001807f4e6f74206f776e6572000000000000000000000000000000000000000000000081525060200191505060405180910390fd5b600d60019054906101000a900460ff16151561317657600080fd5b600954421115151561318457fe5b8351855114151561319157fe5b8251845114151561319e57fe5b815183511415156131ab57fe5b600090505b845181101561322e5761322185828151811015156131ca57fe5b9060200190602002015185838151811015156131e257fe5b9060200190602002015185848151811015156131fa57fe5b90602001906020020151858581518110151561321257fe5b90602001906020020151612bc7565b80806001019150506131b0565b5050505050565b600d60009054906101000a900460ff1681565b600060159054906101000a900460ff1681565b600080613266613a8c565b90506004600681111561327557fe5b8173ffffffffffffffffffffffffffffffffffffffff16631865c57d6040518163ffffffff167c0100000000000000000000000000000000000000000000000000000000028152600401602060405180830381600087803b1580156132d957600080fd5b505af11580156132ed573d6000803e3d6000fd5b505050506040513d602081101561330357600080fd5b8101908080519060200190929190505050600681111561331f57fe5b1480156133c857508073ffffffffffffffffffffffffffffffffffffffff1663b9b8af0b6040518163ffffffff167c0100000000000000000000000000000000000000000000000000000000028152600401602060405180830381600087803b15801561338b57600080fd5b505af115801561339f573d6000803e3d6000fd5b505050506040513d60208110156133b557600080fd5b8101908080519060200190929190505050155b801561347057508073ffffffffffffffffffffffffffffffffffffffff1663b3f05b976040518163ffffffff167c0100000000000000000000000000000000000000000000000000000000028152600401602060405180830381600087803b15801561343357600080fd5b505af1158015613447573d6000803e3d6000fd5b505050506040513d602081101561345d57600080fd5b8101908080519060200190929190505050155b801561351857508073ffffffffffffffffffffffffffffffffffffffff166325e0671f6040518163ffffffff167c0100000000000000000000000000000000000000000000000000000000028152600401602060405180830381600087803b1580156134db57600080fd5b505af11580156134ef573d6000803e3d6000fd5b505050506040513d602081101561350557600080fd5b8101908080519060200190929190505050155b15613526576001915061352b565b600091505b5090565b600e8181548110151561353e57fe5b906000526020600020016000915054906101000a900473ffffffffffffffffffffffffffffffffffffffff1681565b60008060008061357b612ef9565b15156135ef576040517f08c379a00000000000000000000000000000000000000000000000000000000081526004018080602001828103825260098152602001807f4e6f74206f776e6572000000000000000000000000000000000000000000000081525060200191505060405180910390fd5b600d60009054906101000a900460ff1615151561360857fe5b84421115151561361457fe5b600954851115151561362257fe5b600854421115151561363057fe5b613638613a8c565b93508373ffffffffffffffffffffffffffffffffffffffff1663b3f05b976040518163ffffffff167c0100000000000000000000000000000000000000000000000000000000028152600401602060405180830381600087803b15801561369e57600080fd5b505af11580156136b2573d6000803e3d6000fd5b505050506040513d60208110156136c857600080fd5b81019080805190602001909291905050501515156136e557600080fd5b6136ee30613084565b9250600091505b8260ff168260ff1610156137f957600e8260ff1681548110151561371557fe5b9060005260206000200160009054906101000a900473ffffffffffffffffffffffffffffffffffffffff1690508073ffffffffffffffffffffffffffffffffffffffff16630a09284a6040518163ffffffff167c0100000000000000000000000000000000000000000000000000000000028152600401602060405180830381600087803b1580156137a657600080fd5b505af11580156137ba573d6000803e3d6000fd5b505050506040513d60208110156137d057600080fd5b810190808051906020019092919050505085101515156137ec57fe5b81806001019250506136f5565b846008819055507fa3f2a813a039e5195c620dabcd490267a9aa5a50e4e1383bc474e9b800f7defe6008546040518082815260200191505060405180910390a15050505050565b6000600d60019054906101000a900460ff16151561385d57600080fd5b600073ffffffffffffffffffffffffffffffffffffffff168373ffffffffffffffffffffffffffffffffffffffff161415151561389657fe5b60095442111515156138a457fe5b6138ad33611d29565b15156138b557fe5b601360008473ffffffffffffffffffffffffffffffffffffffff1673ffffffffffffffffffffffffffffffffffffffff16815260200190815260200160002060010154821015801561394757506000601260008573ffffffffffffffffffffffffffffffffffffffff1673ffffffffffffffffffffffffffffffffffffffff1681526020019081526020016000205414155b151561395257600080fd5b601360008473ffffffffffffffffffffffffffffffffffffffff1673ffffffffffffffffffffffffffffffffffffffff1681526020019081526020016000206002015490506139a18183614c22565b9050606060405190810160405280601360008673ffffffffffffffffffffffffffffffffffffffff1673ffffffffffffffffffffffffffffffffffffffff16815260200190815260200160002060000160009054906101000a900460ff16151581526020016000815260200182815250601360008573ffffffffffffffffffffffffffffffffffffffff1673ffffffffffffffffffffffffffffffffffffffff16815260200190815260200160002060008201518160000160006101000a81548160ff0219169083151502179055506020820151816001015560408201518160020155905050505050565b600080600f60009054906101000a900460ff1660ff161115613afe57600e6001600f60009054906101000a900460ff160360ff16815481101515613acc57fe5b9060005260206000200160009054906101000a900473ffffffffffffffffffffffffffffffffffffffff169050613b03565b600090505b90565b60136020528060005260406000206000915090508060000160009054906101000a900460ff16908060010154908060020154905083565b613b45612ef9565b1515613bb9576040517f08c379a00000000000000000000000000000000000000000000000000000000081526004018080602001828103825260098152602001807f4e6f74206f776e6572000000000000000000000000000000000000000000000081525060200191505060405180910390fd5b600060159054906101000a900460ff161515613bd457600080fd5b60008060156101000a81548160ff021916908315150217905550565b6004806006811115613bfe57fe5b613c06611828565b6006811115613c1157fe5b141515613c1d57600080fd5b613c25612ef9565b1515613c99576040517f08c379a00000000000000000000000000000000000000000000000000000000081526004018080602001828103825260098152602001807f4e6f74206f776e6572000000000000000000000000000000000000000000000081525060200191505060405180910390fd5b600060159054906101000a900460ff16151515613cb557600080fd5b600d60009054906101000a900460ff16151515613cd157600080fd5b600073ffffffffffffffffffffffffffffffffffffffff16600460009054906101000a900473ffffffffffffffffffffffffffffffffffffffff1673ffffffffffffffffffffffffffffffffffffffff16141515613dd357600460009054906101000a900473ffffffffffffffffffffffffffffffffffffffff1673ffffffffffffffffffffffffffffffffffffffff1663cddaf241836040518263ffffffff167c010000000000000000000000000000000000000000000000000000000002815260040180828152602001915050600060405180830381600087803b158015613dba57600080fd5b505af1158015613dce573d6000803e3d6000fd5b505050505b5050565b6000601654600a541015905090565b600c5481565b600060165482119050919050565b601481815481101515613e0957fe5b906000526020600020016000915054906101000a900473ffffffffffffffffffffffffffffffffffffffff1681565b600f60009054906101000a900460ff1681565b600d60019054906101000a900460ff1681565b613e66612ef9565b1515613eda576040517f08c379a00000000000000000000000000000000000000000000000000000000081526004018080602001828103825260098152602001807f4e6f74206f776e6572000000000000000000000000000000000000000000000081525060200191505060405180910390fd5b613ee381614c3b565b50565b613eee612ef9565b1515613f62576040517f08c379a00000000000000000000000000000000000000000000000000000000081526004018080602001828103825260098152602001807f4e6f74206f776e6572000000000000000000000000000000000000000000000081525060200191505060405180910390fd5b600154600c5411151515613f7557600080fd5b80600660006101000a81548173ffffffffffffffffffffffffffffffffffffffff021916908373ffffffffffffffffffffffffffffffffffffffff16021790555050565b600260009054906101000a900473ffffffffffffffffffffffffffffffffffffffff1681565b600080600060159054906101000a900460ff16151515613ffe57600080fd5b6003600681111561400b57fe5b614013611828565b600681111561401e57fe5b14151561402a57600080fd5b600d60019054906101000a900460ff161561409b57601360008573ffffffffffffffffffffffffffffffffffffffff1673ffffffffffffffffffffffffffffffffffffffff16815260200190815260200160002060000160009054906101000a900460ff16151561409a57600080fd5b5b349150600360009054906101000a900473ffffffffffffffffffffffffffffffffffffffff1673ffffffffffffffffffffffffffffffffffffffff166318a4155e83600b54600a5433600260009054906101000a900473ffffffffffffffffffffffffffffffffffffffff1673ffffffffffffffffffffffffffffffffffffffff1663313ce5676040518163ffffffff167c0100000000000000000000000000000000000000000000000000000000028152600401602060405180830381600087803b15801561416a57600080fd5b505af115801561417e573d6000803e3d6000fd5b505050506040513d602081101561419457600080fd5b81019080805190602001909291905050506040518663ffffffff167c0100000000000000000000000000000000000000000000000000000000028152600401808681526020018581526020018481526020018373ffffffffffffffffffffffffffffffffffffffff1673ffffffffffffffffffffffffffffffffffffffff16815260200182815260200195505050505050602060405180830381600087803b15801561423f57600080fd5b505af1158015614253573d6000803e3d6000fd5b505050506040513d602081101561426957600080fd5b810190808051906020019092919050505090506000811415151561428c57600080fd5b600d60019054906101000a900460ff161561436357601360008573ffffffffffffffffffffffffffffffffffffffff1673ffffffffffffffffffffffffffffffffffffffff16815260200190815260200160002060010154811015801561433357506000601260008673ffffffffffffffffffffffffffffffffffffffff1673ffffffffffffffffffffffffffffffffffffffff1681526020019081526020016000205414155b151561433e57600080fd5b6143488482611419565b15151561435457600080fd5b61435e8482614d9e565b61447f565b600260009054906101000a900473ffffffffffffffffffffffffffffffffffffffff1673ffffffffffffffffffffffffffffffffffffffff16633fa615b06040518163ffffffff167c0100000000000000000000000000000000000000000000000000000000028152600401602060405180830381600087803b1580156143e957600080fd5b505af11580156143fd573d6000803e3d6000fd5b505050506040513d602081101561441357600080fd5b8101908080519060200190929190505050811015801561447357506000601260008673ffffffffffffffffffffffffffffffffffffffff1673ffffffffffffffffffffffffffffffffffffffff1681526020019081526020016000205414155b151561447e57600080fd5b5b6000601160008673ffffffffffffffffffffffffffffffffffffffff1673ffffffffffffffffffffffffffffffffffffffff1681526020019081526020016000205414156144da57600c600081548092919060010191905055505b614523601160008673ffffffffffffffffffffffffffffffffffffffff1673ffffffffffffffffffffffffffffffffffffffff1681526020019081526020016000205483614743565b601160008673ffffffffffffffffffffffffffffffffffffffff1673ffffffffffffffffffffffffffffffffffffffff168152602001908152602001600020819055506145af601260008673ffffffffffffffffffffffffffffffffffffffff1673ffffffffffffffffffffffffffffffffffffffff1681526020019081526020016000205482614743565b601260008673ffffffffffffffffffffffffffffffffffffffff1673ffffffffffffffffffffffffffffffffffffffff168152602001908152602001600020819055506145fe600b5483614743565b600b81905550614610600a5482614743565b600a819055506146268282600b54600a54612fa1565b15151561463257600080fd5b61463c8482614f98565b600660009054906101000a900473ffffffffffffffffffffffffffffffffffffffff1673ffffffffffffffffffffffffffffffffffffffff166108fc839081150290604051600060405180830381858888f19350505050151561469e57600080fd5b7f0396f60aaad038749091d273dc13aaabc63db6e2271c7bad442d5cf25cc4335084838386604051808573ffffffffffffffffffffffffffffffffffffffff1673ffffffffffffffffffffffffffffffffffffffff168152602001848152602001838152602001826fffffffffffffffffffffffffffffffff166fffffffffffffffffffffffffffffffff16815260200194505050505060405180910390a150505050565b600080828401905083811015801561475b5750828110155b151561476357fe5b8091505092915050565b614775612ef9565b15156147e9576040517f08c379a00000000000000000000000000000000000000000000000000000000081526004018080602001828103825260098152602001807f4e6f74206f776e6572000000000000000000000000000000000000000000000081525060200191505060405180910390fd5b600073ffffffffffffffffffffffffffffffffffffffff168173ffffffffffffffffffffffffffffffffffffffff161415151561482257fe5b600f60019054906101000a900460ff1660ff16600f60009054906101000a900460ff1660ff161115151561485257fe5b61485b81611d29565b15151561486457fe5b600e8190806001815401808255809150509060018203906000526020600020016000909192909190916101000a81548173ffffffffffffffffffffffffffffffffffffffff021916908373ffffffffffffffffffffffffffffffffffffffff160217905550506040805190810160405280600115158152602001600f60009054906101000a900460ff1660ff16815250601060008373ffffffffffffffffffffffffffffffffffffffff1673ffffffffffffffffffffffffffffffffffffffff16815260200190815260200160002060008201518160000160006101000a81548160ff02191690831515021790555060208201518160000160016101000a81548160ff021916908360ff160217905550905050600f600081819054906101000a900460ff168092919060010191906101000a81548160ff021916908360ff1602179055505050565b6149b4612ef9565b1515614a28576040517f08c379a00000000000000000000000000000000000000000000000000000000081526004018080602001828103825260098152602001807f4e6f74206f776e6572000000000000000000000000000000000000000000000081525060200191505060405180910390fd5b60001515600060149054906101000a900460ff161515141515614a4a57600080fd5b600073ffffffffffffffffffffffffffffffffffffffff168573ffffffffffffffffffffffffffffffffffffffff1614151515614a8657600080fd5b600073ffffffffffffffffffffffffffffffffffffffff168773ffffffffffffffffffffffffffffffffffffffff1614151515614ac257600080fd5b600073ffffffffffffffffffffffffffffffffffffffff168673ffffffffffffffffffffffffffffffffffffffff1614151515614afe57600080fd5b60008414151515614b0e57600080fd5b60008314151515614b1e57600080fd5b8284101515614b2c57600080fd5b8760059080519060200190614b4292919061507f565b5086600260006101000a81548173ffffffffffffffffffffffffffffffffffffffff021916908373ffffffffffffffffffffffffffffffffffffffff160217905550614b8d866121f0565b84600660006101000a81548173ffffffffffffffffffffffffffffffffffffffff021916908373ffffffffffffffffffffffffffffffffffffffff16021790555083600881905550826009819055508160078190555080600d60016101000a81548160ff0219169083151502179055506001600060146101000a81548160ff0219169083151502179055505050505050505050565b6000828211151515614c3057fe5b818303905092915050565b600073ffffffffffffffffffffffffffffffffffffffff168173ffffffffffffffffffffffffffffffffffffffff1614151515614ce0576040517f08c379a00000000000000000000000000000000000000000000000000000000081526004018080602001828103825260168152602001807f4e6577206f776e6572206164647265737320697320300000000000000000000081525060200191505060405180910390fd5b8073ffffffffffffffffffffffffffffffffffffffff166000809054906101000a900473ffffffffffffffffffffffffffffffffffffffff1673ffffffffffffffffffffffffffffffffffffffff167f8be0079c531659141344cd1fd0a4f28419497f9722a3daafe3b4186f6b6457e060405160405180910390a3806000806101000a81548173ffffffffffffffffffffffffffffffffffffffff021916908373ffffffffffffffffffffffffffffffffffffffff16021790555050565b6000806000600d60019054906101000a900460ff161515614dbe57600080fd5b601360008673ffffffffffffffffffffffffffffffffffffffff1673ffffffffffffffffffffffffffffffffffffffff168152602001908152602001600020600101548410158015614e5057506000601260008773ffffffffffffffffffffffffffffffffffffffff1673ffffffffffffffffffffffffffffffffffffffff1681526020019081526020016000205414155b1515614e5b57600080fd5b614e6430613084565b92506001830191505b600f60009054906101000a900460ff1660ff168260ff161015614f9157600e8260ff16815481101515614e9c57fe5b9060005260206000200160009054906101000a900473ffffffffffffffffffffffffffffffffffffffff1690508073ffffffffffffffffffffffffffffffffffffffff1663c12eb19186866040518363ffffffff167c0100000000000000000000000000000000000000000000000000000000028152600401808373ffffffffffffffffffffffffffffffffffffffff1673ffffffffffffffffffffffffffffffffffffffff16815260200182815260200192505050600060405180830381600087803b158015614f6c57600080fd5b505af1158015614f80573d6000803e3d6000fd5b505050508180600101925050614e6d565b5050505050565b6000600260009054906101000a900473ffffffffffffffffffffffffffffffffffffffff1690508073ffffffffffffffffffffffffffffffffffffffff166340c10f1984846040518363ffffffff167c0100000000000000000000000000000000000000000000000000000000028152600401808373ffffffffffffffffffffffffffffffffffffffff1673ffffffffffffffffffffffffffffffffffffffff16815260200182815260200192505050600060405180830381600087803b15801561506257600080fd5b505af1158015615076573d6000803e3d6000fd5b50505050505050565b828054600181600116156101000203166002900490600052602060002090601f016020900481019282601f106150c057805160ff19168380011785556150ee565b828001600101855582156150ee579182015b828111156150ed5782518255916020019190600101906150d2565b5b5090506150fb91906150ff565b5090565b61512191905b8082111561511d576000816000905550600101615105565b5090565b905600a165627a7a72305820d3fa841646757e8010adfe7611dafacbd01ed24dadeb6751a827336d06ca5dc80029",
  "source": "/**\n * Issued by Morpheus Labs ICO as a Service Wizard\n */\npragma solidity ^0.4.24;\n\nimport \"./CrowdsaleExt.sol\";\n\n/**\n * ICO crowdsale contract that is capped by amout of tokens.\n *\n * - Tokens are dynamically created during the crowdsale\n *\n *\n */\ncontract MintedTokenCappedCrowdsaleExt is CrowdsaleExt {\n\n    /* Maximum amount of tokens this crowdsale can sell. */\n    uint public maximumSellableTokens;\n\n    constructor() payable {\n\n    }\n\n    function setParam(string _name, address _token, PricingStrategy _pricingStrategy, address _multisigWallet, uint _start, uint _end, uint _minimumFundingGoal, bool _isWhiteListed, uint _maximumSellableTokens) public onlyOwner paramNotSet {\n\n        setParamInternal(_name, _token, _pricingStrategy, _multisigWallet, _start, _end, _minimumFundingGoal, _isWhiteListed);\n\n        maximumSellableTokens = _maximumSellableTokens;\n    }\n\n    // Crowdsale maximumSellableTokens has been changed\n    event MaximumSellableTokensChanged(uint newMaximumSellableTokens);\n\n    /**\n     * Called from invest() to confirm if the curret investment does not break our cap rule.\n     */\n    function isBreakingCap(uint tokensSoldTotal) public constant returns (bool limitBroken) {\n        return tokensSoldTotal > maximumSellableTokens;\n    }\n\n    function isBreakingInvestorCap(address addr, uint tokenAmount) public constant returns (bool limitBroken) {\n        assert(isWhiteListed);\n        uint maxCap = earlyParticipantWhitelist[addr].maxCap;\n        return (safeAdd(tokenAmountOf[addr], tokenAmount)) > maxCap;\n    }\n\n    function isCrowdsaleFull() public constant returns (bool) {\n        return tokensSold >= maximumSellableTokens;\n    }\n\n    function setMaximumSellableTokens(uint tokens) public onlyOwner {\n        assert(!finalized);\n        assert(now <= startsAt);\n\n        CrowdsaleExt lastTierCntrct = CrowdsaleExt(getLastTier());\n        assert(!lastTierCntrct.finalized());\n\n        maximumSellableTokens = tokens;\n        MaximumSellableTokensChanged(maximumSellableTokens);\n    }\n\n    function updateRate(uint newOneTokenInWei) public onlyOwner {\n        assert(!finalized);\n        assert(now <= startsAt);\n\n        CrowdsaleExt lastTierCntrct = CrowdsaleExt(getLastTier());\n        assert(!lastTierCntrct.finalized());\n\n        pricingStrategy.updateRate(newOneTokenInWei);\n    }\n\n    /**\n     * Dynamically create tokens and assign them to the investor.\n     */\n    function assignTokens(address receiver, uint tokenAmount) private {\n        MintableTokenExt mintableToken = MintableTokenExt(token);\n        mintableToken.mint(receiver, tokenAmount);\n    }\n\n    function finalizeCrowdsale() public {\n\n    }\n}\n",
  "sourcePath": "/home/trungtt/Work/reference/morphe/ico/ico-as-service-new/contracts/MintedTokenCappedCrowdsaleExt.sol",
  "compiler": {
    "name": "solc",
    "version": "0.4.24+commit.e67f0147.Emscripten.clang"
  },
  "schemaVersion": "2.0.1",
  "updatedAt": "2019-02-19T06:25:51.436Z"
}