{
  "contractName": "TokenVesting",
  "abi": [
    {
      "constant": true,
      "inputs": [],
      "name": "totalVestedTokens",
      "outputs": [
        {
          "name": "",
          "type": "uint256"
        }
      ],
      "payable": false,
      "stateMutability": "view",
      "type": "function"
    },
    {
      "constant": false,
      "inputs": [],
      "name": "renounceOwnership",
      "outputs": [],
      "payable": false,
      "stateMutability": "nonpayable",
      "type": "function"
    },
    {
      "constant": true,
      "inputs": [],
      "name": "owner",
      "outputs": [
        {
          "name": "",
          "type": "address"
        }
      ],
      "payable": false,
      "stateMutability": "view",
      "type": "function"
    },
    {
      "constant": true,
      "inputs": [],
      "name": "isOwner",
      "outputs": [
        {
          "name": "",
          "type": "bool"
        }
      ],
      "payable": false,
      "stateMutability": "view",
      "type": "function"
    },
    {
      "constant": true,
      "inputs": [
        {
          "name": "",
          "type": "uint256"
        }
      ],
      "name": "vestedAddresses",
      "outputs": [
        {
          "name": "",
          "type": "address"
        }
      ],
      "payable": false,
      "stateMutability": "view",
      "type": "function"
    },
    {
      "constant": true,
      "inputs": [],
      "name": "slide",
      "outputs": [
        {
          "name": "",
          "type": "uint256"
        }
      ],
      "payable": false,
      "stateMutability": "view",
      "type": "function"
    },
    {
      "constant": true,
      "inputs": [],
      "name": "isParamSet",
      "outputs": [
        {
          "name": "",
          "type": "bool"
        }
      ],
      "payable": false,
      "stateMutability": "view",
      "type": "function"
    },
    {
      "constant": true,
      "inputs": [
        {
          "name": "",
          "type": "address"
        }
      ],
      "name": "grants",
      "outputs": [
        {
          "name": "value",
          "type": "uint256"
        },
        {
          "name": "level",
          "type": "uint256"
        },
        {
          "name": "transferred",
          "type": "uint256"
        }
      ],
      "payable": false,
      "stateMutability": "view",
      "type": "function"
    },
    {
      "constant": true,
      "inputs": [],
      "name": "start",
      "outputs": [
        {
          "name": "",
          "type": "uint256"
        }
      ],
      "payable": false,
      "stateMutability": "view",
      "type": "function"
    },
    {
      "constant": true,
      "inputs": [],
      "name": "locked",
      "outputs": [
        {
          "name": "",
          "type": "bool"
        }
      ],
      "payable": false,
      "stateMutability": "view",
      "type": "function"
    },
    {
      "constant": true,
      "inputs": [],
      "name": "end",
      "outputs": [
        {
          "name": "",
          "type": "uint256"
        }
      ],
      "payable": false,
      "stateMutability": "view",
      "type": "function"
    },
    {
      "constant": false,
      "inputs": [
        {
          "name": "newOwner",
          "type": "address"
        }
      ],
      "name": "transferOwnership",
      "outputs": [],
      "payable": false,
      "stateMutability": "nonpayable",
      "type": "function"
    },
    {
      "constant": true,
      "inputs": [],
      "name": "token",
      "outputs": [
        {
          "name": "",
          "type": "address"
        }
      ],
      "payable": false,
      "stateMutability": "view",
      "type": "function"
    },
    {
      "inputs": [
        {
          "name": "_token",
          "type": "address"
        }
      ],
      "payable": false,
      "stateMutability": "nonpayable",
      "type": "constructor"
    },
    {
      "anonymous": false,
      "inputs": [
        {
          "indexed": false,
          "name": "_time",
          "type": "uint256"
        }
      ],
      "name": "StartVesting",
      "type": "event"
    },
    {
      "anonymous": false,
      "inputs": [
        {
          "indexed": false,
          "name": "_holder",
          "type": "address"
        },
        {
          "indexed": false,
          "name": "_amount",
          "type": "uint256"
        }
      ],
      "name": "NewGrant",
      "type": "event"
    },
    {
      "anonymous": false,
      "inputs": [
        {
          "indexed": false,
          "name": "_holder",
          "type": "address"
        },
        {
          "indexed": false,
          "name": "_amount",
          "type": "uint256"
        }
      ],
      "name": "NewRelease",
      "type": "event"
    },
    {
      "anonymous": false,
      "inputs": [
        {
          "indexed": false,
          "name": "_amount",
          "type": "uint256"
        }
      ],
      "name": "WithdrawAll",
      "type": "event"
    },
    {
      "anonymous": false,
      "inputs": [
        {
          "indexed": false,
          "name": "_address",
          "type": "address"
        }
      ],
      "name": "LockedVault",
      "type": "event"
    },
    {
      "anonymous": false,
      "inputs": [
        {
          "indexed": true,
          "name": "previousOwner",
          "type": "address"
        }
      ],
      "name": "OwnershipRenounced",
      "type": "event"
    },
    {
      "anonymous": false,
      "inputs": [
        {
          "indexed": true,
          "name": "previousOwner",
          "type": "address"
        },
        {
          "indexed": true,
          "name": "newOwner",
          "type": "address"
        }
      ],
      "name": "OwnershipTransferred",
      "type": "event"
    },
    {
      "constant": false,
      "inputs": [
        {
          "name": "_start",
          "type": "uint256"
        },
        {
          "name": "_slide",
          "type": "uint256"
        }
      ],
      "name": "startVesting",
      "outputs": [],
      "payable": false,
      "stateMutability": "nonpayable",
      "type": "function"
    },
    {
      "constant": false,
      "inputs": [
        {
          "name": "_to",
          "type": "address"
        },
        {
          "name": "_value",
          "type": "uint256"
        },
        {
          "name": "_level",
          "type": "uint256"
        }
      ],
      "name": "grant",
      "outputs": [],
      "payable": false,
      "stateMutability": "nonpayable",
      "type": "function"
    },
    {
      "constant": true,
      "inputs": [
        {
          "name": "_holder",
          "type": "address"
        },
        {
          "name": "_time",
          "type": "uint256"
        }
      ],
      "name": "transferableTokens",
      "outputs": [
        {
          "name": "",
          "type": "uint256"
        }
      ],
      "payable": false,
      "stateMutability": "view",
      "type": "function"
    },
    {
      "constant": false,
      "inputs": [],
      "name": "claim",
      "outputs": [],
      "payable": false,
      "stateMutability": "nonpayable",
      "type": "function"
    },
    {
      "constant": false,
      "inputs": [
        {
          "name": "teamWallet",
          "type": "address"
        }
      ],
      "name": "withdraw",
      "outputs": [],
      "payable": false,
      "stateMutability": "nonpayable",
      "type": "function"
    },
    {
      "constant": false,
      "inputs": [],
      "name": "lockVault",
      "outputs": [],
      "payable": false,
      "stateMutability": "nonpayable",
      "type": "function"
    }
  ],
  "bytecode": "0x608060405260008060146101000a81548160ff02191690831515021790555034801561002a57600080fd5b50604051602080611a5383398101806040528101908080519060200190929190505050336000806101000a81548173ffffffffffffffffffffffffffffffffffffffff021916908373ffffffffffffffffffffffffffffffffffffffff16021790555060008173ffffffffffffffffffffffffffffffffffffffff161415151561011c576040517f08c379a00000000000000000000000000000000000000000000000000000000081526004018080602001828103825260208152602001807f546f6b656e20616464726573732073686f756c64206e6f74206265207a65726f81525060200191505060405180910390fd5b80600160006101000a81548173ffffffffffffffffffffffffffffffffffffffff021916908373ffffffffffffffffffffffffffffffffffffffff1602179055506000600760006101000a81548160ff021916908315150217905550506118cb806101886000396000f300608060405260043610610107576000357c0100000000000000000000000000000000000000000000000000000000900463ffffffff16806348bdd1981461010c5780634e71d92d1461012357806351cff8d91461013a57806351e096311461017d578063715018a6146101a85780637fdb5031146101bf5780638da5cb5b146102205780638f32d59b14610277578063946b6a38146102a6578063982f3bfd14610313578063998195411461033e578063b69a23291461036d578063b869cea3146103c4578063be9a655514610429578063bf85e62814610454578063cf3090121461048b578063efbe1c1c146104ba578063f2fde38b146104e5578063fc0c546a14610528575b600080fd5b34801561011857600080fd5b5061012161057f565b005b34801561012f57600080fd5b5061013861059c565b005b34801561014657600080fd5b5061017b600480360381019080803573ffffffffffffffffffffffffffffffffffffffff169060200190929190505050610953565b005b34801561018957600080fd5b50610192610b8b565b6040518082815260200191505060405180910390f35b3480156101b457600080fd5b506101bd610b91565b005b3480156101cb57600080fd5b5061020a600480360381019080803573ffffffffffffffffffffffffffffffffffffffff16906020019092919080359060200190929190505050610cb4565b6040518082815260200191505060405180910390f35b34801561022c57600080fd5b50610235610d4c565b604051808273ffffffffffffffffffffffffffffffffffffffff1673ffffffffffffffffffffffffffffffffffffffff16815260200191505060405180910390f35b34801561028357600080fd5b5061028c610d75565b604051808215151515815260200191505060405180910390f35b3480156102b257600080fd5b506102d160048036038101908080359060200190929190505050610dcc565b604051808273ffffffffffffffffffffffffffffffffffffffff1673ffffffffffffffffffffffffffffffffffffffff16815260200191505060405180910390f35b34801561031f57600080fd5b50610328610e0a565b6040518082815260200191505060405180910390f35b34801561034a57600080fd5b50610353610e10565b604051808215151515815260200191505060405180910390f35b34801561037957600080fd5b506103c2600480360381019080803573ffffffffffffffffffffffffffffffffffffffff1690602001909291908035906020019092919080359060200190929190505050610e23565b005b3480156103d057600080fd5b50610405600480360381019080803573ffffffffffffffffffffffffffffffffffffffff169060200190929190505050611305565b60405180848152602001838152602001828152602001935050505060405180910390f35b34801561043557600080fd5b5061043e61132f565b6040518082815260200191505060405180910390f35b34801561046057600080fd5b506104896004803603810190808035906020019092919080359060200190929190505050611335565b005b34801561049757600080fd5b506104a061150a565b604051808215151515815260200191505060405180910390f35b3480156104c657600080fd5b506104cf61151d565b6040518082815260200191505060405180910390f35b3480156104f157600080fd5b50610526600480360381019080803573ffffffffffffffffffffffffffffffffffffffff169060200190929190505050611523565b005b34801561053457600080fd5b5061053d6115ab565b604051808273ffffffffffffffffffffffffffffffffffffffff1673ffffffffffffffffffffffffffffffffffffffff16815260200191505060405180910390f35b6001600760006101000a81548160ff021916908315150217905550565b6000806000600260003373ffffffffffffffffffffffffffffffffffffffff1673ffffffffffffffffffffffffffffffffffffffff16815260200190815260200160002092506000836000015411151561065e576040517f08c379a00000000000000000000000000000000000000000000000000000000081526004018080602001828103825260148152602001807f4772616e7420646f6573206e6f7420657869737400000000000000000000000081525060200191505060405180910390fd5b61069283606060405190810160405290816000820154815260200160018201548152602001600282015481525050426115d1565b915060008211151561070c576040517f08c379a00000000000000000000000000000000000000000000000000000000081526004018080602001828103825260198152602001807f5468657265206973206e6f2076657374656420746f6b656e730000000000000081525060200191505060405180910390fd5b61071a828460020154611685565b90506000811115156107ba576040517f08c379a000000000000000000000000000000000000000000000000000000000815260040180806020018281038252602e8152602001807f5468657265206973206e6f2072656d61696e696e672062616c616e636520666f81526020017f722074686973206164647265737300000000000000000000000000000000000081525060400191505060405180910390fd5b6107c883600201548261169e565b83600201819055506107dc60065482611685565b600681905550600160009054906101000a900473ffffffffffffffffffffffffffffffffffffffff1673ffffffffffffffffffffffffffffffffffffffff1663a9059cbb33836040518363ffffffff167c0100000000000000000000000000000000000000000000000000000000028152600401808373ffffffffffffffffffffffffffffffffffffffff1673ffffffffffffffffffffffffffffffffffffffff16815260200182815260200192505050602060405180830381600087803b1580156108a757600080fd5b505af11580156108bb573d6000803e3d6000fd5b505050506040513d60208110156108d157600080fd5b8101908080519060200190929190505050507f38e785014e96127623de427316eafb50c37603b38f89ee19e2148b04894a3d963382604051808373ffffffffffffffffffffffffffffffffffffffff1673ffffffffffffffffffffffffffffffffffffffff1681526020018281526020019250505060405180910390a1505050565b6000600160009054906101000a900473ffffffffffffffffffffffffffffffffffffffff1673ffffffffffffffffffffffffffffffffffffffff166370a08231306040518263ffffffff167c0100000000000000000000000000000000000000000000000000000000028152600401808273ffffffffffffffffffffffffffffffffffffffff1673ffffffffffffffffffffffffffffffffffffffff168152602001915050602060405180830381600087803b158015610a1257600080fd5b505af1158015610a26573d6000803e3d6000fd5b505050506040513d6020811015610a3c57600080fd5b81019080805190602001909291905050509050600160009054906101000a900473ffffffffffffffffffffffffffffffffffffffff1673ffffffffffffffffffffffffffffffffffffffff1663a9059cbb83836040518363ffffffff167c0100000000000000000000000000000000000000000000000000000000028152600401808373ffffffffffffffffffffffffffffffffffffffff1673ffffffffffffffffffffffffffffffffffffffff16815260200182815260200192505050602060405180830381600087803b158015610b1457600080fd5b505af1158015610b28573d6000803e3d6000fd5b505050506040513d6020811015610b3e57600080fd5b8101908080519060200190929190505050507f3d5a341dc6a12221fcf31279cef3771f8fad757b2d9261f97605ccc17c257424816040518082815260200191505060405180910390a15050565b60065481565b610b99610d75565b1515610c0d576040517f08c379a00000000000000000000000000000000000000000000000000000000081526004018080602001828103825260098152602001807f4e6f74206f776e6572000000000000000000000000000000000000000000000081525060200191505060405180910390fd5b6000809054906101000a900473ffffffffffffffffffffffffffffffffffffffff1673ffffffffffffffffffffffffffffffffffffffff167ff8df31144d9c2f0f6b59d69b8b98abd5459d07f2742c4df920b25aae33c6482060405160405180910390a260008060006101000a81548173ffffffffffffffffffffffffffffffffffffffff021916908373ffffffffffffffffffffffffffffffffffffffff160217905550565b600080600260008573ffffffffffffffffffffffffffffffffffffffff1673ffffffffffffffffffffffffffffffffffffffff1681526020019081526020016000209050600081600001541415610d0e5760009150610d45565b610d4281606060405190810160405290816000820154815260200160018201548152602001600282015481525050846115d1565b91505b5092915050565b60008060009054906101000a900473ffffffffffffffffffffffffffffffffffffffff16905090565b60008060009054906101000a900473ffffffffffffffffffffffffffffffffffffffff1673ffffffffffffffffffffffffffffffffffffffff163373ffffffffffffffffffffffffffffffffffffffff1614905090565b600881815481101515610ddb57fe5b906000526020600020016000915054906101000a900473ffffffffffffffffffffffffffffffffffffffff1681565b60055481565b600060149054906101000a900460ff1681565b610e2b610d75565b1515610e9f576040517f08c379a00000000000000000000000000000000000000000000000000000000081526004018080602001828103825260098152602001807f4e6f74206f776e6572000000000000000000000000000000000000000000000081525060200191505060405180910390fd5b60001515600760009054906101000a900460ff161515141515610f2a576040517f08c379a00000000000000000000000000000000000000000000000000000000081526004018080602001828103825260178152602001807f5661756c7420697320616c7265616479206c6f636b656400000000000000000081525060200191505060405180910390fd5b600073ffffffffffffffffffffffffffffffffffffffff168373ffffffffffffffffffffffffffffffffffffffff1614151515610fcf576040517f08c379a000000000000000000000000000000000000000000000000000000000815260040180806020018281038252601a8152602001807f416464726573732073686f756c64206e6f74206265207a65726f00000000000081525060200191505060405180910390fd5b60008211151561106d576040517f08c379a00000000000000000000000000000000000000000000000000000000081526004018080602001828103825260298152602001807f56657374656420616d6f756e742073686f756c6420626520677265617465722081526020017f7468616e207a65726f000000000000000000000000000000000000000000000081525060400191505060405180910390fd5b600081141515156110e6576040517f08c379a00000000000000000000000000000000000000000000000000000000081526004018080602001828103825260158152602001807f496e76616c69642076657374696e67206c6576656c000000000000000000000081525060200191505060405180910390fd5b6000600260008573ffffffffffffffffffffffffffffffffffffffff1673ffffffffffffffffffffffffffffffffffffffff168152602001908152602001600020600001541415156111a0576040517f08c379a000000000000000000000000000000000000000000000000000000000815260040180806020018281038252601e8152602001807f416c726561647920616464656420746f2076657374696e67207661756c74000081525060200191505060405180910390fd5b6060604051908101604052808381526020018281526020016000815250600260008573ffffffffffffffffffffffffffffffffffffffff1673ffffffffffffffffffffffffffffffffffffffff16815260200190815260200160002060008201518160000155602082015181600101556040820151816002015590505060088390806001815401808255809150509060018203906000526020600020016000909192909190916101000a81548173ffffffffffffffffffffffffffffffffffffffff021916908373ffffffffffffffffffffffffffffffffffffffff160217905550507f9f808b48aa49d6354341cec305ba80825f6548f485ac497629c213c699e0b4568383604051808373ffffffffffffffffffffffffffffffffffffffff1673ffffffffffffffffffffffffffffffffffffffff1681526020018281526020019250505060405180910390a16112fa6006548361169e565b600681905550505050565b60026020528060005260406000206000915090508060000154908060010154908060020154905083565b60035481565b61133d610d75565b15156113b1576040517f08c379a00000000000000000000000000000000000000000000000000000000081526004018080602001828103825260098152602001807f4e6f74206f776e6572000000000000000000000000000000000000000000000081525060200191505060405180910390fd5b60001515600760009054906101000a900460ff16151514151561143c576040517f08c379a00000000000000000000000000000000000000000000000000000000081526004018080602001828103825260178152602001807f5661756c7420697320616c7265616479206c6f636b656400000000000000000081525060200191505060405180910390fd5b42821115156114b3576040517f08c379a000000000000000000000000000000000000000000000000000000000815260040180806020018281038252601a8152602001807f53746172742074696d652073686f756c642062652076616c696400000000000081525060200191505060405180910390fd5b816003819055508060058190555060055460020282016004819055507f85715036950e30029d114e21984a1aa2cd393ecc31dc2c822b50716e61b3c52f826040518082815260200191505060405180910390a15050565b600760009054906101000a900460ff1681565b60045481565b61152b610d75565b151561159f576040517f08c379a00000000000000000000000000000000000000000000000000000000081526004018080602001828103825260098152602001807f4e6f74206f776e6572000000000000000000000000000000000000000000000081525060200191505060405180910390fd5b6115a8816116c8565b50565b600160009054906101000a900473ffffffffffffffffffffffffffffffffffffffff1681565b6000816005546003540111156115ea576000905061167f565b816004541015611600578260000151905061167f565b81600554600354011115801561161e57506005546002026003540182105b1561167e57600183602001511415611650576116496116428460000151601461182b565b606461185e565b905061167f565b60028360200151141561167d5761167661166f8460000151602161182b565b606461185e565b905061167f565b5b5b92915050565b600082821115151561169357fe5b818303905092915050565b60008082840190508381101580156116b65750828110155b15156116be57fe5b8091505092915050565b600073ffffffffffffffffffffffffffffffffffffffff168173ffffffffffffffffffffffffffffffffffffffff161415151561176d576040517f08c379a00000000000000000000000000000000000000000000000000000000081526004018080602001828103825260168152602001807f4e6577206f776e6572206164647265737320697320300000000000000000000081525060200191505060405180910390fd5b8073ffffffffffffffffffffffffffffffffffffffff166000809054906101000a900473ffffffffffffffffffffffffffffffffffffffff1673ffffffffffffffffffffffffffffffffffffffff167f8be0079c531659141344cd1fd0a4f28419497f9722a3daafe3b4186f6b6457e060405160405180910390a3806000806101000a81548173ffffffffffffffffffffffffffffffffffffffff021916908373ffffffffffffffffffffffffffffffffffffffff16021790555050565b6000808284029050600084148061184c575082848281151561184957fe5b04145b151561185457fe5b8091505092915050565b60008060008311151561186d57fe5b828481151561187857fe5b049050828481151561188657fe5b06818402018414151561189557fe5b80915050929150505600a165627a7a72305820e95519eeab77c28f7427a43fe6ba3aa26ac174246e3fda5a656e2df99b6e79bd0029",
  "source": "pragma solidity ^0.4.24;\n\nimport \"./CrowdsaleTokenExt.sol\";\n\n/**\n* @title VestingVault Contract that will hold vested tokens\n* @notice Tokens for vested contributors will be hold in this contract and administrator will release after business days\n*/\ncontract TokenVesting is Ownable, SafeMath {\n\n  struct Grant {\n    uint value;       // vested amount\n    uint level;\n    uint transferred; // transferred amount\n  }\n\n  CrowdsaleTokenExt public token;\n\n  mapping (address => Grant) public grants;\n\n  uint public start;\n  uint public end;\n  uint public slide;\n  uint public totalVestedTokens;\n  bool public locked;\n\n  // array of vested users addresses\n  address[] public vestedAddresses;\n\n  event StartVesting(uint256 _time);\n  event NewGrant(address _holder, uint _amount);\n  event NewRelease(address _holder, uint _amount);\n  event WithdrawAll(uint _amount);\n  event LockedVault(address _address);\n\n  modifier isOpen() {\n    require(locked == false, \"Vault is already locked\");\n    _;\n  }\n\n  constructor (CrowdsaleTokenExt _token) public {\n    require(address(_token) != 0, \"Token address should not be zero\");\n\n    token = _token;\n    locked = false;\n  }\n\n  /**\n   * @dev Function to set vesting start time\n   * @param _start epoch time that vesting starts from\n   @ @param _slide seconds amound of vesting slide\n   */\n  function startVesting(uint256 _start, uint256 _slide) public onlyOwner isOpen {\n    require(_start > now, \"Start time should be valid\");\n    start = _start;\n    slide = _slide;\n    end = _start + 2 * slide;\n\n    emit StartVesting(_start);\n  }\n\n  /**\n   * @dev Add vested contributor information\n   * @param _to Withdraw address that tokens will be sent\n   * @param _value Amount to hold for vesting period\n   * @param _level Indicator that will represent vesting level for 0.03 and 0.05 eur tier; has 1 or 2\n   */\n  function grant(address _to, uint _value, uint _level) external onlyOwner isOpen {\n    require(_to != address(0), \"Address should not be zero\");\n    require(_value > 0, \"Vested amount should be greater than zero\");\n    require(_level != 0, \"Invalid vesting level\");\n\n    // make sure a single address can be granted tokens only once.\n    require(grants[_to].value == 0, \"Already added to vesting vault\");\n\n    grants[_to] = Grant({\n      value: _value,\n      level: _level,\n      transferred: 0\n      });\n\n    vestedAddresses.push(_to);\n\n    emit NewGrant(_to, _value);\n    totalVestedTokens = safeAdd(totalVestedTokens, _value);\n  }\n\n  /**\n   * @dev Get token amount for a token holder available to transfer at specific time\n   * @param _holder Address that represents holders withdraw address\n   * @param _time Time at the moment\n   * @return Int value that represents token amount that is available to release at the moment\n   */\n  function transferableTokens(address _holder, uint256 _time) public view returns (uint256) {\n    Grant storage grantInfo = grants[_holder];\n\n    if (grantInfo.value == 0) {\n      return 0;\n    }\n\n    return calculateTransferableTokens(grantInfo, _time);\n  }\n\n  /**\n   * @dev Internal function to calculate available amount at specific time\n   */\n  function calculateTransferableTokens(Grant _grant, uint256 _time) private view returns (uint256) {\n    // before cliff date (first vesting slide)\n    if (start + slide > _time) {\n      return 0;\n    }\n\n    // after vesting period ends\n    if (end < _time) {\n      return _grant.value;\n    }\n\n    if ((start + slide <= _time) && (_time < start + 2 * slide)) {\n      if (_grant.level == 1) {\n        // 20% of tokens will be available after 1 slide for contributors purchased at price 0.03 eur\n        return safeDiv(safeMul(_grant.value, 20), 100);\n      } else if (_grant.level == 2) {\n        // 33% of tokens will be available after 1 slide for contributors purchased at price 0.05 eur\n        return safeDiv(safeMul(_grant.value, 33), 100);\n      }\n    }\n  }\n\n  /**\n   * @dev Claim vested token\n   * @notice this will be eligible after first 90 days and after next 180 days\n   */\n  function claim() public {\n    Grant storage grantInfo = grants[msg.sender];\n    require(grantInfo.value > 0, \"Grant does not exist\");\n\n    uint256 vested = calculateTransferableTokens(grantInfo, now);\n    require(vested > 0, \"There is no vested tokens\");\n\n    uint256 transferable = safeSub(vested, grantInfo.transferred);\n    require(transferable > 0, \"There is no remaining balance for this address\");\n\n    grantInfo.transferred = safeAdd(grantInfo.transferred, transferable);\n    totalVestedTokens = safeSub(totalVestedTokens, transferable);\n\n    token.transfer(msg.sender, transferable);\n\n    emit NewRelease(msg.sender, transferable);\n  }\n\n  /**\n   * @dev Function to release tokens for team\n   */\n  function withdraw(address teamWallet) public {\n    uint amount = token.balanceOf(address(this));\n    token.transfer(teamWallet, amount);\n\n    emit WithdrawAll(amount);\n  }\n\n  /**\n   * @dev Function to lock vault not to be able to alloc more\n   */\n  function lockVault() public {\n    locked = true;\n  }\n}",
  "sourcePath": "/home/trungtt/Work/reference/morphe/ico/ico-as-service-new/contracts/TokenVesting.sol",
  "compiler": {
    "name": "solc",
    "version": "0.4.24+commit.e67f0147.Emscripten.clang"
  },
  "schemaVersion": "2.0.1",
  "updatedAt": "2019-02-13T09:25:31.639Z"
}